{"project/src/contracts/PriceOracle.sol":{"PriceOracle":{"abi":[{"inputs":[{"internalType":"address","name":"_admin","type":"address"}],"stateMutability":"nonpayable","type":"constructor"},{"inputs":[],"name":"EmptyBatch","type":"error"},{"inputs":[{"internalType":"bytes32","name":"productHash","type":"bytes32"},{"internalType":"uint256","name":"lastUpdate","type":"uint256"}],"name":"StalePrice","type":"error"},{"anonymous":false,"inputs":[{"indexed":false,"internalType":"bytes32[]","name":"productHashes","type":"bytes32[]"},{"indexed":false,"internalType":"uint256","name":"timestamp","type":"uint256"}],"name":"PriceBatchUpdated","type":"event"},{"anonymous":false,"inputs":[{"indexed":true,"internalType":"bytes32","name":"productHash","type":"bytes32"},{"indexed":false,"internalType":"uint256","name":"unitPrice","type":"uint256"},{"indexed":false,"internalType":"uint256","name":"supplierScore","type":"uint256"},{"indexed":false,"internalType":"uint256","name":"timestamp","type":"uint256"}],"name":"PriceUpdated","type":"event"},{"inputs":[],"name":"DEFAULT_STALENESS_THRESHOLD","outputs":[{"internalType":"uint256","name":"","type":"uint256"}],"stateMutability":"view","type":"function"},{"inputs":[],"name":"MAX_ENTRIES_PER_PRODUCT","outputs":[{"internalType":"uint256","name":"","type":"uint256"}],"stateMutability":"view","type":"function"},{"inputs":[],"name":"acceptAdmin","outputs":[],"stateMutability":"nonpayable","type":"function"},{"inputs":[],"name":"admin","outputs":[{"internalType":"address","name":"","type":"address"}],"stateMutability":"view","type":"function"},{"inputs":[{"internalType":"address","name":"","type":"address"}],"name":"authorizedUpdaters","outputs":[{"internalType":"bool","name":"","type":"bool"}],"stateMutability":"view","type":"function"},{"inputs":[{"internalType":"bytes32[]","name":"productHashes","type":"bytes32[]"},{"components":[{"internalType":"bytes32","name":"productHash","type":"bytes32"},{"internalType":"uint256","name":"unitPrice","type":"uint256"},{"internalType":"uint256","name":"moq","type":"uint256"},{"internalType":"uint256","name":"shippingCost","type":"uint256"},{"internalType":"uint256","name":"supplierScore","type":"uint256"},{"internalType":"uint256","name":"timestamp","type":"uint256"},{"internalType":"string","name":"supplierRef","type":"string"}],"internalType":"struct PriceEntry[]","name":"allEntries","type":"tuple[]"},{"internalType":"uint256[]","name":"entryCounts","type":"uint256[]"}],"name":"batchUpdatePrices","outputs":[],"stateMutability":"nonpayable","type":"function"},{"inputs":[{"internalType":"string","name":"productId","type":"string"}],"name":"computeProductHash","outputs":[{"internalType":"bytes32","name":"","type":"bytes32"}],"stateMutability":"pure","type":"function"},{"inputs":[{"internalType":"bytes32","name":"productHash","type":"bytes32"}],"name":"getBestPrice","outputs":[{"components":[{"internalType":"bytes32","name":"productHash","type":"bytes32"},{"internalType":"uint256","name":"unitPrice","type":"uint256"},{"internalType":"uint256","name":"moq","type":"uint256"},{"internalType":"uint256","name":"shippingCost","type":"uint256"},{"internalType":"uint256","name":"supplierScore","type":"uint256"},{"internalType":"uint256","name":"timestamp","type":"uint256"},{"internalType":"string","name":"supplierRef","type":"string"}],"internalType":"struct PriceEntry","name":"bestEntry","type":"tuple"}],"stateMutability":"view","type":"function"},{"inputs":[{"internalType":"bytes32","name":"productHash","type":"bytes32"}],"name":"getBestSupplier","outputs":[{"components":[{"internalType":"bytes32","name":"productHash","type":"bytes32"},{"internalType":"uint256","name":"unitPrice","type":"uint256"},{"internalType":"uint256","name":"moq","type":"uint256"},{"internalType":"uint256","name":"shippingCost","type":"uint256"},{"internalType":"uint256","name":"supplierScore","type":"uint256"},{"internalType":"uint256","name":"timestamp","type":"uint256"},{"internalType":"string","name":"supplierRef","type":"string"}],"internalType":"struct PriceEntry","name":"bestEntry","type":"tuple"}],"stateMutability":"view","type":"function"},{"inputs":[{"internalType":"bytes32","name":"productHash","type":"bytes32"}],"name":"getEntryCount","outputs":[{"internalType":"uint256","name":"","type":"uint256"}],"stateMutability":"view","type":"function"},{"inputs":[{"internalType":"bytes32","name":"productHash","type":"bytes32"}],"name":"getPrice","outputs":[{"components":[{"internalType":"bytes32","name":"productHash","type":"bytes32"},{"internalType":"uint256","name":"unitPrice","type":"uint256"},{"internalType":"uint256","name":"moq","type":"uint256"},{"internalType":"uint256","name":"shippingCost","type":"uint256"},{"internalType":"uint256","name":"supplierScore","type":"uint256"},{"internalType":"uint256","name":"timestamp","type":"uint256"},{"internalType":"string","name":"supplierRef","type":"string"}],"internalType":"struct PriceEntry[]","name":"entries","type":"tuple[]"},{"internalType":"uint256","name":"timestamp","type":"uint256"}],"stateMutability":"view","type":"function"},{"inputs":[],"name":"getProductCount","outputs":[{"internalType":"uint256","name":"","type":"uint256"}],"stateMutability":"view","type":"function"},{"inputs":[{"internalType":"bytes32","name":"productHash","type":"bytes32"}],"name":"isPriceFresh","outputs":[{"internalType":"bool","name":"isFresh","type":"bool"}],"stateMutability":"view","type":"function"},{"inputs":[{"internalType":"uint256","name":"","type":"uint256"}],"name":"knownProducts","outputs":[{"internalType":"bytes32","name":"","type":"bytes32"}],"stateMutability":"view","type":"function"},{"inputs":[{"internalType":"bytes32","name":"","type":"bytes32"}],"name":"lastUpdated","outputs":[{"internalType":"uint256","name":"","type":"uint256"}],"stateMutability":"view","type":"function"},{"inputs":[],"name":"pendingAdmin","outputs":[{"internalType":"address","name":"","type":"address"}],"stateMutability":"view","type":"function"},{"inputs":[{"internalType":"bytes32","name":"","type":"bytes32"}],"name":"productExists","outputs":[{"internalType":"bool","name":"","type":"bool"}],"stateMutability":"view","type":"function"},{"inputs":[{"internalType":"address","name":"updater","type":"address"},{"internalType":"bool","name":"authorized","type":"bool"}],"name":"setAuthorizedUpdater","outputs":[],"stateMutability":"nonpayable","type":"function"},{"inputs":[{"internalType":"uint256","name":"_threshold","type":"uint256"}],"name":"setStalenessThreshold","outputs":[],"stateMutability":"nonpayable","type":"function"},{"inputs":[],"name":"stalenessThreshold","outputs":[{"internalType":"uint256","name":"","type":"uint256"}],"stateMutability":"view","type":"function"},{"inputs":[{"internalType":"address","name":"newAdmin","type":"address"}],"name":"transferAdmin","outputs":[],"stateMutability":"nonpayable","type":"function"},{"inputs":[{"internalType":"bytes32","name":"productHash","type":"bytes32"},{"components":[{"internalType":"bytes32","name":"productHash","type":"bytes32"},{"internalType":"uint256","name":"unitPrice","type":"uint256"},{"internalType":"uint256","name":"moq","type":"uint256"},{"internalType":"uint256","name":"shippingCost","type":"uint256"},{"internalType":"uint256","name":"supplierScore","type":"uint256"},{"internalType":"uint256","name":"timestamp","type":"uint256"},{"internalType":"string","name":"supplierRef","type":"string"}],"internalType":"struct PriceEntry[]","name":"entries","type":"tuple[]"}],"name":"updatePrice","outputs":[],"stateMutability":"nonpayable","type":"function"}],"evm":{"bytecode":{"linkReferences":{},"object":"6080604052348015600f57600080fd5b50604051611c72380380611c72833981016040819052602c9160af565b6001600160a01b03811660855760405162461bcd60e51b815260206004820152601760248201527f50726963654f7261636c653a207a65726f2061646d696e000000000000000000604482015260640160405180910390fd5b600080546001600160a01b0319166001600160a01b039290921691909117905561546060055560dd565b60006020828403121560c057600080fd5b81516001600160a01b038116811460d657600080fd5b9392505050565b611b86806100ec6000396000f3fe608060405234801561001057600080fd5b50600436106101425760003560e01c8063828323f7116100b8578063b25f68ae1161007c578063b25f68ae146102de578063c9d998f1146102e7578063f43b11a0146102fa578063f6ef34f91461030d578063f851a44014610320578063fb01e7f21461033357600080fd5b8063828323f71461026c5780638ff29cfe1461027f5780639749ee3f146102a257806399fc65d4146102c2578063a84f6ebb146102d557600080fd5b806331d98b3f1161010a57806331d98b3f146101ca5780633cc67143146101eb578063498d1fec146101fe5780634a348da91461021e5780634d4721161461022657806375829def1461025957600080fd5b8063060eb2f5146101475780630e18b6811461017a5780631337ea9514610184578063217e24b514610197578063267822471461019f575b600080fd5b610167610155366004611519565b60046020526000908152604090205481565b6040519081526020015b60405180910390f35b610182610346565b005b610167610192366004611532565b6103cc565b610167600a81565b6001546101b2906001600160a01b031681565b6040516001600160a01b039091168152602001610171565b6101dd6101d8366004611519565b610400565b604051610171929190611636565b6101826101f93660046116ef565b610549565b61016761020c366004611519565b60009081526003602052604090205490565b600654610167565b610249610234366004611519565b60076020526000908152604090205460ff1681565b6040519015158152602001610171565b6101826102673660046117b1565b610958565b61024961027a366004611519565b6109f6565b61024961028d3660046117b1565b60026020526000908152604090205460ff1681565b6102b56102b0366004611519565b610a1d565b60405161017191906117d3565b6101826102d03660046117e6565b610cfc565b61016760055481565b61016761546081565b6102b56102f5366004611519565b610da3565b610167610308366004611519565b61107b565b61018261031b366004611822565b61109c565b6000546101b2906001600160a01b031681565b610182610341366004611519565b6113d1565b6001546001600160a01b031633146103a55760405162461bcd60e51b815260206004820152601e60248201527f50726963654f7261636c653a206e6f742070656e64696e672061646d696e000060448201526064015b60405180910390fd5b60018054600080546001600160a01b03199081166001600160a01b03841617909155169055565b600082826040516020016103e192919061186e565b6040516020818303038152906040528051906020012090505b92915050565b6000818152600360209081526040808320600483528184205481548351818602810186019094528084526060959492939192849190869084015b8282101561053a57838290600052602060002090600702016040518060e00160405290816000820154815260200160018201548152602001600282015481526020016003820154815260200160048201548152602001600582015481526020016006820180546104a99061187e565b80601f01602080910402602001604051908101604052809291908181526020018280546104d59061187e565b80156105225780601f106104f757610100808354040283529160200191610522565b820191906000526020600020905b81548152906001019060200180831161050557829003601f168201915b5050505050815250508152602001906001019061043a565b50505050915091509150915091565b3360009081526002602052604090205460ff166105a85760405162461bcd60e51b815260206004820152601b60248201527f50726963654f7261636c653a206e6f7420617574686f72697a65640000000000604482015260640161039c565b60008590036105ca5760405163c2e5347d60e01b815260040160405180910390fd5b8481146106195760405162461bcd60e51b815260206004820152601c60248201527f50726963654f7261636c653a206c656e677468206d69736d6174636800000000604482015260640161039c565b6000805b868110156108c4576000848483818110610639576106396118b8565b9050602002013590506000811180156106535750600a8111155b61069f5760405162461bcd60e51b815260206004820152601a60248201527f50726963654f7261636c653a20696e76616c696420636f756e74000000000000604482015260640161039c565b856106aa82856118e4565b11156106f05760405162461bcd60e51b815260206004820152601560248201527450726963654f7261636c653a206f766572666c6f7760581b604482015260640161039c565b6000898984818110610704576107046118b8565b60209081029290920135600081815260079093526040909220549192505060ff16610774576006805460018181019092557ff652222313e28459528d920b65115c16c04f3efc82aaedc97be59f3f377c0d3f018290556000828152600760205260409020805460ff191690911790555b600081815260036020526040812061078b91611461565b60005b8281101561089c573689896107a384896118e4565b8181106107b2576107b26118b8565b90506020028101906107c491906118f7565b9050803583146108165760405162461bcd60e51b815260206004820152601a60248201527f50726963654f7261636c653a2068617368206d69736d61746368000000000000604482015260640161039c565b60008160200135116108645760405162461bcd60e51b815260206004820152601760248201527650726963654f7261636c653a207a65726f20707269636560481b604482015260640161039c565b60008381526003602090815260408220805460018101825590835291208291600702016108918282611a3c565b50505060010161078e565b5060008181526004602052604090204290556108b882856118e4565b9350505060010161061d565b508084146109145760405162461bcd60e51b815260206004820152601b60248201527f50726963654f7261636c653a20636f756e74206d69736d617463680000000000604482015260640161039c565b7f0a15e5934a0588c0fd58c7549435c158768c074b01c6e1dadac82ca430a0d2ff87874260405161094793929190611acf565b60405180910390a150505050505050565b6000546001600160a01b031633146109825760405162461bcd60e51b815260040161039c90611b0d565b6001600160a01b0381166109d45760405162461bcd60e51b815260206004820152601960248201527850726963654f7261636c653a207a65726f206164647265737360381b604482015260640161039c565b600180546001600160a01b0319166001600160a01b0392909216919091179055565b600554600082815260046020526040812054909190610a159042611b3d565b111592915050565b610a606040518060e00160405280600080191681526020016000815260200160008152602001600081526020016000815260200160008152602001606081525090565b60008281526003602052604090208054610ab65760405162461bcd60e51b815260206004820152601760248201527650726963654f7261636c653a206e6f20656e747269657360481b604482015260640161039c565b80600081548110610ac957610ac96118b8565b90600052602060002090600702016040518060e0016040529081600082015481526020016001820154815260200160028201548152602001600382015481526020016004820154815260200160058201548152602001600682018054610b2e9061187e565b80601f0160208091040260200160405190810160405280929190818152602001828054610b5a9061187e565b8015610ba75780601f10610b7c57610100808354040283529160200191610ba7565b820191906000526020600020905b815481529060010190602001808311610b8a57829003601f168201915b50505050508152505091506000600190505b8154811015610cf5578260800151828281548110610bd957610bd96118b8565b9060005260206000209060070201600401541115610ced57818181548110610c0357610c036118b8565b90600052602060002090600702016040518060e0016040529081600082015481526020016001820154815260200160028201548152602001600382015481526020016004820154815260200160058201548152602001600682018054610c689061187e565b80601f0160208091040260200160405190810160405280929190818152602001828054610c949061187e565b8015610ce15780601f10610cb657610100808354040283529160200191610ce1565b820191906000526020600020905b815481529060010190602001808311610cc457829003601f168201915b50505050508152505092505b600101610bb9565b5050919050565b6000546001600160a01b03163314610d265760405162461bcd60e51b815260040161039c90611b0d565b6001600160a01b038216610d785760405162461bcd60e51b815260206004820152601960248201527850726963654f7261636c653a207a65726f206164647265737360381b604482015260640161039c565b6001600160a01b03919091166000908152600260205260409020805460ff1916911515919091179055565b610de66040518060e00160405280600080191681526020016000815260200160008152602001600081526020016000815260200160008152602001606081525090565b60008281526003602052604090208054610e3c5760405162461bcd60e51b815260206004820152601760248201527650726963654f7261636c653a206e6f20656e747269657360481b604482015260640161039c565b80600081548110610e4f57610e4f6118b8565b90600052602060002090600702016040518060e0016040529081600082015481526020016001820154815260200160028201548152602001600382015481526020016004820154815260200160058201548152602001600682018054610eb49061187e565b80601f0160208091040260200160405190810160405280929190818152602001828054610ee09061187e565b8015610f2d5780601f10610f0257610100808354040283529160200191610f2d565b820191906000526020600020905b815481529060010190602001808311610f1057829003601f168201915b50505050508152505091506000600190505b8154811015610cf5578260200151828281548110610f5f57610f5f6118b8565b906000526020600020906007020160010154101561107357818181548110610f8957610f896118b8565b90600052602060002090600702016040518060e0016040529081600082015481526020016001820154815260200160028201548152602001600382015481526020016004820154815260200160058201548152602001600682018054610fee9061187e565b80601f016020809104026020016040519081016040528092919081815260200182805461101a9061187e565b80156110675780601f1061103c57610100808354040283529160200191611067565b820191906000526020600020905b81548152906001019060200180831161104a57829003601f168201915b50505050508152505092505b600101610f3f565b6006818154811061108b57600080fd5b600091825260209091200154905081565b3360009081526002602052604090205460ff166110fb5760405162461bcd60e51b815260206004820152601b60248201527f50726963654f7261636c653a206e6f7420617574686f72697a65640000000000604482015260640161039c565b801580159061110b5750600a8111155b6111625760405162461bcd60e51b815260206004820152602260248201527f50726963654f7261636c653a20696e76616c696420656e747269657320636f756044820152611b9d60f21b606482015260840161039c565b60008381526007602052604090205460ff166111c3576006805460018181019092557ff652222313e28459528d920b65115c16c04f3efc82aaedc97be59f3f377c0d3f018490556000848152600760205260409020805460ff191690911790555b60008381526003602052604081206111da91611461565b60005b8181101561132757838383838181106111f8576111f86118b8565b905060200281019061120a91906118f7565b35146112585760405162461bcd60e51b815260206004820152601a60248201527f50726963654f7261636c653a2068617368206d69736d61746368000000000000604482015260640161039c565b600083838381811061126c5761126c6118b8565b905060200281019061127e91906118f7565b60200135116112c95760405162461bcd60e51b815260206004820152601760248201527650726963654f7261636c653a207a65726f20707269636560481b604482015260640161039c565b60008481526003602052604090208383838181106112e9576112e96118b8565b90506020028101906112fb91906118f7565b81546001810183556000928352602090922090916007020161131d8282611a3c565b50506001016111dd565b50600083815260046020526040812042905583907f1c278fa9790ee5cfae7607a35202b57ef06960df9fe79baca5d617e2db126d6f90849084908161136e5761136e6118b8565b905060200281019061138091906118f7565b6020013584846000818110611397576113976118b8565b90506020028101906113a991906118f7565b60408051928352608091909101356020830152429082015260600160405180910390a2505050565b6000546001600160a01b031633146113fb5760405162461bcd60e51b815260040161039c90611b0d565b610e108110158015611410575062093a808111155b61145c5760405162461bcd60e51b815260206004820152601e60248201527f50726963654f7261636c653a20696e76616c6964207468726573686f6c640000604482015260640161039c565b600555565b50805460008255600702906000526020600020908101906114829190611485565b50565b808211156114cb57600080825560018201819055600282018190556003820181905560048201819055600582018190556114c260068301826114cf565b50600701611485565b5090565b5080546114db9061187e565b6000825580601f106114eb575050565b601f01602090049060005260206000209081019061148291905b808211156114cb5760008155600101611505565b60006020828403121561152b57600080fd5b5035919050565b6000806020838503121561154557600080fd5b823567ffffffffffffffff81111561155c57600080fd5b8301601f8101851361156d57600080fd5b803567ffffffffffffffff81111561158457600080fd5b85602082840101111561159657600080fd5b6020919091019590945092505050565b805182526020810151602083015260408101516040830152606081015160608301526080810151608083015260a081015160a0830152600060c082015160e060c085015280518060e086015260005b818110156116135760208184018101516101008884010152016115f5565b5060006101008287010152610100601f19601f8301168601019250505092915050565b6000604082016040835280855180835260608501915060608160051b86010192506020870160005b8281101561168f57605f1987860301845261167a8583516115a6565b9450602093840193919091019060010161165e565b505050506020929092019290925292915050565b60008083601f8401126116b557600080fd5b50813567ffffffffffffffff8111156116cd57600080fd5b6020830191508360208260051b85010111156116e857600080fd5b9250929050565b6000806000806000806060878903121561170857600080fd5b863567ffffffffffffffff81111561171f57600080fd5b61172b89828a016116a3565b909750955050602087013567ffffffffffffffff81111561174b57600080fd5b61175789828a016116a3565b909550935050604087013567ffffffffffffffff81111561177757600080fd5b61178389828a016116a3565b979a9699509497509295939492505050565b80356001600160a01b03811681146117ac57600080fd5b919050565b6000602082840312156117c357600080fd5b6117cc82611795565b9392505050565b6020815260006117cc60208301846115a6565b600080604083850312156117f957600080fd5b61180283611795565b91506020830135801515811461181757600080fd5b809150509250929050565b60008060006040848603121561183757600080fd5b83359250602084013567ffffffffffffffff81111561185557600080fd5b611861868287016116a3565b9497909650939450505050565b8183823760009101908152919050565b600181811c9082168061189257607f821691505b6020821081036118b257634e487b7160e01b600052602260045260246000fd5b50919050565b634e487b7160e01b600052603260045260246000fd5b634e487b7160e01b600052601160045260246000fd5b808201808211156103fa576103fa6118ce565b6000823560de1983360301811261190d57600080fd5b9190910192915050565b634e487b7160e01b600052604160045260246000fd5b601f82111561197757806000526020600020601f840160051c810160208510156119545750805b601f840160051c820191505b818110156119745760008155600101611960565b50505b505050565b67ffffffffffffffff83111561199457611994611917565b6119a8836119a2835461187e565b8361192d565b6000601f8411600181146119dc57600085156119c45750838201355b600019600387901b1c1916600186901b178355611974565b600083815260209020601f19861690835b82811015611a0d57868501358255602094850194600190920191016119ed565b5086821015611a2a5760001960f88860031b161c19848701351681555b505060018560011b0183555050505050565b813581556020820135600182015560408201356002820155606082013560038201556080820135600482015560a0820135600582015560008060c084013536859003601e19018112611a8c578283fd5b84018035915067ffffffffffffffff821115611aa6578283fd5b602001915036819003821315611abb57600080fd5b611ac981836006860161197c565b50505050565b6040808252810183905260006001600160fb1b03841115611aef57600080fd5b8360051b808660608501376020830193909352500160600192915050565b602080825260169082015275283934b1b2a7b930b1b6329d103737ba1030b236b4b760511b604082015260600190565b818103818111156103fa576103fa6118ce56fea2646970667358221220957777e7f0fe21983c91b6dca0a349b479e9f0579c14e073c6e72c1b2587b01864736f6c634300081c0033","opcodes":"PUSH1 0x80 PUSH1 0x40 MSTORE CALLVALUE DUP1 ISZERO PUSH1 0xF JUMPI PUSH1 0x0 DUP1 REVERT JUMPDEST POP PUSH1 0x40 MLOAD PUSH2 0x1C72 CODESIZE SUB DUP1 PUSH2 0x1C72 DUP4 CODECOPY DUP2 ADD PUSH1 0x40 DUP2 SWAP1 MSTORE PUSH1 0x2C SWAP2 PUSH1 0xAF JUMP JUMPDEST PUSH1 0x1 PUSH1 0x1 PUSH1 0xA0 SHL SUB DUP2 AND PUSH1 0x85 JUMPI PUSH1 0x40 MLOAD PUSH3 0x461BCD PUSH1 0xE5 SHL DUP2 MSTORE PUSH1 0x20 PUSH1 0x4 DUP3 ADD MSTORE PUSH1 0x17 PUSH1 0x24 DUP3 ADD MSTORE PUSH32 0x50726963654F7261636C653A207A65726F2061646D696E000000000000000000 PUSH1 0x44 DUP3 ADD MSTORE PUSH1 0x64 ADD PUSH1 0x40 MLOAD DUP1 SWAP2 SUB SWAP1 REVERT JUMPDEST PUSH1 0x0 DUP1 SLOAD PUSH1 0x1 PUSH1 0x1 PUSH1 0xA0 SHL SUB NOT AND PUSH1 0x1 PUSH1 0x1 PUSH1 0xA0 SHL SUB SWAP3 SWAP1 SWAP3 AND SWAP2 SWAP1 SWAP2 OR SWAP1 SSTORE PUSH2 0x5460 PUSH1 0x5 SSTORE PUSH1 0xDD JUMP JUMPDEST PUSH1 0x0 PUSH1 0x20 DUP3 DUP5 SUB SLT ISZERO PUSH1 0xC0 JUMPI PUSH1 0x0 DUP1 REVERT JUMPDEST DUP2 MLOAD PUSH1 0x1 PUSH1 0x1 PUSH1 0xA0 SHL SUB DUP2 AND DUP2 EQ PUSH1 0xD6 JUMPI PUSH1 0x0 DUP1 REVERT JUMPDEST SWAP4 SWAP3 POP POP POP JUMP JUMPDEST PUSH2 0x1B86 DUP1 PUSH2 0xEC PUSH1 0x0 CODECOPY PUSH1 0x0 RETURN INVALID PUSH1 0x80 PUSH1 0x40 MSTORE CALLVALUE DUP1 ISZERO PUSH2 0x10 JUMPI PUSH1 0x0 DUP1 REVERT JUMPDEST POP PUSH1 0x4 CALLDATASIZE LT PUSH2 0x142 JUMPI PUSH1 0x0 CALLDATALOAD PUSH1 0xE0 SHR DUP1 PUSH4 0x828323F7 GT PUSH2 0xB8 JUMPI DUP1 PUSH4 0xB25F68AE GT PUSH2 0x7C JUMPI DUP1 PUSH4 0xB25F68AE EQ PUSH2 0x2DE JUMPI DUP1 PUSH4 0xC9D998F1 EQ PUSH2 0x2E7 JUMPI DUP1 PUSH4 0xF43B11A0 EQ PUSH2 0x2FA JUMPI DUP1 PUSH4 0xF6EF34F9 EQ PUSH2 0x30D JUMPI DUP1 PUSH4 0xF851A440 EQ PUSH2 0x320 JUMPI DUP1 PUSH4 0xFB01E7F2 EQ PUSH2 0x333 JUMPI PUSH1 0x0 DUP1 REVERT JUMPDEST DUP1 PUSH4 0x828323F7 EQ PUSH2 0x26C JUMPI DUP1 PUSH4 0x8FF29CFE EQ PUSH2 0x27F JUMPI DUP1 PUSH4 0x9749EE3F EQ PUSH2 0x2A2 JUMPI DUP1 PUSH4 0x99FC65D4 EQ PUSH2 0x2C2 JUMPI DUP1 PUSH4 0xA84F6EBB EQ PUSH2 0x2D5 JUMPI PUSH1 0x0 DUP1 REVERT JUMPDEST DUP1 PUSH4 0x31D98B3F GT PUSH2 0x10A JUMPI DUP1 PUSH4 0x31D98B3F EQ PUSH2 0x1CA JUMPI DUP1 PUSH4 0x3CC67143 EQ PUSH2 0x1EB JUMPI DUP1 PUSH4 0x498D1FEC EQ PUSH2 0x1FE JUMPI DUP1 PUSH4 0x4A348DA9 EQ PUSH2 0x21E JUMPI DUP1 PUSH4 0x4D472116 EQ PUSH2 0x226 JUMPI DUP1 PUSH4 0x75829DEF EQ PUSH2 0x259 JUMPI PUSH1 0x0 DUP1 REVERT JUMPDEST DUP1 PUSH4 0x60EB2F5 EQ PUSH2 0x147 JUMPI DUP1 PUSH4 0xE18B681 EQ PUSH2 0x17A JUMPI DUP1 PUSH4 0x1337EA95 EQ PUSH2 0x184 JUMPI DUP1 PUSH4 0x217E24B5 EQ PUSH2 0x197 JUMPI DUP1 PUSH4 0x26782247 EQ PUSH2 0x19F JUMPI JUMPDEST PUSH1 0x0 DUP1 REVERT JUMPDEST PUSH2 0x167 PUSH2 0x155 CALLDATASIZE PUSH1 0x4 PUSH2 0x1519 JUMP JUMPDEST PUSH1 0x4 PUSH1 0x20 MSTORE PUSH1 0x0 SWAP1 DUP2 MSTORE PUSH1 0x40 SWAP1 KECCAK256 SLOAD DUP2 JUMP JUMPDEST PUSH1 0x40 MLOAD SWAP1 DUP2 MSTORE PUSH1 0x20 ADD JUMPDEST PUSH1 0x40 MLOAD DUP1 SWAP2 SUB SWAP1 RETURN JUMPDEST PUSH2 0x182 PUSH2 0x346 JUMP JUMPDEST STOP JUMPDEST PUSH2 0x167 PUSH2 0x192 CALLDATASIZE PUSH1 0x4 PUSH2 0x1532 JUMP JUMPDEST PUSH2 0x3CC JUMP JUMPDEST PUSH2 0x167 PUSH1 0xA DUP2 JUMP JUMPDEST PUSH1 0x1 SLOAD PUSH2 0x1B2 SWAP1 PUSH1 0x1 PUSH1 0x1 PUSH1 0xA0 SHL SUB AND DUP2 JUMP JUMPDEST PUSH1 0x40 MLOAD PUSH1 0x1 PUSH1 0x1 PUSH1 0xA0 SHL SUB SWAP1 SWAP2 AND DUP2 MSTORE PUSH1 0x20 ADD PUSH2 0x171 JUMP JUMPDEST PUSH2 0x1DD PUSH2 0x1D8 CALLDATASIZE PUSH1 0x4 PUSH2 0x1519 JUMP JUMPDEST PUSH2 0x400 JUMP JUMPDEST PUSH1 0x40 MLOAD PUSH2 0x171 SWAP3 SWAP2 SWAP1 PUSH2 0x1636 JUMP JUMPDEST PUSH2 0x182 PUSH2 0x1F9 CALLDATASIZE PUSH1 0x4 PUSH2 0x16EF JUMP JUMPDEST PUSH2 0x549 JUMP JUMPDEST PUSH2 0x167 PUSH2 0x20C CALLDATASIZE PUSH1 0x4 PUSH2 0x1519 JUMP JUMPDEST PUSH1 0x0 SWAP1 DUP2 MSTORE PUSH1 0x3 PUSH1 0x20 MSTORE PUSH1 0x40 SWAP1 KECCAK256 SLOAD SWAP1 JUMP JUMPDEST PUSH1 0x6 SLOAD PUSH2 0x167 JUMP JUMPDEST PUSH2 0x249 PUSH2 0x234 CALLDATASIZE PUSH1 0x4 PUSH2 0x1519 JUMP JUMPDEST PUSH1 0x7 PUSH1 0x20 MSTORE PUSH1 0x0 SWAP1 DUP2 MSTORE PUSH1 0x40 SWAP1 KECCAK256 SLOAD PUSH1 0xFF AND DUP2 JUMP JUMPDEST PUSH1 0x40 MLOAD SWAP1 ISZERO ISZERO DUP2 MSTORE PUSH1 0x20 ADD PUSH2 0x171 JUMP JUMPDEST PUSH2 0x182 PUSH2 0x267 CALLDATASIZE PUSH1 0x4 PUSH2 0x17B1 JUMP JUMPDEST PUSH2 0x958 JUMP JUMPDEST PUSH2 0x249 PUSH2 0x27A CALLDATASIZE PUSH1 0x4 PUSH2 0x1519 JUMP JUMPDEST PUSH2 0x9F6 JUMP JUMPDEST PUSH2 0x249 PUSH2 0x28D CALLDATASIZE PUSH1 0x4 PUSH2 0x17B1 JUMP JUMPDEST PUSH1 0x2 PUSH1 0x20 MSTORE PUSH1 0x0 SWAP1 DUP2 MSTORE PUSH1 0x40 SWAP1 KECCAK256 SLOAD PUSH1 0xFF AND DUP2 JUMP JUMPDEST PUSH2 0x2B5 PUSH2 0x2B0 CALLDATASIZE PUSH1 0x4 PUSH2 0x1519 JUMP JUMPDEST PUSH2 0xA1D JUMP JUMPDEST PUSH1 0x40 MLOAD PUSH2 0x171 SWAP2 SWAP1 PUSH2 0x17D3 JUMP JUMPDEST PUSH2 0x182 PUSH2 0x2D0 CALLDATASIZE PUSH1 0x4 PUSH2 0x17E6 JUMP JUMPDEST PUSH2 0xCFC JUMP JUMPDEST PUSH2 0x167 PUSH1 0x5 SLOAD DUP2 JUMP JUMPDEST PUSH2 0x167 PUSH2 0x5460 DUP2 JUMP JUMPDEST PUSH2 0x2B5 PUSH2 0x2F5 CALLDATASIZE PUSH1 0x4 PUSH2 0x1519 JUMP JUMPDEST PUSH2 0xDA3 JUMP JUMPDEST PUSH2 0x167 PUSH2 0x308 CALLDATASIZE PUSH1 0x4 PUSH2 0x1519 JUMP JUMPDEST PUSH2 0x107B JUMP JUMPDEST PUSH2 0x182 PUSH2 0x31B CALLDATASIZE PUSH1 0x4 PUSH2 0x1822 JUMP JUMPDEST PUSH2 0x109C JUMP JUMPDEST PUSH1 0x0 SLOAD PUSH2 0x1B2 SWAP1 PUSH1 0x1 PUSH1 0x1 PUSH1 0xA0 SHL SUB AND DUP2 JUMP JUMPDEST PUSH2 0x182 PUSH2 0x341 CALLDATASIZE PUSH1 0x4 PUSH2 0x1519 JUMP JUMPDEST PUSH2 0x13D1 JUMP JUMPDEST PUSH1 0x1 SLOAD PUSH1 0x1 PUSH1 0x1 PUSH1 0xA0 SHL SUB AND CALLER EQ PUSH2 0x3A5 JUMPI PUSH1 0x40 MLOAD PUSH3 0x461BCD PUSH1 0xE5 SHL DUP2 MSTORE PUSH1 0x20 PUSH1 0x4 DUP3 ADD MSTORE PUSH1 0x1E PUSH1 0x24 DUP3 ADD MSTORE PUSH32 0x50726963654F7261636C653A206E6F742070656E64696E672061646D696E0000 PUSH1 0x44 DUP3 ADD MSTORE PUSH1 0x64 ADD JUMPDEST PUSH1 0x40 MLOAD DUP1 SWAP2 SUB SWAP1 REVERT JUMPDEST PUSH1 0x1 DUP1 SLOAD PUSH1 0x0 DUP1 SLOAD PUSH1 0x1 PUSH1 0x1 PUSH1 0xA0 SHL SUB NOT SWAP1 DUP2 AND PUSH1 0x1 PUSH1 0x1 PUSH1 0xA0 SHL SUB DUP5 AND OR SWAP1 SWAP2 SSTORE AND SWAP1 SSTORE JUMP JUMPDEST PUSH1 0x0 DUP3 DUP3 PUSH1 0x40 MLOAD PUSH1 0x20 ADD PUSH2 0x3E1 SWAP3 SWAP2 SWAP1 PUSH2 0x186E JUMP JUMPDEST PUSH1 0x40 MLOAD PUSH1 0x20 DUP2 DUP4 SUB SUB DUP2 MSTORE SWAP1 PUSH1 0x40 MSTORE DUP1 MLOAD SWAP1 PUSH1 0x20 ADD KECCAK256 SWAP1 POP JUMPDEST SWAP3 SWAP2 POP POP JUMP JUMPDEST PUSH1 0x0 DUP2 DUP2 MSTORE PUSH1 0x3 PUSH1 0x20 SWAP1 DUP2 MSTORE PUSH1 0x40 DUP1 DUP4 KECCAK256 PUSH1 0x4 DUP4 MSTORE DUP2 DUP5 KECCAK256 SLOAD DUP2 SLOAD DUP4 MLOAD DUP2 DUP7 MUL DUP2 ADD DUP7 ADD SWAP1 SWAP5 MSTORE DUP1 DUP5 MSTORE PUSH1 0x60 SWAP6 SWAP5 SWAP3 SWAP4 SWAP2 SWAP3 DUP5 SWAP2 SWAP1 DUP7 SWAP1 DUP5 ADD JUMPDEST DUP3 DUP3 LT ISZERO PUSH2 0x53A JUMPI DUP4 DUP3 SWAP1 PUSH1 0x0 MSTORE PUSH1 0x20 PUSH1 0x0 KECCAK256 SWAP1 PUSH1 0x7 MUL ADD PUSH1 0x40 MLOAD DUP1 PUSH1 0xE0 ADD PUSH1 0x40 MSTORE SWAP1 DUP2 PUSH1 0x0 DUP3 ADD SLOAD DUP2 MSTORE PUSH1 0x20 ADD PUSH1 0x1 DUP3 ADD SLOAD DUP2 MSTORE PUSH1 0x20 ADD PUSH1 0x2 DUP3 ADD SLOAD DUP2 MSTORE PUSH1 0x20 ADD PUSH1 0x3 DUP3 ADD SLOAD DUP2 MSTORE PUSH1 0x20 ADD PUSH1 0x4 DUP3 ADD SLOAD DUP2 MSTORE PUSH1 0x20 ADD PUSH1 0x5 DUP3 ADD SLOAD DUP2 MSTORE PUSH1 0x20 ADD PUSH1 0x6 DUP3 ADD DUP1 SLOAD PUSH2 0x4A9 SWAP1 PUSH2 0x187E JUMP JUMPDEST DUP1 PUSH1 0x1F ADD PUSH1 0x20 DUP1 SWAP2 DIV MUL PUSH1 0x20 ADD PUSH1 0x40 MLOAD SWAP1 DUP2 ADD PUSH1 0x40 MSTORE DUP1 SWAP3 SWAP2 SWAP1 DUP2 DUP2 MSTORE PUSH1 0x20 ADD DUP3 DUP1 SLOAD PUSH2 0x4D5 SWAP1 PUSH2 0x187E JUMP JUMPDEST DUP1 ISZERO PUSH2 0x522 JUMPI DUP1 PUSH1 0x1F LT PUSH2 0x4F7 JUMPI PUSH2 0x100 DUP1 DUP4 SLOAD DIV MUL DUP4 MSTORE SWAP2 PUSH1 0x20 ADD SWAP2 PUSH2 0x522 JUMP JUMPDEST DUP3 ADD SWAP2 SWAP1 PUSH1 0x0 MSTORE PUSH1 0x20 PUSH1 0x0 KECCAK256 SWAP1 JUMPDEST DUP2 SLOAD DUP2 MSTORE SWAP1 PUSH1 0x1 ADD SWAP1 PUSH1 0x20 ADD DUP1 DUP4 GT PUSH2 0x505 JUMPI DUP3 SWAP1 SUB PUSH1 0x1F AND DUP3 ADD SWAP2 JUMPDEST POP POP POP POP POP DUP2 MSTORE POP POP DUP2 MSTORE PUSH1 0x20 ADD SWAP1 PUSH1 0x1 ADD SWAP1 PUSH2 0x43A JUMP JUMPDEST POP POP POP POP SWAP2 POP SWAP2 POP SWAP2 POP SWAP2 POP SWAP2 JUMP JUMPDEST CALLER PUSH1 0x0 SWAP1 DUP2 MSTORE PUSH1 0x2 PUSH1 0x20 MSTORE PUSH1 0x40 SWAP1 KECCAK256 SLOAD PUSH1 0xFF AND PUSH2 0x5A8 JUMPI PUSH1 0x40 MLOAD PUSH3 0x461BCD PUSH1 0xE5 SHL DUP2 MSTORE PUSH1 0x20 PUSH1 0x4 DUP3 ADD MSTORE PUSH1 0x1B PUSH1 0x24 DUP3 ADD MSTORE PUSH32 0x50726963654F7261636C653A206E6F7420617574686F72697A65640000000000 PUSH1 0x44 DUP3 ADD MSTORE PUSH1 0x64 ADD PUSH2 0x39C JUMP JUMPDEST PUSH1 0x0 DUP6 SWAP1 SUB PUSH2 0x5CA JUMPI PUSH1 0x40 MLOAD PUSH4 0xC2E5347D PUSH1 0xE0 SHL DUP2 MSTORE PUSH1 0x4 ADD PUSH1 0x40 MLOAD DUP1 SWAP2 SUB SWAP1 REVERT JUMPDEST DUP5 DUP2 EQ PUSH2 0x619 JUMPI PUSH1 0x40 MLOAD PUSH3 0x461BCD PUSH1 0xE5 SHL DUP2 MSTORE PUSH1 0x20 PUSH1 0x4 DUP3 ADD MSTORE PUSH1 0x1C PUSH1 0x24 DUP3 ADD MSTORE PUSH32 0x50726963654F7261636C653A206C656E677468206D69736D6174636800000000 PUSH1 0x44 DUP3 ADD MSTORE PUSH1 0x64 ADD PUSH2 0x39C JUMP JUMPDEST PUSH1 0x0 DUP1 JUMPDEST DUP7 DUP2 LT ISZERO PUSH2 0x8C4 JUMPI PUSH1 0x0 DUP5 DUP5 DUP4 DUP2 DUP2 LT PUSH2 0x639 JUMPI PUSH2 0x639 PUSH2 0x18B8 JUMP JUMPDEST SWAP1 POP PUSH1 0x20 MUL ADD CALLDATALOAD SWAP1 POP PUSH1 0x0 DUP2 GT DUP1 ISZERO PUSH2 0x653 JUMPI POP PUSH1 0xA DUP2 GT ISZERO JUMPDEST PUSH2 0x69F JUMPI PUSH1 0x40 MLOAD PUSH3 0x461BCD PUSH1 0xE5 SHL DUP2 MSTORE PUSH1 0x20 PUSH1 0x4 DUP3 ADD MSTORE PUSH1 0x1A PUSH1 0x24 DUP3 ADD MSTORE PUSH32 0x50726963654F7261636C653A20696E76616C696420636F756E74000000000000 PUSH1 0x44 DUP3 ADD MSTORE PUSH1 0x64 ADD PUSH2 0x39C JUMP JUMPDEST DUP6 PUSH2 0x6AA DUP3 DUP6 PUSH2 0x18E4 JUMP JUMPDEST GT ISZERO PUSH2 0x6F0 JUMPI PUSH1 0x40 MLOAD PUSH3 0x461BCD PUSH1 0xE5 SHL DUP2 MSTORE PUSH1 0x20 PUSH1 0x4 DUP3 ADD MSTORE PUSH1 0x15 PUSH1 0x24 DUP3 ADD MSTORE PUSH21 0x50726963654F7261636C653A206F766572666C6F77 PUSH1 0x58 SHL PUSH1 0x44 DUP3 ADD MSTORE PUSH1 0x64 ADD PUSH2 0x39C JUMP JUMPDEST PUSH1 0x0 DUP10 DUP10 DUP5 DUP2 DUP2 LT PUSH2 0x704 JUMPI PUSH2 0x704 PUSH2 0x18B8 JUMP JUMPDEST PUSH1 0x20 SWAP1 DUP2 MUL SWAP3 SWAP1 SWAP3 ADD CALLDATALOAD PUSH1 0x0 DUP2 DUP2 MSTORE PUSH1 0x7 SWAP1 SWAP4 MSTORE PUSH1 0x40 SWAP1 SWAP3 KECCAK256 SLOAD SWAP2 SWAP3 POP POP PUSH1 0xFF AND PUSH2 0x774 JUMPI PUSH1 0x6 DUP1 SLOAD PUSH1 0x1 DUP2 DUP2 ADD SWAP1 SWAP3 SSTORE PUSH32 0xF652222313E28459528D920B65115C16C04F3EFC82AAEDC97BE59F3F377C0D3F ADD DUP3 SWAP1 SSTORE PUSH1 0x0 DUP3 DUP2 MSTORE PUSH1 0x7 PUSH1 0x20 MSTORE PUSH1 0x40 SWAP1 KECCAK256 DUP1 SLOAD PUSH1 0xFF NOT AND SWAP1 SWAP2 OR SWAP1 SSTORE JUMPDEST PUSH1 0x0 DUP2 DUP2 MSTORE PUSH1 0x3 PUSH1 0x20 MSTORE PUSH1 0x40 DUP2 KECCAK256 PUSH2 0x78B SWAP2 PUSH2 0x1461 JUMP JUMPDEST PUSH1 0x0 JUMPDEST DUP3 DUP2 LT ISZERO PUSH2 0x89C JUMPI CALLDATASIZE DUP10 DUP10 PUSH2 0x7A3 DUP5 DUP10 PUSH2 0x18E4 JUMP JUMPDEST DUP2 DUP2 LT PUSH2 0x7B2 JUMPI PUSH2 0x7B2 PUSH2 0x18B8 JUMP JUMPDEST SWAP1 POP PUSH1 0x20 MUL DUP2 ADD SWAP1 PUSH2 0x7C4 SWAP2 SWAP1 PUSH2 0x18F7 JUMP JUMPDEST SWAP1 POP DUP1 CALLDATALOAD DUP4 EQ PUSH2 0x816 JUMPI PUSH1 0x40 MLOAD PUSH3 0x461BCD PUSH1 0xE5 SHL DUP2 MSTORE PUSH1 0x20 PUSH1 0x4 DUP3 ADD MSTORE PUSH1 0x1A PUSH1 0x24 DUP3 ADD MSTORE PUSH32 0x50726963654F7261636C653A2068617368206D69736D61746368000000000000 PUSH1 0x44 DUP3 ADD MSTORE PUSH1 0x64 ADD PUSH2 0x39C JUMP JUMPDEST PUSH1 0x0 DUP2 PUSH1 0x20 ADD CALLDATALOAD GT PUSH2 0x864 JUMPI PUSH1 0x40 MLOAD PUSH3 0x461BCD PUSH1 0xE5 SHL DUP2 MSTORE PUSH1 0x20 PUSH1 0x4 DUP3 ADD MSTORE PUSH1 0x17 PUSH1 0x24 DUP3 ADD MSTORE PUSH23 0x50726963654F7261636C653A207A65726F207072696365 PUSH1 0x48 SHL PUSH1 0x44 DUP3 ADD MSTORE PUSH1 0x64 ADD PUSH2 0x39C JUMP JUMPDEST PUSH1 0x0 DUP4 DUP2 MSTORE PUSH1 0x3 PUSH1 0x20 SWAP1 DUP2 MSTORE PUSH1 0x40 DUP3 KECCAK256 DUP1 SLOAD PUSH1 0x1 DUP2 ADD DUP3 SSTORE SWAP1 DUP4 MSTORE SWAP2 KECCAK256 DUP3 SWAP2 PUSH1 0x7 MUL ADD PUSH2 0x891 DUP3 DUP3 PUSH2 0x1A3C JUMP JUMPDEST POP POP POP PUSH1 0x1 ADD PUSH2 0x78E JUMP JUMPDEST POP PUSH1 0x0 DUP2 DUP2 MSTORE PUSH1 0x4 PUSH1 0x20 MSTORE PUSH1 0x40 SWAP1 KECCAK256 TIMESTAMP SWAP1 SSTORE PUSH2 0x8B8 DUP3 DUP6 PUSH2 0x18E4 JUMP JUMPDEST SWAP4 POP POP POP PUSH1 0x1 ADD PUSH2 0x61D JUMP JUMPDEST POP DUP1 DUP5 EQ PUSH2 0x914 JUMPI PUSH1 0x40 MLOAD PUSH3 0x461BCD PUSH1 0xE5 SHL DUP2 MSTORE PUSH1 0x20 PUSH1 0x4 DUP3 ADD MSTORE PUSH1 0x1B PUSH1 0x24 DUP3 ADD MSTORE PUSH32 0x50726963654F7261636C653A20636F756E74206D69736D617463680000000000 PUSH1 0x44 DUP3 ADD MSTORE PUSH1 0x64 ADD PUSH2 0x39C JUMP JUMPDEST PUSH32 0xA15E5934A0588C0FD58C7549435C158768C074B01C6E1DADAC82CA430A0D2FF DUP8 DUP8 TIMESTAMP PUSH1 0x40 MLOAD PUSH2 0x947 SWAP4 SWAP3 SWAP2 SWAP1 PUSH2 0x1ACF JUMP JUMPDEST PUSH1 0x40 MLOAD DUP1 SWAP2 SUB SWAP1 LOG1 POP POP POP POP POP POP POP JUMP JUMPDEST PUSH1 0x0 SLOAD PUSH1 0x1 PUSH1 0x1 PUSH1 0xA0 SHL SUB AND CALLER EQ PUSH2 0x982 JUMPI PUSH1 0x40 MLOAD PUSH3 0x461BCD PUSH1 0xE5 SHL DUP2 MSTORE PUSH1 0x4 ADD PUSH2 0x39C SWAP1 PUSH2 0x1B0D JUMP JUMPDEST PUSH1 0x1 PUSH1 0x1 PUSH1 0xA0 SHL SUB DUP2 AND PUSH2 0x9D4 JUMPI PUSH1 0x40 MLOAD PUSH3 0x461BCD PUSH1 0xE5 SHL DUP2 MSTORE PUSH1 0x20 PUSH1 0x4 DUP3 ADD MSTORE PUSH1 0x19 PUSH1 0x24 DUP3 ADD MSTORE PUSH25 0x50726963654F7261636C653A207A65726F2061646472657373 PUSH1 0x38 SHL PUSH1 0x44 DUP3 ADD MSTORE PUSH1 0x64 ADD PUSH2 0x39C JUMP JUMPDEST PUSH1 0x1 DUP1 SLOAD PUSH1 0x1 PUSH1 0x1 PUSH1 0xA0 SHL SUB NOT AND PUSH1 0x1 PUSH1 0x1 PUSH1 0xA0 SHL SUB SWAP3 SWAP1 SWAP3 AND SWAP2 SWAP1 SWAP2 OR SWAP1 SSTORE JUMP JUMPDEST PUSH1 0x5 SLOAD PUSH1 0x0 DUP3 DUP2 MSTORE PUSH1 0x4 PUSH1 0x20 MSTORE PUSH1 0x40 DUP2 KECCAK256 SLOAD SWAP1 SWAP2 SWAP1 PUSH2 0xA15 SWAP1 TIMESTAMP PUSH2 0x1B3D JUMP JUMPDEST GT ISZERO SWAP3 SWAP2 POP POP JUMP JUMPDEST PUSH2 0xA60 PUSH1 0x40 MLOAD DUP1 PUSH1 0xE0 ADD PUSH1 0x40 MSTORE DUP1 PUSH1 0x0 DUP1 NOT AND DUP2 MSTORE PUSH1 0x20 ADD PUSH1 0x0 DUP2 MSTORE PUSH1 0x20 ADD PUSH1 0x0 DUP2 MSTORE PUSH1 0x20 ADD PUSH1 0x0 DUP2 MSTORE PUSH1 0x20 ADD PUSH1 0x0 DUP2 MSTORE PUSH1 0x20 ADD PUSH1 0x0 DUP2 MSTORE PUSH1 0x20 ADD PUSH1 0x60 DUP2 MSTORE POP SWAP1 JUMP JUMPDEST PUSH1 0x0 DUP3 DUP2 MSTORE PUSH1 0x3 PUSH1 0x20 MSTORE PUSH1 0x40 SWAP1 KECCAK256 DUP1 SLOAD PUSH2 0xAB6 JUMPI PUSH1 0x40 MLOAD PUSH3 0x461BCD PUSH1 0xE5 SHL DUP2 MSTORE PUSH1 0x20 PUSH1 0x4 DUP3 ADD MSTORE PUSH1 0x17 PUSH1 0x24 DUP3 ADD MSTORE PUSH23 0x50726963654F7261636C653A206E6F20656E7472696573 PUSH1 0x48 SHL PUSH1 0x44 DUP3 ADD MSTORE PUSH1 0x64 ADD PUSH2 0x39C JUMP JUMPDEST DUP1 PUSH1 0x0 DUP2 SLOAD DUP2 LT PUSH2 0xAC9 JUMPI PUSH2 0xAC9 PUSH2 0x18B8 JUMP JUMPDEST SWAP1 PUSH1 0x0 MSTORE PUSH1 0x20 PUSH1 0x0 KECCAK256 SWAP1 PUSH1 0x7 MUL ADD PUSH1 0x40 MLOAD DUP1 PUSH1 0xE0 ADD PUSH1 0x40 MSTORE SWAP1 DUP2 PUSH1 0x0 DUP3 ADD SLOAD DUP2 MSTORE PUSH1 0x20 ADD PUSH1 0x1 DUP3 ADD SLOAD DUP2 MSTORE PUSH1 0x20 ADD PUSH1 0x2 DUP3 ADD SLOAD DUP2 MSTORE PUSH1 0x20 ADD PUSH1 0x3 DUP3 ADD SLOAD DUP2 MSTORE PUSH1 0x20 ADD PUSH1 0x4 DUP3 ADD SLOAD DUP2 MSTORE PUSH1 0x20 ADD PUSH1 0x5 DUP3 ADD SLOAD DUP2 MSTORE PUSH1 0x20 ADD PUSH1 0x6 DUP3 ADD DUP1 SLOAD PUSH2 0xB2E SWAP1 PUSH2 0x187E JUMP JUMPDEST DUP1 PUSH1 0x1F ADD PUSH1 0x20 DUP1 SWAP2 DIV MUL PUSH1 0x20 ADD PUSH1 0x40 MLOAD SWAP1 DUP2 ADD PUSH1 0x40 MSTORE DUP1 SWAP3 SWAP2 SWAP1 DUP2 DUP2 MSTORE PUSH1 0x20 ADD DUP3 DUP1 SLOAD PUSH2 0xB5A SWAP1 PUSH2 0x187E JUMP JUMPDEST DUP1 ISZERO PUSH2 0xBA7 JUMPI DUP1 PUSH1 0x1F LT PUSH2 0xB7C JUMPI PUSH2 0x100 DUP1 DUP4 SLOAD DIV MUL DUP4 MSTORE SWAP2 PUSH1 0x20 ADD SWAP2 PUSH2 0xBA7 JUMP JUMPDEST DUP3 ADD SWAP2 SWAP1 PUSH1 0x0 MSTORE PUSH1 0x20 PUSH1 0x0 KECCAK256 SWAP1 JUMPDEST DUP2 SLOAD DUP2 MSTORE SWAP1 PUSH1 0x1 ADD SWAP1 PUSH1 0x20 ADD DUP1 DUP4 GT PUSH2 0xB8A JUMPI DUP3 SWAP1 SUB PUSH1 0x1F AND DUP3 ADD SWAP2 JUMPDEST POP POP POP POP POP DUP2 MSTORE POP POP SWAP2 POP PUSH1 0x0 PUSH1 0x1 SWAP1 POP JUMPDEST DUP2 SLOAD DUP2 LT ISZERO PUSH2 0xCF5 JUMPI DUP3 PUSH1 0x80 ADD MLOAD DUP3 DUP3 DUP2 SLOAD DUP2 LT PUSH2 0xBD9 JUMPI PUSH2 0xBD9 PUSH2 0x18B8 JUMP JUMPDEST SWAP1 PUSH1 0x0 MSTORE PUSH1 0x20 PUSH1 0x0 KECCAK256 SWAP1 PUSH1 0x7 MUL ADD PUSH1 0x4 ADD SLOAD GT ISZERO PUSH2 0xCED JUMPI DUP2 DUP2 DUP2 SLOAD DUP2 LT PUSH2 0xC03 JUMPI PUSH2 0xC03 PUSH2 0x18B8 JUMP JUMPDEST SWAP1 PUSH1 0x0 MSTORE PUSH1 0x20 PUSH1 0x0 KECCAK256 SWAP1 PUSH1 0x7 MUL ADD PUSH1 0x40 MLOAD DUP1 PUSH1 0xE0 ADD PUSH1 0x40 MSTORE SWAP1 DUP2 PUSH1 0x0 DUP3 ADD SLOAD DUP2 MSTORE PUSH1 0x20 ADD PUSH1 0x1 DUP3 ADD SLOAD DUP2 MSTORE PUSH1 0x20 ADD PUSH1 0x2 DUP3 ADD SLOAD DUP2 MSTORE PUSH1 0x20 ADD PUSH1 0x3 DUP3 ADD SLOAD DUP2 MSTORE PUSH1 0x20 ADD PUSH1 0x4 DUP3 ADD SLOAD DUP2 MSTORE PUSH1 0x20 ADD PUSH1 0x5 DUP3 ADD SLOAD DUP2 MSTORE PUSH1 0x20 ADD PUSH1 0x6 DUP3 ADD DUP1 SLOAD PUSH2 0xC68 SWAP1 PUSH2 0x187E JUMP JUMPDEST DUP1 PUSH1 0x1F ADD PUSH1 0x20 DUP1 SWAP2 DIV MUL PUSH1 0x20 ADD PUSH1 0x40 MLOAD SWAP1 DUP2 ADD PUSH1 0x40 MSTORE DUP1 SWAP3 SWAP2 SWAP1 DUP2 DUP2 MSTORE PUSH1 0x20 ADD DUP3 DUP1 SLOAD PUSH2 0xC94 SWAP1 PUSH2 0x187E JUMP JUMPDEST DUP1 ISZERO PUSH2 0xCE1 JUMPI DUP1 PUSH1 0x1F LT PUSH2 0xCB6 JUMPI PUSH2 0x100 DUP1 DUP4 SLOAD DIV MUL DUP4 MSTORE SWAP2 PUSH1 0x20 ADD SWAP2 PUSH2 0xCE1 JUMP JUMPDEST DUP3 ADD SWAP2 SWAP1 PUSH1 0x0 MSTORE PUSH1 0x20 PUSH1 0x0 KECCAK256 SWAP1 JUMPDEST DUP2 SLOAD DUP2 MSTORE SWAP1 PUSH1 0x1 ADD SWAP1 PUSH1 0x20 ADD DUP1 DUP4 GT PUSH2 0xCC4 JUMPI DUP3 SWAP1 SUB PUSH1 0x1F AND DUP3 ADD SWAP2 JUMPDEST POP POP POP POP POP DUP2 MSTORE POP POP SWAP3 POP JUMPDEST PUSH1 0x1 ADD PUSH2 0xBB9 JUMP JUMPDEST POP POP SWAP2 SWAP1 POP JUMP JUMPDEST PUSH1 0x0 SLOAD PUSH1 0x1 PUSH1 0x1 PUSH1 0xA0 SHL SUB AND CALLER EQ PUSH2 0xD26 JUMPI PUSH1 0x40 MLOAD PUSH3 0x461BCD PUSH1 0xE5 SHL DUP2 MSTORE PUSH1 0x4 ADD PUSH2 0x39C SWAP1 PUSH2 0x1B0D JUMP JUMPDEST PUSH1 0x1 PUSH1 0x1 PUSH1 0xA0 SHL SUB DUP3 AND PUSH2 0xD78 JUMPI PUSH1 0x40 MLOAD PUSH3 0x461BCD PUSH1 0xE5 SHL DUP2 MSTORE PUSH1 0x20 PUSH1 0x4 DUP3 ADD MSTORE PUSH1 0x19 PUSH1 0x24 DUP3 ADD MSTORE PUSH25 0x50726963654F7261636C653A207A65726F2061646472657373 PUSH1 0x38 SHL PUSH1 0x44 DUP3 ADD MSTORE PUSH1 0x64 ADD PUSH2 0x39C JUMP JUMPDEST PUSH1 0x1 PUSH1 0x1 PUSH1 0xA0 SHL SUB SWAP2 SWAP1 SWAP2 AND PUSH1 0x0 SWAP1 DUP2 MSTORE PUSH1 0x2 PUSH1 0x20 MSTORE PUSH1 0x40 SWAP1 KECCAK256 DUP1 SLOAD PUSH1 0xFF NOT AND SWAP2 ISZERO ISZERO SWAP2 SWAP1 SWAP2 OR SWAP1 SSTORE JUMP JUMPDEST PUSH2 0xDE6 PUSH1 0x40 MLOAD DUP1 PUSH1 0xE0 ADD PUSH1 0x40 MSTORE DUP1 PUSH1 0x0 DUP1 NOT AND DUP2 MSTORE PUSH1 0x20 ADD PUSH1 0x0 DUP2 MSTORE PUSH1 0x20 ADD PUSH1 0x0 DUP2 MSTORE PUSH1 0x20 ADD PUSH1 0x0 DUP2 MSTORE PUSH1 0x20 ADD PUSH1 0x0 DUP2 MSTORE PUSH1 0x20 ADD PUSH1 0x0 DUP2 MSTORE PUSH1 0x20 ADD PUSH1 0x60 DUP2 MSTORE POP SWAP1 JUMP JUMPDEST PUSH1 0x0 DUP3 DUP2 MSTORE PUSH1 0x3 PUSH1 0x20 MSTORE PUSH1 0x40 SWAP1 KECCAK256 DUP1 SLOAD PUSH2 0xE3C JUMPI PUSH1 0x40 MLOAD PUSH3 0x461BCD PUSH1 0xE5 SHL DUP2 MSTORE PUSH1 0x20 PUSH1 0x4 DUP3 ADD MSTORE PUSH1 0x17 PUSH1 0x24 DUP3 ADD MSTORE PUSH23 0x50726963654F7261636C653A206E6F20656E7472696573 PUSH1 0x48 SHL PUSH1 0x44 DUP3 ADD MSTORE PUSH1 0x64 ADD PUSH2 0x39C JUMP JUMPDEST DUP1 PUSH1 0x0 DUP2 SLOAD DUP2 LT PUSH2 0xE4F JUMPI PUSH2 0xE4F PUSH2 0x18B8 JUMP JUMPDEST SWAP1 PUSH1 0x0 MSTORE PUSH1 0x20 PUSH1 0x0 KECCAK256 SWAP1 PUSH1 0x7 MUL ADD PUSH1 0x40 MLOAD DUP1 PUSH1 0xE0 ADD PUSH1 0x40 MSTORE SWAP1 DUP2 PUSH1 0x0 DUP3 ADD SLOAD DUP2 MSTORE PUSH1 0x20 ADD PUSH1 0x1 DUP3 ADD SLOAD DUP2 MSTORE PUSH1 0x20 ADD PUSH1 0x2 DUP3 ADD SLOAD DUP2 MSTORE PUSH1 0x20 ADD PUSH1 0x3 DUP3 ADD SLOAD DUP2 MSTORE PUSH1 0x20 ADD PUSH1 0x4 DUP3 ADD SLOAD DUP2 MSTORE PUSH1 0x20 ADD PUSH1 0x5 DUP3 ADD SLOAD DUP2 MSTORE PUSH1 0x20 ADD PUSH1 0x6 DUP3 ADD DUP1 SLOAD PUSH2 0xEB4 SWAP1 PUSH2 0x187E JUMP JUMPDEST DUP1 PUSH1 0x1F ADD PUSH1 0x20 DUP1 SWAP2 DIV MUL PUSH1 0x20 ADD PUSH1 0x40 MLOAD SWAP1 DUP2 ADD PUSH1 0x40 MSTORE DUP1 SWAP3 SWAP2 SWAP1 DUP2 DUP2 MSTORE PUSH1 0x20 ADD DUP3 DUP1 SLOAD PUSH2 0xEE0 SWAP1 PUSH2 0x187E JUMP JUMPDEST DUP1 ISZERO PUSH2 0xF2D JUMPI DUP1 PUSH1 0x1F LT PUSH2 0xF02 JUMPI PUSH2 0x100 DUP1 DUP4 SLOAD DIV MUL DUP4 MSTORE SWAP2 PUSH1 0x20 ADD SWAP2 PUSH2 0xF2D JUMP JUMPDEST DUP3 ADD SWAP2 SWAP1 PUSH1 0x0 MSTORE PUSH1 0x20 PUSH1 0x0 KECCAK256 SWAP1 JUMPDEST DUP2 SLOAD DUP2 MSTORE SWAP1 PUSH1 0x1 ADD SWAP1 PUSH1 0x20 ADD DUP1 DUP4 GT PUSH2 0xF10 JUMPI DUP3 SWAP1 SUB PUSH1 0x1F AND DUP3 ADD SWAP2 JUMPDEST POP POP POP POP POP DUP2 MSTORE POP POP SWAP2 POP PUSH1 0x0 PUSH1 0x1 SWAP1 POP JUMPDEST DUP2 SLOAD DUP2 LT ISZERO PUSH2 0xCF5 JUMPI DUP3 PUSH1 0x20 ADD MLOAD DUP3 DUP3 DUP2 SLOAD DUP2 LT PUSH2 0xF5F JUMPI PUSH2 0xF5F PUSH2 0x18B8 JUMP JUMPDEST SWAP1 PUSH1 0x0 MSTORE PUSH1 0x20 PUSH1 0x0 KECCAK256 SWAP1 PUSH1 0x7 MUL ADD PUSH1 0x1 ADD SLOAD LT ISZERO PUSH2 0x1073 JUMPI DUP2 DUP2 DUP2 SLOAD DUP2 LT PUSH2 0xF89 JUMPI PUSH2 0xF89 PUSH2 0x18B8 JUMP JUMPDEST SWAP1 PUSH1 0x0 MSTORE PUSH1 0x20 PUSH1 0x0 KECCAK256 SWAP1 PUSH1 0x7 MUL ADD PUSH1 0x40 MLOAD DUP1 PUSH1 0xE0 ADD PUSH1 0x40 MSTORE SWAP1 DUP2 PUSH1 0x0 DUP3 ADD SLOAD DUP2 MSTORE PUSH1 0x20 ADD PUSH1 0x1 DUP3 ADD SLOAD DUP2 MSTORE PUSH1 0x20 ADD PUSH1 0x2 DUP3 ADD SLOAD DUP2 MSTORE PUSH1 0x20 ADD PUSH1 0x3 DUP3 ADD SLOAD DUP2 MSTORE PUSH1 0x20 ADD PUSH1 0x4 DUP3 ADD SLOAD DUP2 MSTORE PUSH1 0x20 ADD PUSH1 0x5 DUP3 ADD SLOAD DUP2 MSTORE PUSH1 0x20 ADD PUSH1 0x6 DUP3 ADD DUP1 SLOAD PUSH2 0xFEE SWAP1 PUSH2 0x187E JUMP JUMPDEST DUP1 PUSH1 0x1F ADD PUSH1 0x20 DUP1 SWAP2 DIV MUL PUSH1 0x20 ADD PUSH1 0x40 MLOAD SWAP1 DUP2 ADD PUSH1 0x40 MSTORE DUP1 SWAP3 SWAP2 SWAP1 DUP2 DUP2 MSTORE PUSH1 0x20 ADD DUP3 DUP1 SLOAD PUSH2 0x101A SWAP1 PUSH2 0x187E JUMP JUMPDEST DUP1 ISZERO PUSH2 0x1067 JUMPI DUP1 PUSH1 0x1F LT PUSH2 0x103C JUMPI PUSH2 0x100 DUP1 DUP4 SLOAD DIV MUL DUP4 MSTORE SWAP2 PUSH1 0x20 ADD SWAP2 PUSH2 0x1067 JUMP JUMPDEST DUP3 ADD SWAP2 SWAP1 PUSH1 0x0 MSTORE PUSH1 0x20 PUSH1 0x0 KECCAK256 SWAP1 JUMPDEST DUP2 SLOAD DUP2 MSTORE SWAP1 PUSH1 0x1 ADD SWAP1 PUSH1 0x20 ADD DUP1 DUP4 GT PUSH2 0x104A JUMPI DUP3 SWAP1 SUB PUSH1 0x1F AND DUP3 ADD SWAP2 JUMPDEST POP POP POP POP POP DUP2 MSTORE POP POP SWAP3 POP JUMPDEST PUSH1 0x1 ADD PUSH2 0xF3F JUMP JUMPDEST PUSH1 0x6 DUP2 DUP2 SLOAD DUP2 LT PUSH2 0x108B JUMPI PUSH1 0x0 DUP1 REVERT JUMPDEST PUSH1 0x0 SWAP2 DUP3 MSTORE PUSH1 0x20 SWAP1 SWAP2 KECCAK256 ADD SLOAD SWAP1 POP DUP2 JUMP JUMPDEST CALLER PUSH1 0x0 SWAP1 DUP2 MSTORE PUSH1 0x2 PUSH1 0x20 MSTORE PUSH1 0x40 SWAP1 KECCAK256 SLOAD PUSH1 0xFF AND PUSH2 0x10FB JUMPI PUSH1 0x40 MLOAD PUSH3 0x461BCD PUSH1 0xE5 SHL DUP2 MSTORE PUSH1 0x20 PUSH1 0x4 DUP3 ADD MSTORE PUSH1 0x1B PUSH1 0x24 DUP3 ADD MSTORE PUSH32 0x50726963654F7261636C653A206E6F7420617574686F72697A65640000000000 PUSH1 0x44 DUP3 ADD MSTORE PUSH1 0x64 ADD PUSH2 0x39C JUMP JUMPDEST DUP1 ISZERO DUP1 ISZERO SWAP1 PUSH2 0x110B JUMPI POP PUSH1 0xA DUP2 GT ISZERO JUMPDEST PUSH2 0x1162 JUMPI PUSH1 0x40 MLOAD PUSH3 0x461BCD PUSH1 0xE5 SHL DUP2 MSTORE PUSH1 0x20 PUSH1 0x4 DUP3 ADD MSTORE PUSH1 0x22 PUSH1 0x24 DUP3 ADD MSTORE PUSH32 0x50726963654F7261636C653A20696E76616C696420656E747269657320636F75 PUSH1 0x44 DUP3 ADD MSTORE PUSH2 0x1B9D PUSH1 0xF2 SHL PUSH1 0x64 DUP3 ADD MSTORE PUSH1 0x84 ADD PUSH2 0x39C JUMP JUMPDEST PUSH1 0x0 DUP4 DUP2 MSTORE PUSH1 0x7 PUSH1 0x20 MSTORE PUSH1 0x40 SWAP1 KECCAK256 SLOAD PUSH1 0xFF AND PUSH2 0x11C3 JUMPI PUSH1 0x6 DUP1 SLOAD PUSH1 0x1 DUP2 DUP2 ADD SWAP1 SWAP3 SSTORE PUSH32 0xF652222313E28459528D920B65115C16C04F3EFC82AAEDC97BE59F3F377C0D3F ADD DUP5 SWAP1 SSTORE PUSH1 0x0 DUP5 DUP2 MSTORE PUSH1 0x7 PUSH1 0x20 MSTORE PUSH1 0x40 SWAP1 KECCAK256 DUP1 SLOAD PUSH1 0xFF NOT AND SWAP1 SWAP2 OR SWAP1 SSTORE JUMPDEST PUSH1 0x0 DUP4 DUP2 MSTORE PUSH1 0x3 PUSH1 0x20 MSTORE PUSH1 0x40 DUP2 KECCAK256 PUSH2 0x11DA SWAP2 PUSH2 0x1461 JUMP JUMPDEST PUSH1 0x0 JUMPDEST DUP2 DUP2 LT ISZERO PUSH2 0x1327 JUMPI DUP4 DUP4 DUP4 DUP4 DUP2 DUP2 LT PUSH2 0x11F8 JUMPI PUSH2 0x11F8 PUSH2 0x18B8 JUMP JUMPDEST SWAP1 POP PUSH1 0x20 MUL DUP2 ADD SWAP1 PUSH2 0x120A SWAP2 SWAP1 PUSH2 0x18F7 JUMP JUMPDEST CALLDATALOAD EQ PUSH2 0x1258 JUMPI PUSH1 0x40 MLOAD PUSH3 0x461BCD PUSH1 0xE5 SHL DUP2 MSTORE PUSH1 0x20 PUSH1 0x4 DUP3 ADD MSTORE PUSH1 0x1A PUSH1 0x24 DUP3 ADD MSTORE PUSH32 0x50726963654F7261636C653A2068617368206D69736D61746368000000000000 PUSH1 0x44 DUP3 ADD MSTORE PUSH1 0x64 ADD PUSH2 0x39C JUMP JUMPDEST PUSH1 0x0 DUP4 DUP4 DUP4 DUP2 DUP2 LT PUSH2 0x126C JUMPI PUSH2 0x126C PUSH2 0x18B8 JUMP JUMPDEST SWAP1 POP PUSH1 0x20 MUL DUP2 ADD SWAP1 PUSH2 0x127E SWAP2 SWAP1 PUSH2 0x18F7 JUMP JUMPDEST PUSH1 0x20 ADD CALLDATALOAD GT PUSH2 0x12C9 JUMPI PUSH1 0x40 MLOAD PUSH3 0x461BCD PUSH1 0xE5 SHL DUP2 MSTORE PUSH1 0x20 PUSH1 0x4 DUP3 ADD MSTORE PUSH1 0x17 PUSH1 0x24 DUP3 ADD MSTORE PUSH23 0x50726963654F7261636C653A207A65726F207072696365 PUSH1 0x48 SHL PUSH1 0x44 DUP3 ADD MSTORE PUSH1 0x64 ADD PUSH2 0x39C JUMP JUMPDEST PUSH1 0x0 DUP5 DUP2 MSTORE PUSH1 0x3 PUSH1 0x20 MSTORE PUSH1 0x40 SWAP1 KECCAK256 DUP4 DUP4 DUP4 DUP2 DUP2 LT PUSH2 0x12E9 JUMPI PUSH2 0x12E9 PUSH2 0x18B8 JUMP JUMPDEST SWAP1 POP PUSH1 0x20 MUL DUP2 ADD SWAP1 PUSH2 0x12FB SWAP2 SWAP1 PUSH2 0x18F7 JUMP JUMPDEST DUP2 SLOAD PUSH1 0x1 DUP2 ADD DUP4 SSTORE PUSH1 0x0 SWAP3 DUP4 MSTORE PUSH1 0x20 SWAP1 SWAP3 KECCAK256 SWAP1 SWAP2 PUSH1 0x7 MUL ADD PUSH2 0x131D DUP3 DUP3 PUSH2 0x1A3C JUMP JUMPDEST POP POP PUSH1 0x1 ADD PUSH2 0x11DD JUMP JUMPDEST POP PUSH1 0x0 DUP4 DUP2 MSTORE PUSH1 0x4 PUSH1 0x20 MSTORE PUSH1 0x40 DUP2 KECCAK256 TIMESTAMP SWAP1 SSTORE DUP4 SWAP1 PUSH32 0x1C278FA9790EE5CFAE7607A35202B57EF06960DF9FE79BACA5D617E2DB126D6F SWAP1 DUP5 SWAP1 DUP5 SWAP1 DUP2 PUSH2 0x136E JUMPI PUSH2 0x136E PUSH2 0x18B8 JUMP JUMPDEST SWAP1 POP PUSH1 0x20 MUL DUP2 ADD SWAP1 PUSH2 0x1380 SWAP2 SWAP1 PUSH2 0x18F7 JUMP JUMPDEST PUSH1 0x20 ADD CALLDATALOAD DUP5 DUP5 PUSH1 0x0 DUP2 DUP2 LT PUSH2 0x1397 JUMPI PUSH2 0x1397 PUSH2 0x18B8 JUMP JUMPDEST SWAP1 POP PUSH1 0x20 MUL DUP2 ADD SWAP1 PUSH2 0x13A9 SWAP2 SWAP1 PUSH2 0x18F7 JUMP JUMPDEST PUSH1 0x40 DUP1 MLOAD SWAP3 DUP4 MSTORE PUSH1 0x80 SWAP2 SWAP1 SWAP2 ADD CALLDATALOAD PUSH1 0x20 DUP4 ADD MSTORE TIMESTAMP SWAP1 DUP3 ADD MSTORE PUSH1 0x60 ADD PUSH1 0x40 MLOAD DUP1 SWAP2 SUB SWAP1 LOG2 POP POP POP JUMP JUMPDEST PUSH1 0x0 SLOAD PUSH1 0x1 PUSH1 0x1 PUSH1 0xA0 SHL SUB AND CALLER EQ PUSH2 0x13FB JUMPI PUSH1 0x40 MLOAD PUSH3 0x461BCD PUSH1 0xE5 SHL DUP2 MSTORE PUSH1 0x4 ADD PUSH2 0x39C SWAP1 PUSH2 0x1B0D JUMP JUMPDEST PUSH2 0xE10 DUP2 LT ISZERO DUP1 ISZERO PUSH2 0x1410 JUMPI POP PUSH3 0x93A80 DUP2 GT ISZERO JUMPDEST PUSH2 0x145C JUMPI PUSH1 0x40 MLOAD PUSH3 0x461BCD PUSH1 0xE5 SHL DUP2 MSTORE PUSH1 0x20 PUSH1 0x4 DUP3 ADD MSTORE PUSH1 0x1E PUSH1 0x24 DUP3 ADD MSTORE PUSH32 0x50726963654F7261636C653A20696E76616C6964207468726573686F6C640000 PUSH1 0x44 DUP3 ADD MSTORE PUSH1 0x64 ADD PUSH2 0x39C JUMP JUMPDEST PUSH1 0x5 SSTORE JUMP JUMPDEST POP DUP1 SLOAD PUSH1 0x0 DUP3 SSTORE PUSH1 0x7 MUL SWAP1 PUSH1 0x0 MSTORE PUSH1 0x20 PUSH1 0x0 KECCAK256 SWAP1 DUP2 ADD SWAP1 PUSH2 0x1482 SWAP2 SWAP1 PUSH2 0x1485 JUMP JUMPDEST POP JUMP JUMPDEST DUP1 DUP3 GT ISZERO PUSH2 0x14CB JUMPI PUSH1 0x0 DUP1 DUP3 SSTORE PUSH1 0x1 DUP3 ADD DUP2 SWAP1 SSTORE PUSH1 0x2 DUP3 ADD DUP2 SWAP1 SSTORE PUSH1 0x3 DUP3 ADD DUP2 SWAP1 SSTORE PUSH1 0x4 DUP3 ADD DUP2 SWAP1 SSTORE PUSH1 0x5 DUP3 ADD DUP2 SWAP1 SSTORE PUSH2 0x14C2 PUSH1 0x6 DUP4 ADD DUP3 PUSH2 0x14CF JUMP JUMPDEST POP PUSH1 0x7 ADD PUSH2 0x1485 JUMP JUMPDEST POP SWAP1 JUMP JUMPDEST POP DUP1 SLOAD PUSH2 0x14DB SWAP1 PUSH2 0x187E JUMP JUMPDEST PUSH1 0x0 DUP3 SSTORE DUP1 PUSH1 0x1F LT PUSH2 0x14EB JUMPI POP POP JUMP JUMPDEST PUSH1 0x1F ADD PUSH1 0x20 SWAP1 DIV SWAP1 PUSH1 0x0 MSTORE PUSH1 0x20 PUSH1 0x0 KECCAK256 SWAP1 DUP2 ADD SWAP1 PUSH2 0x1482 SWAP2 SWAP1 JUMPDEST DUP1 DUP3 GT ISZERO PUSH2 0x14CB JUMPI PUSH1 0x0 DUP2 SSTORE PUSH1 0x1 ADD PUSH2 0x1505 JUMP JUMPDEST PUSH1 0x0 PUSH1 0x20 DUP3 DUP5 SUB SLT ISZERO PUSH2 0x152B JUMPI PUSH1 0x0 DUP1 REVERT JUMPDEST POP CALLDATALOAD SWAP2 SWAP1 POP JUMP JUMPDEST PUSH1 0x0 DUP1 PUSH1 0x20 DUP4 DUP6 SUB SLT ISZERO PUSH2 0x1545 JUMPI PUSH1 0x0 DUP1 REVERT JUMPDEST DUP3 CALLDATALOAD PUSH8 0xFFFFFFFFFFFFFFFF DUP2 GT ISZERO PUSH2 0x155C JUMPI PUSH1 0x0 DUP1 REVERT JUMPDEST DUP4 ADD PUSH1 0x1F DUP2 ADD DUP6 SGT PUSH2 0x156D JUMPI PUSH1 0x0 DUP1 REVERT JUMPDEST DUP1 CALLDATALOAD PUSH8 0xFFFFFFFFFFFFFFFF DUP2 GT ISZERO PUSH2 0x1584 JUMPI PUSH1 0x0 DUP1 REVERT JUMPDEST DUP6 PUSH1 0x20 DUP3 DUP5 ADD ADD GT ISZERO PUSH2 0x1596 JUMPI PUSH1 0x0 DUP1 REVERT JUMPDEST PUSH1 0x20 SWAP2 SWAP1 SWAP2 ADD SWAP6 SWAP1 SWAP5 POP SWAP3 POP POP POP JUMP JUMPDEST DUP1 MLOAD DUP3 MSTORE PUSH1 0x20 DUP2 ADD MLOAD PUSH1 0x20 DUP4 ADD MSTORE PUSH1 0x40 DUP2 ADD MLOAD PUSH1 0x40 DUP4 ADD MSTORE PUSH1 0x60 DUP2 ADD MLOAD PUSH1 0x60 DUP4 ADD MSTORE PUSH1 0x80 DUP2 ADD MLOAD PUSH1 0x80 DUP4 ADD MSTORE PUSH1 0xA0 DUP2 ADD MLOAD PUSH1 0xA0 DUP4 ADD MSTORE PUSH1 0x0 PUSH1 0xC0 DUP3 ADD MLOAD PUSH1 0xE0 PUSH1 0xC0 DUP6 ADD MSTORE DUP1 MLOAD DUP1 PUSH1 0xE0 DUP7 ADD MSTORE PUSH1 0x0 JUMPDEST DUP2 DUP2 LT ISZERO PUSH2 0x1613 JUMPI PUSH1 0x20 DUP2 DUP5 ADD DUP2 ADD MLOAD PUSH2 0x100 DUP9 DUP5 ADD ADD MSTORE ADD PUSH2 0x15F5 JUMP JUMPDEST POP PUSH1 0x0 PUSH2 0x100 DUP3 DUP8 ADD ADD MSTORE PUSH2 0x100 PUSH1 0x1F NOT PUSH1 0x1F DUP4 ADD AND DUP7 ADD ADD SWAP3 POP POP POP SWAP3 SWAP2 POP POP JUMP JUMPDEST PUSH1 0x0 PUSH1 0x40 DUP3 ADD PUSH1 0x40 DUP4 MSTORE DUP1 DUP6 MLOAD DUP1 DUP4 MSTORE PUSH1 0x60 DUP6 ADD SWAP2 POP PUSH1 0x60 DUP2 PUSH1 0x5 SHL DUP7 ADD ADD SWAP3 POP PUSH1 0x20 DUP8 ADD PUSH1 0x0 JUMPDEST DUP3 DUP2 LT ISZERO PUSH2 0x168F JUMPI PUSH1 0x5F NOT DUP8 DUP7 SUB ADD DUP5 MSTORE PUSH2 0x167A DUP6 DUP4 MLOAD PUSH2 0x15A6 JUMP JUMPDEST SWAP5 POP PUSH1 0x20 SWAP4 DUP5 ADD SWAP4 SWAP2 SWAP1 SWAP2 ADD SWAP1 PUSH1 0x1 ADD PUSH2 0x165E JUMP JUMPDEST POP POP POP POP PUSH1 0x20 SWAP3 SWAP1 SWAP3 ADD SWAP3 SWAP1 SWAP3 MSTORE SWAP3 SWAP2 POP POP JUMP JUMPDEST PUSH1 0x0 DUP1 DUP4 PUSH1 0x1F DUP5 ADD SLT PUSH2 0x16B5 JUMPI PUSH1 0x0 DUP1 REVERT JUMPDEST POP DUP2 CALLDATALOAD PUSH8 0xFFFFFFFFFFFFFFFF DUP2 GT ISZERO PUSH2 0x16CD JUMPI PUSH1 0x0 DUP1 REVERT JUMPDEST PUSH1 0x20 DUP4 ADD SWAP2 POP DUP4 PUSH1 0x20 DUP3 PUSH1 0x5 SHL DUP6 ADD ADD GT ISZERO PUSH2 0x16E8 JUMPI PUSH1 0x0 DUP1 REVERT JUMPDEST SWAP3 POP SWAP3 SWAP1 POP JUMP JUMPDEST PUSH1 0x0 DUP1 PUSH1 0x0 DUP1 PUSH1 0x0 DUP1 PUSH1 0x60 DUP8 DUP10 SUB SLT ISZERO PUSH2 0x1708 JUMPI PUSH1 0x0 DUP1 REVERT JUMPDEST DUP7 CALLDATALOAD PUSH8 0xFFFFFFFFFFFFFFFF DUP2 GT ISZERO PUSH2 0x171F JUMPI PUSH1 0x0 DUP1 REVERT JUMPDEST PUSH2 0x172B DUP10 DUP3 DUP11 ADD PUSH2 0x16A3 JUMP JUMPDEST SWAP1 SWAP8 POP SWAP6 POP POP PUSH1 0x20 DUP8 ADD CALLDATALOAD PUSH8 0xFFFFFFFFFFFFFFFF DUP2 GT ISZERO PUSH2 0x174B JUMPI PUSH1 0x0 DUP1 REVERT JUMPDEST PUSH2 0x1757 DUP10 DUP3 DUP11 ADD PUSH2 0x16A3 JUMP JUMPDEST SWAP1 SWAP6 POP SWAP4 POP POP PUSH1 0x40 DUP8 ADD CALLDATALOAD PUSH8 0xFFFFFFFFFFFFFFFF DUP2 GT ISZERO PUSH2 0x1777 JUMPI PUSH1 0x0 DUP1 REVERT JUMPDEST PUSH2 0x1783 DUP10 DUP3 DUP11 ADD PUSH2 0x16A3 JUMP JUMPDEST SWAP8 SWAP11 SWAP7 SWAP10 POP SWAP5 SWAP8 POP SWAP3 SWAP6 SWAP4 SWAP5 SWAP3 POP POP POP JUMP JUMPDEST DUP1 CALLDATALOAD PUSH1 0x1 PUSH1 0x1 PUSH1 0xA0 SHL SUB DUP2 AND DUP2 EQ PUSH2 0x17AC JUMPI PUSH1 0x0 DUP1 REVERT JUMPDEST SWAP2 SWAP1 POP JUMP JUMPDEST PUSH1 0x0 PUSH1 0x20 DUP3 DUP5 SUB SLT ISZERO PUSH2 0x17C3 JUMPI PUSH1 0x0 DUP1 REVERT JUMPDEST PUSH2 0x17CC DUP3 PUSH2 0x1795 JUMP JUMPDEST SWAP4 SWAP3 POP POP POP JUMP JUMPDEST PUSH1 0x20 DUP2 MSTORE PUSH1 0x0 PUSH2 0x17CC PUSH1 0x20 DUP4 ADD DUP5 PUSH2 0x15A6 JUMP JUMPDEST PUSH1 0x0 DUP1 PUSH1 0x40 DUP4 DUP6 SUB SLT ISZERO PUSH2 0x17F9 JUMPI PUSH1 0x0 DUP1 REVERT JUMPDEST PUSH2 0x1802 DUP4 PUSH2 0x1795 JUMP JUMPDEST SWAP2 POP PUSH1 0x20 DUP4 ADD CALLDATALOAD DUP1 ISZERO ISZERO DUP2 EQ PUSH2 0x1817 JUMPI PUSH1 0x0 DUP1 REVERT JUMPDEST DUP1 SWAP2 POP POP SWAP3 POP SWAP3 SWAP1 POP JUMP JUMPDEST PUSH1 0x0 DUP1 PUSH1 0x0 PUSH1 0x40 DUP5 DUP7 SUB SLT ISZERO PUSH2 0x1837 JUMPI PUSH1 0x0 DUP1 REVERT JUMPDEST DUP4 CALLDATALOAD SWAP3 POP PUSH1 0x20 DUP5 ADD CALLDATALOAD PUSH8 0xFFFFFFFFFFFFFFFF DUP2 GT ISZERO PUSH2 0x1855 JUMPI PUSH1 0x0 DUP1 REVERT JUMPDEST PUSH2 0x1861 DUP7 DUP3 DUP8 ADD PUSH2 0x16A3 JUMP JUMPDEST SWAP5 SWAP8 SWAP1 SWAP7 POP SWAP4 SWAP5 POP POP POP POP JUMP JUMPDEST DUP2 DUP4 DUP3 CALLDATACOPY PUSH1 0x0 SWAP2 ADD SWAP1 DUP2 MSTORE SWAP2 SWAP1 POP JUMP JUMPDEST PUSH1 0x1 DUP2 DUP2 SHR SWAP1 DUP3 AND DUP1 PUSH2 0x1892 JUMPI PUSH1 0x7F DUP3 AND SWAP2 POP JUMPDEST PUSH1 0x20 DUP3 LT DUP2 SUB PUSH2 0x18B2 JUMPI PUSH4 0x4E487B71 PUSH1 0xE0 SHL PUSH1 0x0 MSTORE PUSH1 0x22 PUSH1 0x4 MSTORE PUSH1 0x24 PUSH1 0x0 REVERT JUMPDEST POP SWAP2 SWAP1 POP JUMP JUMPDEST PUSH4 0x4E487B71 PUSH1 0xE0 SHL PUSH1 0x0 MSTORE PUSH1 0x32 PUSH1 0x4 MSTORE PUSH1 0x24 PUSH1 0x0 REVERT JUMPDEST PUSH4 0x4E487B71 PUSH1 0xE0 SHL PUSH1 0x0 MSTORE PUSH1 0x11 PUSH1 0x4 MSTORE PUSH1 0x24 PUSH1 0x0 REVERT JUMPDEST DUP1 DUP3 ADD DUP1 DUP3 GT ISZERO PUSH2 0x3FA JUMPI PUSH2 0x3FA PUSH2 0x18CE JUMP JUMPDEST PUSH1 0x0 DUP3 CALLDATALOAD PUSH1 0xDE NOT DUP4 CALLDATASIZE SUB ADD DUP2 SLT PUSH2 0x190D JUMPI PUSH1 0x0 DUP1 REVERT JUMPDEST SWAP2 SWAP1 SWAP2 ADD SWAP3 SWAP2 POP POP JUMP JUMPDEST PUSH4 0x4E487B71 PUSH1 0xE0 SHL PUSH1 0x0 MSTORE PUSH1 0x41 PUSH1 0x4 MSTORE PUSH1 0x24 PUSH1 0x0 REVERT JUMPDEST PUSH1 0x1F DUP3 GT ISZERO PUSH2 0x1977 JUMPI DUP1 PUSH1 0x0 MSTORE PUSH1 0x20 PUSH1 0x0 KECCAK256 PUSH1 0x1F DUP5 ADD PUSH1 0x5 SHR DUP2 ADD PUSH1 0x20 DUP6 LT ISZERO PUSH2 0x1954 JUMPI POP DUP1 JUMPDEST PUSH1 0x1F DUP5 ADD PUSH1 0x5 SHR DUP3 ADD SWAP2 POP JUMPDEST DUP2 DUP2 LT ISZERO PUSH2 0x1974 JUMPI PUSH1 0x0 DUP2 SSTORE PUSH1 0x1 ADD PUSH2 0x1960 JUMP JUMPDEST POP POP JUMPDEST POP POP POP JUMP JUMPDEST PUSH8 0xFFFFFFFFFFFFFFFF DUP4 GT ISZERO PUSH2 0x1994 JUMPI PUSH2 0x1994 PUSH2 0x1917 JUMP JUMPDEST PUSH2 0x19A8 DUP4 PUSH2 0x19A2 DUP4 SLOAD PUSH2 0x187E JUMP JUMPDEST DUP4 PUSH2 0x192D JUMP JUMPDEST PUSH1 0x0 PUSH1 0x1F DUP5 GT PUSH1 0x1 DUP2 EQ PUSH2 0x19DC JUMPI PUSH1 0x0 DUP6 ISZERO PUSH2 0x19C4 JUMPI POP DUP4 DUP3 ADD CALLDATALOAD JUMPDEST PUSH1 0x0 NOT PUSH1 0x3 DUP8 SWAP1 SHL SHR NOT AND PUSH1 0x1 DUP7 SWAP1 SHL OR DUP4 SSTORE PUSH2 0x1974 JUMP JUMPDEST PUSH1 0x0 DUP4 DUP2 MSTORE PUSH1 0x20 SWAP1 KECCAK256 PUSH1 0x1F NOT DUP7 AND SWAP1 DUP4 JUMPDEST DUP3 DUP2 LT ISZERO PUSH2 0x1A0D JUMPI DUP7 DUP6 ADD CALLDATALOAD DUP3 SSTORE PUSH1 0x20 SWAP5 DUP6 ADD SWAP5 PUSH1 0x1 SWAP1 SWAP3 ADD SWAP2 ADD PUSH2 0x19ED JUMP JUMPDEST POP DUP7 DUP3 LT ISZERO PUSH2 0x1A2A JUMPI PUSH1 0x0 NOT PUSH1 0xF8 DUP9 PUSH1 0x3 SHL AND SHR NOT DUP5 DUP8 ADD CALLDATALOAD AND DUP2 SSTORE JUMPDEST POP POP PUSH1 0x1 DUP6 PUSH1 0x1 SHL ADD DUP4 SSTORE POP POP POP POP POP JUMP JUMPDEST DUP2 CALLDATALOAD DUP2 SSTORE PUSH1 0x20 DUP3 ADD CALLDATALOAD PUSH1 0x1 DUP3 ADD SSTORE PUSH1 0x40 DUP3 ADD CALLDATALOAD PUSH1 0x2 DUP3 ADD SSTORE PUSH1 0x60 DUP3 ADD CALLDATALOAD PUSH1 0x3 DUP3 ADD SSTORE PUSH1 0x80 DUP3 ADD CALLDATALOAD PUSH1 0x4 DUP3 ADD SSTORE PUSH1 0xA0 DUP3 ADD CALLDATALOAD PUSH1 0x5 DUP3 ADD SSTORE PUSH1 0x0 DUP1 PUSH1 0xC0 DUP5 ADD CALLDATALOAD CALLDATASIZE DUP6 SWAP1 SUB PUSH1 0x1E NOT ADD DUP2 SLT PUSH2 0x1A8C JUMPI DUP3 DUP4 REVERT JUMPDEST DUP5 ADD DUP1 CALLDATALOAD SWAP2 POP PUSH8 0xFFFFFFFFFFFFFFFF DUP3 GT ISZERO PUSH2 0x1AA6 JUMPI DUP3 DUP4 REVERT JUMPDEST PUSH1 0x20 ADD SWAP2 POP CALLDATASIZE DUP2 SWAP1 SUB DUP3 SGT ISZERO PUSH2 0x1ABB JUMPI PUSH1 0x0 DUP1 REVERT JUMPDEST PUSH2 0x1AC9 DUP2 DUP4 PUSH1 0x6 DUP7 ADD PUSH2 0x197C JUMP JUMPDEST POP POP POP POP JUMP JUMPDEST PUSH1 0x40 DUP1 DUP3 MSTORE DUP2 ADD DUP4 SWAP1 MSTORE PUSH1 0x0 PUSH1 0x1 PUSH1 0x1 PUSH1 0xFB SHL SUB DUP5 GT ISZERO PUSH2 0x1AEF JUMPI PUSH1 0x0 DUP1 REVERT JUMPDEST DUP4 PUSH1 0x5 SHL DUP1 DUP7 PUSH1 0x60 DUP6 ADD CALLDATACOPY PUSH1 0x20 DUP4 ADD SWAP4 SWAP1 SWAP4 MSTORE POP ADD PUSH1 0x60 ADD SWAP3 SWAP2 POP POP JUMP JUMPDEST PUSH1 0x20 DUP1 DUP3 MSTORE PUSH1 0x16 SWAP1 DUP3 ADD MSTORE PUSH22 0x283934B1B2A7B930B1B6329D103737BA1030B236B4B7 PUSH1 0x51 SHL PUSH1 0x40 DUP3 ADD MSTORE PUSH1 0x60 ADD SWAP1 JUMP JUMPDEST DUP2 DUP2 SUB DUP2 DUP2 GT ISZERO PUSH2 0x3FA JUMPI PUSH2 0x3FA PUSH2 0x18CE JUMP INVALID LOG2 PUSH5 0x6970667358 0x22 SLT KECCAK256 SWAP6 PUSH24 0x77E7F0FE21983C91B6DCA0A349B479E9F0579C14E073C6E7 0x2C SHL 0x25 DUP8 0xB0 XOR PUSH5 0x736F6C6343 STOP ADDMOD SHR STOP CALLER "},"methodIdentifiers":{"DEFAULT_STALENESS_THRESHOLD()":"b25f68ae","MAX_ENTRIES_PER_PRODUCT()":"217e24b5","acceptAdmin()":"0e18b681","admin()":"f851a440","authorizedUpdaters(address)":"8ff29cfe","batchUpdatePrices(bytes32[],(bytes32,uint256,uint256,uint256,uint256,uint256,string)[],uint256[])":"3cc67143","computeProductHash(string)":"1337ea95","getBestPrice(bytes32)":"c9d998f1","getBestSupplier(bytes32)":"9749ee3f","getEntryCount(bytes32)":"498d1fec","getPrice(bytes32)":"31d98b3f","getProductCount()":"4a348da9","isPriceFresh(bytes32)":"828323f7","knownProducts(uint256)":"f43b11a0","lastUpdated(bytes32)":"060eb2f5","pendingAdmin()":"26782247","productExists(bytes32)":"4d472116","setAuthorizedUpdater(address,bool)":"99fc65d4","setStalenessThreshold(uint256)":"fb01e7f2","stalenessThreshold()":"a84f6ebb","transferAdmin(address)":"75829def","updatePrice(bytes32,(bytes32,uint256,uint256,uint256,uint256,uint256,string)[])":"f6ef34f9"}}}}}