{
  "_format": "hh3-artifact-1",
  "contractName": "DisputeResolver",
  "sourceName": "src/contracts/DisputeResolver.sol",
  "abi": [
    {
      "inputs": [
        {
          "internalType": "address",
          "name": "_usdc",
          "type": "address"
        },
        {
          "internalType": "address",
          "name": "_admin",
          "type": "address"
        },
        {
          "internalType": "address",
          "name": "_escrowVault",
          "type": "address"
        }
      ],
      "stateMutability": "nonpayable",
      "type": "constructor"
    },
    {
      "inputs": [
        {
          "internalType": "uint256",
          "name": "dealId",
          "type": "uint256"
        }
      ],
      "name": "DisputeAlreadyExists",
      "type": "error"
    },
    {
      "inputs": [
        {
          "internalType": "uint256",
          "name": "disputeId",
          "type": "uint256"
        }
      ],
      "name": "DisputeNotFound",
      "type": "error"
    },
    {
      "inputs": [
        {
          "internalType": "uint256",
          "name": "disputeId",
          "type": "uint256"
        },
        {
          "internalType": "enum DisputeStatus",
          "name": "current",
          "type": "uint8"
        }
      ],
      "name": "InvalidDisputeStatus",
      "type": "error"
    },
    {
      "inputs": [],
      "name": "InvalidRefundBps",
      "type": "error"
    },
    {
      "inputs": [
        {
          "internalType": "uint256",
          "name": "disputeId",
          "type": "uint256"
        }
      ],
      "name": "NotDisputeParty",
      "type": "error"
    },
    {
      "inputs": [
        {
          "internalType": "uint256",
          "name": "disputeId",
          "type": "uint256"
        }
      ],
      "name": "SupplierDeadlineNotReached",
      "type": "error"
    },
    {
      "anonymous": false,
      "inputs": [
        {
          "indexed": true,
          "internalType": "uint256",
          "name": "disputeId",
          "type": "uint256"
        }
      ],
      "name": "DisputeExpired",
      "type": "event"
    },
    {
      "anonymous": false,
      "inputs": [
        {
          "indexed": true,
          "internalType": "uint256",
          "name": "disputeId",
          "type": "uint256"
        },
        {
          "indexed": false,
          "internalType": "address",
          "name": "to",
          "type": "address"
        }
      ],
      "name": "DisputeFeeRefunded",
      "type": "event"
    },
    {
      "anonymous": false,
      "inputs": [
        {
          "indexed": true,
          "internalType": "uint256",
          "name": "disputeId",
          "type": "uint256"
        },
        {
          "indexed": true,
          "internalType": "uint256",
          "name": "dealId",
          "type": "uint256"
        },
        {
          "indexed": true,
          "internalType": "address",
          "name": "filedBy",
          "type": "address"
        }
      ],
      "name": "DisputeFiled",
      "type": "event"
    },
    {
      "anonymous": false,
      "inputs": [
        {
          "indexed": true,
          "internalType": "uint256",
          "name": "disputeId",
          "type": "uint256"
        },
        {
          "indexed": false,
          "internalType": "enum DisputeOutcome",
          "name": "outcome",
          "type": "uint8"
        },
        {
          "indexed": false,
          "internalType": "uint256",
          "name": "buyerRefundBps",
          "type": "uint256"
        }
      ],
      "name": "DisputeResolved",
      "type": "event"
    },
    {
      "anonymous": false,
      "inputs": [
        {
          "indexed": true,
          "internalType": "uint256",
          "name": "disputeId",
          "type": "uint256"
        },
        {
          "indexed": false,
          "internalType": "string",
          "name": "response",
          "type": "string"
        }
      ],
      "name": "SupplierResponded",
      "type": "event"
    },
    {
      "inputs": [],
      "name": "BPS_DENOMINATOR",
      "outputs": [
        {
          "internalType": "uint256",
          "name": "",
          "type": "uint256"
        }
      ],
      "stateMutability": "view",
      "type": "function"
    },
    {
      "inputs": [],
      "name": "DISPUTE_FEE",
      "outputs": [
        {
          "internalType": "uint256",
          "name": "",
          "type": "uint256"
        }
      ],
      "stateMutability": "view",
      "type": "function"
    },
    {
      "inputs": [],
      "name": "SUPPLIER_RESPONSE_PERIOD",
      "outputs": [
        {
          "internalType": "uint256",
          "name": "",
          "type": "uint256"
        }
      ],
      "stateMutability": "view",
      "type": "function"
    },
    {
      "inputs": [],
      "name": "acceptAdmin",
      "outputs": [],
      "stateMutability": "nonpayable",
      "type": "function"
    },
    {
      "inputs": [],
      "name": "admin",
      "outputs": [
        {
          "internalType": "address",
          "name": "",
          "type": "address"
        }
      ],
      "stateMutability": "view",
      "type": "function"
    },
    {
      "inputs": [
        {
          "internalType": "address",
          "name": "",
          "type": "address"
        }
      ],
      "name": "arbitrators",
      "outputs": [
        {
          "internalType": "bool",
          "name": "",
          "type": "bool"
        }
      ],
      "stateMutability": "view",
      "type": "function"
    },
    {
      "inputs": [
        {
          "internalType": "uint256",
          "name": "",
          "type": "uint256"
        }
      ],
      "name": "dealDisputeId",
      "outputs": [
        {
          "internalType": "uint256",
          "name": "",
          "type": "uint256"
        }
      ],
      "stateMutability": "view",
      "type": "function"
    },
    {
      "inputs": [
        {
          "internalType": "uint256",
          "name": "",
          "type": "uint256"
        }
      ],
      "name": "disputes",
      "outputs": [
        {
          "internalType": "uint256",
          "name": "disputeId",
          "type": "uint256"
        },
        {
          "internalType": "uint256",
          "name": "dealId",
          "type": "uint256"
        },
        {
          "internalType": "address",
          "name": "filedBy",
          "type": "address"
        },
        {
          "internalType": "string",
          "name": "reason",
          "type": "string"
        },
        {
          "internalType": "uint256",
          "name": "filedAt",
          "type": "uint256"
        },
        {
          "internalType": "uint256",
          "name": "supplierDeadline",
          "type": "uint256"
        },
        {
          "internalType": "enum DisputeStatus",
          "name": "status",
          "type": "uint8"
        },
        {
          "internalType": "enum DisputeOutcome",
          "name": "outcome",
          "type": "uint8"
        },
        {
          "internalType": "uint256",
          "name": "buyerRefundBps",
          "type": "uint256"
        }
      ],
      "stateMutability": "view",
      "type": "function"
    },
    {
      "inputs": [],
      "name": "escrowVault",
      "outputs": [
        {
          "internalType": "address",
          "name": "",
          "type": "address"
        }
      ],
      "stateMutability": "view",
      "type": "function"
    },
    {
      "inputs": [
        {
          "internalType": "uint256",
          "name": "disputeId",
          "type": "uint256"
        }
      ],
      "name": "expireDispute",
      "outputs": [],
      "stateMutability": "nonpayable",
      "type": "function"
    },
    {
      "inputs": [
        {
          "internalType": "uint256",
          "name": "",
          "type": "uint256"
        }
      ],
      "name": "feeDepositor",
      "outputs": [
        {
          "internalType": "address",
          "name": "",
          "type": "address"
        }
      ],
      "stateMutability": "view",
      "type": "function"
    },
    {
      "inputs": [
        {
          "internalType": "uint256",
          "name": "dealId",
          "type": "uint256"
        },
        {
          "internalType": "string",
          "name": "reason",
          "type": "string"
        }
      ],
      "name": "fileDispute",
      "outputs": [
        {
          "internalType": "uint256",
          "name": "disputeId",
          "type": "uint256"
        }
      ],
      "stateMutability": "nonpayable",
      "type": "function"
    },
    {
      "inputs": [
        {
          "internalType": "uint256",
          "name": "disputeId",
          "type": "uint256"
        }
      ],
      "name": "getDispute",
      "outputs": [
        {
          "components": [
            {
              "internalType": "uint256",
              "name": "disputeId",
              "type": "uint256"
            },
            {
              "internalType": "uint256",
              "name": "dealId",
              "type": "uint256"
            },
            {
              "internalType": "address",
              "name": "filedBy",
              "type": "address"
            },
            {
              "internalType": "string",
              "name": "reason",
              "type": "string"
            },
            {
              "internalType": "uint256",
              "name": "filedAt",
              "type": "uint256"
            },
            {
              "internalType": "uint256",
              "name": "supplierDeadline",
              "type": "uint256"
            },
            {
              "internalType": "enum DisputeStatus",
              "name": "status",
              "type": "uint8"
            },
            {
              "internalType": "enum DisputeOutcome",
              "name": "outcome",
              "type": "uint8"
            },
            {
              "internalType": "uint256",
              "name": "buyerRefundBps",
              "type": "uint256"
            }
          ],
          "internalType": "struct Dispute",
          "name": "",
          "type": "tuple"
        }
      ],
      "stateMutability": "view",
      "type": "function"
    },
    {
      "inputs": [
        {
          "internalType": "uint256",
          "name": "dealId",
          "type": "uint256"
        }
      ],
      "name": "getDisputeByDeal",
      "outputs": [
        {
          "components": [
            {
              "internalType": "uint256",
              "name": "disputeId",
              "type": "uint256"
            },
            {
              "internalType": "uint256",
              "name": "dealId",
              "type": "uint256"
            },
            {
              "internalType": "address",
              "name": "filedBy",
              "type": "address"
            },
            {
              "internalType": "string",
              "name": "reason",
              "type": "string"
            },
            {
              "internalType": "uint256",
              "name": "filedAt",
              "type": "uint256"
            },
            {
              "internalType": "uint256",
              "name": "supplierDeadline",
              "type": "uint256"
            },
            {
              "internalType": "enum DisputeStatus",
              "name": "status",
              "type": "uint8"
            },
            {
              "internalType": "enum DisputeOutcome",
              "name": "outcome",
              "type": "uint8"
            },
            {
              "internalType": "uint256",
              "name": "buyerRefundBps",
              "type": "uint256"
            }
          ],
          "internalType": "struct Dispute",
          "name": "",
          "type": "tuple"
        }
      ],
      "stateMutability": "view",
      "type": "function"
    },
    {
      "inputs": [
        {
          "internalType": "uint256",
          "name": "disputeId",
          "type": "uint256"
        }
      ],
      "name": "getSupplierResponse",
      "outputs": [
        {
          "internalType": "string",
          "name": "",
          "type": "string"
        }
      ],
      "stateMutability": "view",
      "type": "function"
    },
    {
      "inputs": [
        {
          "internalType": "uint256",
          "name": "disputeId",
          "type": "uint256"
        }
      ],
      "name": "isDisputeExpirable",
      "outputs": [
        {
          "internalType": "bool",
          "name": "",
          "type": "bool"
        }
      ],
      "stateMutability": "view",
      "type": "function"
    },
    {
      "inputs": [],
      "name": "nextDisputeId",
      "outputs": [
        {
          "internalType": "uint256",
          "name": "",
          "type": "uint256"
        }
      ],
      "stateMutability": "view",
      "type": "function"
    },
    {
      "inputs": [],
      "name": "pendingAdmin",
      "outputs": [
        {
          "internalType": "address",
          "name": "",
          "type": "address"
        }
      ],
      "stateMutability": "view",
      "type": "function"
    },
    {
      "inputs": [
        {
          "internalType": "uint256",
          "name": "disputeId",
          "type": "uint256"
        },
        {
          "internalType": "uint256",
          "name": "buyerRefundBps",
          "type": "uint256"
        }
      ],
      "name": "resolveDispute",
      "outputs": [],
      "stateMutability": "nonpayable",
      "type": "function"
    },
    {
      "inputs": [
        {
          "internalType": "address",
          "name": "arb",
          "type": "address"
        },
        {
          "internalType": "bool",
          "name": "authorized",
          "type": "bool"
        }
      ],
      "name": "setArbitrator",
      "outputs": [],
      "stateMutability": "nonpayable",
      "type": "function"
    },
    {
      "inputs": [
        {
          "internalType": "address",
          "name": "_vault",
          "type": "address"
        }
      ],
      "name": "setEscrowVault",
      "outputs": [],
      "stateMutability": "nonpayable",
      "type": "function"
    },
    {
      "inputs": [
        {
          "internalType": "uint256",
          "name": "disputeId",
          "type": "uint256"
        },
        {
          "internalType": "string",
          "name": "response",
          "type": "string"
        }
      ],
      "name": "supplierRespond",
      "outputs": [],
      "stateMutability": "nonpayable",
      "type": "function"
    },
    {
      "inputs": [
        {
          "internalType": "uint256",
          "name": "",
          "type": "uint256"
        }
      ],
      "name": "supplierResponses",
      "outputs": [
        {
          "internalType": "string",
          "name": "",
          "type": "string"
        }
      ],
      "stateMutability": "view",
      "type": "function"
    },
    {
      "inputs": [
        {
          "internalType": "address",
          "name": "newAdmin",
          "type": "address"
        }
      ],
      "name": "transferAdmin",
      "outputs": [],
      "stateMutability": "nonpayable",
      "type": "function"
    },
    {
      "inputs": [],
      "name": "usdc",
      "outputs": [
        {
          "internalType": "address",
          "name": "",
          "type": "address"
        }
      ],
      "stateMutability": "view",
      "type": "function"
    }
  ],
  "bytecode": "0x60a060405234801561001057600080fd5b5060405161274038038061274083398101604081905261002f9161010a565b6001600160a01b0383161580159061004f57506001600160a01b03821615155b801561006357506001600160a01b03811615155b6100b35760405162461bcd60e51b815260206004820152601d60248201527f446973707574655265736f6c7665723a207a65726f2061646472657373000000604482015260640160405180910390fd5b6001600160a01b03928316608052600080549284166001600160a01b031993841617905560028054919093169116179055600160085561014d565b80516001600160a01b038116811461010557600080fd5b919050565b60008060006060848603121561011f57600080fd5b610128846100ee565b9250610136602085016100ee565b9150610144604085016100ee565b90509250925092565b6080516125c361017d600039600081816102210152818161077d015281816110d50152611c5301526125c36000f3fe608060405234801561001057600080fd5b50600436106101735760003560e01c8063608bd1ba116100de578063c671bdec11610097578063e1a4521811610071578063e1a4521814610393578063e3a96cbd1461039c578063ee1797fb146103af578063f851a440146103c257600080fd5b8063c671bdec14610363578063c728d73014610376578063dc755e9d1461038957600080fd5b8063608bd1ba146102e457806375829def1461030d5780638243af1d146103205780638a2ae60b14610333578063bad708db14610346578063bdc84ac31461035057600080fd5b80633e413bee116101305780633e413bee1461021c57806342443efd146102435780634a5a00a11461025657806351d0ea3714610276578063564a565d146102a957806358c45b17146102d157600080fd5b80630db39934146101785780630e18b681146101945780630efaeed21461019e57806326782247146101be5780632bc0b076146101e95780632c4b99b7146101fc575b600080fd5b61018160085481565b6040519081526020015b60405180910390f35b61019c6103d5565b005b6101816101ac366004611d25565b60056020526000908152604090205481565b6001546101d1906001600160a01b031681565b6040516001600160a01b03909116815260200161018b565b61019c6101f7366004611d64565b61045b565b61020f61020a366004611d25565b6104d6565b60405161018b9190611ded565b6101d17f000000000000000000000000000000000000000000000000000000000000000081565b61019c610251366004611d25565b610578565b610269610264366004611d25565b61082e565b60405161018b9190611e3a565b610299610284366004611eda565b60036020526000908152604090205460ff1681565b604051901515815260200161018b565b6102bc6102b7366004611d25565b610a0d565b60405161018b99989796959493929190611ef7565b61019c6102df366004611f63565b610af0565b6101d16102f2366004611d25565b6007602052600090815260409020546001600160a01b031681565b61019c61031b366004611eda565b610d23565b61018161032e366004611f63565b610d95565b6002546101d1906001600160a01b031681565b61018162093a8081565b61019c61035e366004611fe1565b611235565b61019c610371366004611eda565b6115bb565b61020f610384366004611d25565b61162d565b610181624c4b4081565b61018161271081565b6102696103aa366004611d25565b6116c7565b6102996103bd366004611d25565b611875565b6000546101d1906001600160a01b031681565b6001546001600160a01b031633146104345760405162461bcd60e51b815260206004820152601c60248201527f446973707574655265736f6c7665723a206e6f742070656e64696e670000000060448201526064015b60405180910390fd5b60018054600080546001600160a01b03199081166001600160a01b03841617909155169055565b6000546001600160a01b031633146104855760405162461bcd60e51b815260040161042b90612003565b6001600160a01b0382166104ab5760405162461bcd60e51b815260040161042b9061203a565b6001600160a01b03919091166000908152600360205260409020805460ff1916911515919091179055565b60008181526006602052604090208054606091906104f390612071565b80601f016020809104026020016040519081016040528092919081815260200182805461051f90612071565b801561056c5780601f106105415761010080835404028352916020019161056c565b820191906000526020600020905b81548152906001019060200180831161054f57829003601f168201915b50505050509050919050565b60095460ff1660010361059d5760405162461bcd60e51b815260040161042b906120ab565b6009805460ff1916600117905560008181526004602052604090206002015481906001600160a01b03166105e757604051634294e0f760e01b81526004810182905260240161042b565b60008281526004602052604090206001600682015460ff16600481111561061057610610611e00565b1461063b5760068101546040516374d341fd60e01b815261042b91859160ff909116906004016120e2565b806005015442116106625760405163d40b379360e01b81526004810184905260240161042b565b60068101805461ffff1916610104179055612710600782018190556002546001830154604051602481019190915260448101929092526000916001600160a01b039091169060640160408051601f198184030181529181526020820180516001600160e01b031663bdc84ac360e01b179052516106df91906120f6565b6000604051808303816000865af19150503d806000811461071c576040519150601f19603f3d011682016040523d82523d6000602084013e610721565b606091505b50509050806107725760405162461bcd60e51b815260206004820152601f60248201527f446973707574655265736f6c7665723a207265736f6c7665206661696c656400604482015260640161042b565b60028201546107af907f0000000000000000000000000000000000000000000000000000000000000000906001600160a01b0316624c4b406118b5565b60405184907f7f5ca1e18f0bde5ebe14e6196febc16e76e98fdf0bd7eb9672ea4012626278e990600090a260028201546040516001600160a01b03909116815284907f1cd34d6f40ae3ff505382ecdf922a8a144f8212afdbc3f44f69f5492a0bd221e9060200160405180910390a250506009805460ff191690555050565b610836611cbf565b600082815260056020526040812054908190036108a15760405162461bcd60e51b8152602060048201526024808201527f446973707574655265736f6c7665723a206e6f206469737075746520666f72206044820152631919585b60e21b606482015260840161042b565b6000818152600460209081526040918290208251610120810184528154815260018201549281019290925260028101546001600160a01b0316928201929092526003820180549192916060840191906108f990612071565b80601f016020809104026020016040519081016040528092919081815260200182805461092590612071565b80156109725780601f1061094757610100808354040283529160200191610972565b820191906000526020600020905b81548152906001019060200180831161095557829003601f168201915b5050509183525050600482810154602083015260058301546040830152600683015460609092019160ff16908111156109ad576109ad611e00565b60048111156109be576109be611e00565b81526020016006820160019054906101000a900460ff1660038111156109e6576109e6611e00565b60038111156109f7576109f7611e00565b8152602001600782015481525050915050919050565b6004602052600090815260409020805460018201546002830154600384018054939492936001600160a01b039092169291610a4790612071565b80601f0160208091040260200160405190810160405280929190818152602001828054610a7390612071565b8015610ac05780601f10610a9557610100808354040283529160200191610ac0565b820191906000526020600020905b815481529060010190602001808311610aa357829003601f168201915b505050506004830154600584015460068501546007909501549394919390925060ff808316926101009004169089565b60008381526004602052604090206002015483906001600160a01b0316610b2d57604051634294e0f760e01b81526004810182905260240161042b565b60008481526004602052604090206001600682015460ff166004811115610b5657610b56611e00565b14610b815760068101546040516374d341fd60e01b815261042b91879160ff909116906004016120e2565b6002546001820154604051602481019190915260009182916001600160a01b039091169060440160408051601f198184030181529181526020820180516001600160e01b03166320bf56eb60e21b17905251610bdd91906120f6565b600060405180830381855afa9150503d8060008114610c18576040519150601f19603f3d011682016040523d82523d6000602084013e610c1d565b606091505b509150915081610c3f5760405162461bcd60e51b815260040161042b90612112565b600081806020019051810190610c559190612233565b60608101519091506001600160a01b03163314610cb45760405162461bcd60e51b815260206004820152601d60248201527f446973707574655265736f6c7665723a206e6f7420737570706c696572000000604482015260640161042b565b6006848101805460ff19166002179055600089815260209190915260409020610cde87898361235f565b50877f9bc9440296cbf4d565b3af842fa15d2d360cff8c226a92f3fbc9f1e9841c35fb8888604051610d1192919061241f565b60405180910390a25050505050505050565b6000546001600160a01b03163314610d4d5760405162461bcd60e51b815260040161042b90612003565b6001600160a01b038116610d735760405162461bcd60e51b815260040161042b9061203a565b600180546001600160a01b0319166001600160a01b0392909216919091179055565b60095460009060ff16600103610dbd5760405162461bcd60e51b815260040161042b906120ab565b6009805460ff1916600117905560008481526005602052604090205415610dfa5760405163b40fec2160e01b81526004810185905260240161042b565b6002546040516024810186905260009182916001600160a01b039091169060440160408051601f198184030181529181526020820180516001600160e01b03166320bf56eb60e21b17905251610e5091906120f6565b600060405180830381855afa9150503d8060008114610e8b576040519150601f19603f3d011682016040523d82523d6000602084013e610e90565b606091505b509150915081610eb25760405162461bcd60e51b815260040161042b90612112565b600081806020019051810190610ec89190612233565b60408101519091506001600160a01b03163314610f275760405162461bcd60e51b815260206004820152601a60248201527f446973707574655265736f6c7665723a206e6f74206275796572000000000000604482015260640161042b565b60088054906000610f3783612464565b919050559350604051806101200160405280858152602001888152602001336001600160a01b0316815260200187878080601f0160208091040260200160405190810160405280939291908181526020018383808284376000920191909152505050908252504260208201819052604090910190610fb99062093a809061247d565b815260200160018152602001600081526000602091820181905286815260048252604090819020835181559183015160018301558201516002820180546001600160a01b0319166001600160a01b03909216919091179055606082015160038201906110259082612496565b506080820151816004015560a0820151816005015560c08201518160060160006101000a81548160ff0219169083600481111561106457611064611e00565b021790555060e082015160068201805461ff00191661010083600381111561108e5761108e611e00565b0217905550610100919091015160079182015560008881526005602090815260408083208890558783529290522080546001600160a01b031916339081179091556110ff907f00000000000000000000000000000000000000000000000000000000000000009030624c4b406119d0565b600254604051602481018990526000916001600160a01b03169060440160408051601f198184030181529181526020820180516001600160e01b031663314b683560e01b1790525161115191906120f6565b6000604051808303816000865af19150503d806000811461118e576040519150601f19603f3d011682016040523d82523d6000602084013e611193565b606091505b50509050806111f05760405162461bcd60e51b8152602060048201526024808201527f446973707574655265736f6c7665723a206d61726b44697370757465642066616044820152631a5b195960e21b606482015260840161042b565b6040513390899087907f7564896c2ed6d0cc75ce75683a848b6607f1aaac8c0752dfa0bec85ca5c33dd990600090a450506009805460ff191690555090949350505050565b3360009081526003602052604090205460ff168061125d57506000546001600160a01b031633145b6112a95760405162461bcd60e51b815260206004820152601f60248201527f446973707574655265736f6c7665723a206e6f742061726269747261746f7200604482015260640161042b565b60095460ff166001036112ce5760405162461bcd60e51b815260040161042b906120ab565b6009805460ff1916600117905560008281526004602052604090206002015482906001600160a01b031661131857604051634294e0f760e01b81526004810182905260240161042b565b60008381526004602052604090206001600682015460ff16600481111561134157611341611e00565b148061136557506002600682015460ff16600481111561136357611363611e00565b145b6113b15760405162461bcd60e51b815260206004820152601f60248201527f446973707574655265736f6c7665723a206e6f74207265736f6c7661626c6500604482015260640161042b565b6127108311156113d457604051631429e5a760e31b815260040160405180910390fd5b60068101805460ff191660031790556007810183905561270f198301611412576006810180546001919061ff001916610100835b0217905550611444565b82600003611432576006810180546002919061ff00191661010083611408565b60068101805461ff0019166103001790555b60025460018201546040516000926001600160a01b031691611473918790602401918252602082015260400190565b60408051601f198184030181529181526020820180516001600160e01b031663bdc84ac360e01b179052516114a891906120f6565b6000604051808303816000865af19150503d80600081146114e5576040519150601f19603f3d011682016040523d82523d6000602084013e6114ea565b606091505b505090508061154a5760405162461bcd60e51b815260206004820152602660248201527f446973707574655265736f6c7665723a207265736f6c7665446973707574652060448201526519985a5b195960d21b606482015260840161042b565b6006820154611562908690610100900460ff16611b00565b600682015460405186917ff1ec8c5f40b1ecbe135bf063eabb3d0787f27bef26b6dcf944914a01d2de0b9e916115a291610100900460ff16908890612555565b60405180910390a250506009805460ff19169055505050565b6000546001600160a01b031633146115e55760405162461bcd60e51b815260040161042b90612003565b6001600160a01b03811661160b5760405162461bcd60e51b815260040161042b9061203a565b600280546001600160a01b0319166001600160a01b0392909216919091179055565b6006602052600090815260409020805461164690612071565b80601f016020809104026020016040519081016040528092919081815260200182805461167290612071565b80156116bf5780601f10611694576101008083540402835291602001916116bf565b820191906000526020600020905b8154815290600101906020018083116116a257829003601f168201915b505050505081565b6116cf611cbf565b6000828152600460205260409020600201546001600160a01b031661170a57604051634294e0f760e01b81526004810183905260240161042b565b6000828152600460209081526040918290208251610120810184528154815260018201549281019290925260028101546001600160a01b03169282019290925260038201805491929160608401919061176290612071565b80601f016020809104026020016040519081016040528092919081815260200182805461178e90612071565b80156117db5780601f106117b0576101008083540402835291602001916117db565b820191906000526020600020905b8154815290600101906020018083116117be57829003601f168201915b5050509183525050600482810154602083015260058301546040830152600683015460609092019160ff169081111561181657611816611e00565b600481111561182757611827611e00565b81526020016006820160019054906101000a900460ff16600381111561184f5761184f611e00565b600381111561186057611860611e00565b81526020016007820154815250509050919050565b60008181526004602052604081206001600682015460ff16600481111561189e5761189e611e00565b1480156118ae5750806005015442115b9392505050565b604080516001600160a01b038481166024830152604480830185905283518084039091018152606490920183526020820180516001600160e01b031663a9059cbb60e01b179052915160009283929087169161191191906120f6565b6000604051808303816000865af19150503d806000811461194e576040519150601f19603f3d011682016040523d82523d6000602084013e611953565b606091505b509150915081801561197d57508051158061197d57508080602001905181019061197d9190612570565b6119c95760405162461bcd60e51b815260206004820181905260248201527f446973707574655265736f6c7665723a207472616e73666572206661696c6564604482015260640161042b565b5050505050565b604080516001600160a01b0385811660248301528481166044830152606480830185905283518084039091018152608490920183526020820180516001600160e01b03166323b872dd60e01b1790529151600092839290881691611a3491906120f6565b6000604051808303816000865af19150503d8060008114611a71576040519150601f19603f3d011682016040523d82523d6000602084013e611a76565b606091505b5091509150818015611aa0575080511580611aa0575080806020019051810190611aa09190612570565b611af85760405162461bcd60e51b8152602060048201526024808201527f446973707574655265736f6c7665723a207472616e7366657246726f6d2066616044820152631a5b195960e21b606482015260840161042b565b505050505050565b60006001826003811115611b1657611b16611e00565b03611b3c57506000828152600460205260409020600201546001600160a01b0316611c4e565b6002826003811115611b5057611b50611e00565b03611c4957600254600084815260046020526040808220600101549051919283926001600160a01b0390911691611b8d9160240190815260200190565b60408051601f198184030181529181526020820180516001600160e01b03166320bf56eb60e21b17905251611bc291906120f6565b600060405180830381855afa9150503d8060008114611bfd576040519150601f19603f3d011682016040523d82523d6000602084013e611c02565b606091505b509150915081611c245760405162461bcd60e51b815260040161042b90612112565b600081806020019051810190611c3a9190612233565b606001519350611c4e92505050565b505050565b611c7c7f000000000000000000000000000000000000000000000000000000000000000082624c4b406118b5565b6040516001600160a01b038216815283907f1cd34d6f40ae3ff505382ecdf922a8a144f8212afdbc3f44f69f5492a0bd221e9060200160405180910390a2505050565b604051806101200160405280600081526020016000815260200160006001600160a01b0316815260200160608152602001600081526020016000815260200160006004811115611d1157611d11611e00565b815260200160008152602001600081525090565b600060208284031215611d3757600080fd5b5035919050565b6001600160a01b0381168114611d5357600080fd5b50565b8015158114611d5357600080fd5b60008060408385031215611d7757600080fd5b8235611d8281611d3e565b91506020830135611d9281611d56565b809150509250929050565b60005b83811015611db8578181015183820152602001611da0565b50506000910152565b60008151808452611dd9816020860160208601611d9d565b601f01601f19169290920160200192915050565b6020815260006118ae6020830184611dc1565b634e487b7160e01b600052602160045260246000fd5b60058110611e2657611e26611e00565b9052565b60048110611e2657611e26611e00565b60208152815160208201526020820151604082015260006040830151611e6b60608401826001600160a01b03169052565b5060608301516101206080840152611e87610140840182611dc1565b9050608084015160a084015260a084015160c084015260c0840151611eaf60e0850182611e16565b5060e0840151611ec3610100850182611e2a565b506101008401516101208401528091505092915050565b600060208284031215611eec57600080fd5b81356118ae81611d3e565b89815288602082015260018060a01b038816604082015261012060608201526000611f26610120830189611dc1565b90508660808301528560a0830152611f4160c0830186611e16565b611f4e60e0830185611e2a565b826101008301529a9950505050505050505050565b600080600060408486031215611f7857600080fd5b83359250602084013567ffffffffffffffff811115611f9657600080fd5b8401601f81018613611fa757600080fd5b803567ffffffffffffffff811115611fbe57600080fd5b866020828401011115611fd057600080fd5b939660209190910195509293505050565b60008060408385031215611ff457600080fd5b50508035926020909101359150565b6020808252601a908201527f446973707574655265736f6c7665723a206e6f742061646d696e000000000000604082015260600190565b6020808252601d908201527f446973707574655265736f6c7665723a207a65726f2061646472657373000000604082015260600190565b600181811c9082168061208557607f821691505b6020821081036120a557634e487b7160e01b600052602260045260246000fd5b50919050565b6020808252601a908201527f446973707574655265736f6c7665723a207265656e7472616e74000000000000604082015260600190565b828152604081016118ae6020830184611e16565b60008251612108818460208701611d9d565b9190910192915050565b6020808252601f908201527f446973707574655265736f6c7665723a206765744465616c206661696c656400604082015260600190565b634e487b7160e01b600052604160045260246000fd5b604051610140810167ffffffffffffffff8111828210171561218357612183612149565b60405290565b805161219481611d3e565b919050565b80516009811061219457600080fd5b600082601f8301126121b957600080fd5b815167ffffffffffffffff8111156121d3576121d3612149565b604051601f8201601f19908116603f0116810167ffffffffffffffff8111828210171561220257612202612149565b60405281815283820160200185101561221a57600080fd5b61222b826020830160208701611d9d565b949350505050565b60006020828403121561224557600080fd5b815167ffffffffffffffff81111561225c57600080fd5b8201610140818503121561226f57600080fd5b61227761215f565b815181526020808301519082015261229160408301612189565b60408201526122a260608301612189565b60608201526080828101519082015260a0808301519082015260c0808301519082015260e080830151908201526122dc6101008301612199565b61010082015261012082015167ffffffffffffffff8111156122fd57600080fd5b612309868285016121a8565b61012083015250949350505050565b601f821115611c4957806000526020600020601f840160051c8101602085101561233f5750805b601f840160051c820191505b818110156119c9576000815560010161234b565b67ffffffffffffffff83111561237757612377612149565b61238b836123858354612071565b83612318565b6000601f8411600181146123bf57600085156123a75750838201355b600019600387901b1c1916600186901b1783556119c9565b600083815260209020601f19861690835b828110156123f057868501358255602094850194600190920191016123d0565b508682101561240d5760001960f88860031b161c19848701351681555b505060018560011b0183555050505050565b60208152816020820152818360408301376000818301604090810191909152601f909201601f19160101919050565b634e487b7160e01b600052601160045260246000fd5b6000600182016124765761247661244e565b5060010190565b808201808211156124905761249061244e565b92915050565b815167ffffffffffffffff8111156124b0576124b0612149565b6124c4816124be8454612071565b84612318565b6020601f8211600181146124f857600083156124e05750848201515b600019600385901b1c1916600184901b1784556119c9565b600084815260208120601f198516915b828110156125285787850151825560209485019460019092019101612508565b50848210156125465786840151600019600387901b60f8161c191681555b50505050600190811b01905550565b604081016125638285611e2a565b8260208301529392505050565b60006020828403121561258257600080fd5b81516118ae81611d5656fea264697066735822122020887f5c6df52ccc0f0688acdc0efc8ee60c6031b4ab3647260b43fcda76f44a64736f6c634300081c0033",
  "linkReferences": {},
  "deployedLinkReferences": {},
  "immutableReferences": {
    "821": [
      {
        "length": 32,
        "start": 545
      },
      {
        "length": 32,
        "start": 1917
      },
      {
        "length": 32,
        "start": 4309
      },
      {
        "length": 32,
        "start": 7251
      }
    ]
  },
  "inputSourceName": "project/src/contracts/DisputeResolver.sol",
  "buildInfoId": "solc-0_8_28-71bdb74f37453cf3b1e0c8aa5368e5ae83852c35"
}