{
  "_format": "hh3-artifact-1",
  "contractName": "PriceOracle",
  "sourceName": "src/contracts/PriceOracle.sol",
  "abi": [
    {
      "inputs": [
        {
          "internalType": "address",
          "name": "_admin",
          "type": "address"
        }
      ],
      "stateMutability": "nonpayable",
      "type": "constructor"
    },
    {
      "inputs": [],
      "name": "EmptyBatch",
      "type": "error"
    },
    {
      "inputs": [
        {
          "internalType": "bytes32",
          "name": "productHash",
          "type": "bytes32"
        },
        {
          "internalType": "uint256",
          "name": "lastUpdate",
          "type": "uint256"
        }
      ],
      "name": "StalePrice",
      "type": "error"
    },
    {
      "anonymous": false,
      "inputs": [
        {
          "indexed": false,
          "internalType": "bytes32[]",
          "name": "productHashes",
          "type": "bytes32[]"
        },
        {
          "indexed": false,
          "internalType": "uint256",
          "name": "timestamp",
          "type": "uint256"
        }
      ],
      "name": "PriceBatchUpdated",
      "type": "event"
    },
    {
      "anonymous": false,
      "inputs": [
        {
          "indexed": true,
          "internalType": "bytes32",
          "name": "productHash",
          "type": "bytes32"
        },
        {
          "indexed": false,
          "internalType": "uint256",
          "name": "unitPrice",
          "type": "uint256"
        },
        {
          "indexed": false,
          "internalType": "uint256",
          "name": "supplierScore",
          "type": "uint256"
        },
        {
          "indexed": false,
          "internalType": "uint256",
          "name": "timestamp",
          "type": "uint256"
        }
      ],
      "name": "PriceUpdated",
      "type": "event"
    },
    {
      "inputs": [],
      "name": "DEFAULT_STALENESS_THRESHOLD",
      "outputs": [
        {
          "internalType": "uint256",
          "name": "",
          "type": "uint256"
        }
      ],
      "stateMutability": "view",
      "type": "function"
    },
    {
      "inputs": [],
      "name": "MAX_ENTRIES_PER_PRODUCT",
      "outputs": [
        {
          "internalType": "uint256",
          "name": "",
          "type": "uint256"
        }
      ],
      "stateMutability": "view",
      "type": "function"
    },
    {
      "inputs": [],
      "name": "acceptAdmin",
      "outputs": [],
      "stateMutability": "nonpayable",
      "type": "function"
    },
    {
      "inputs": [],
      "name": "admin",
      "outputs": [
        {
          "internalType": "address",
          "name": "",
          "type": "address"
        }
      ],
      "stateMutability": "view",
      "type": "function"
    },
    {
      "inputs": [
        {
          "internalType": "address",
          "name": "",
          "type": "address"
        }
      ],
      "name": "authorizedUpdaters",
      "outputs": [
        {
          "internalType": "bool",
          "name": "",
          "type": "bool"
        }
      ],
      "stateMutability": "view",
      "type": "function"
    },
    {
      "inputs": [
        {
          "internalType": "bytes32[]",
          "name": "productHashes",
          "type": "bytes32[]"
        },
        {
          "components": [
            {
              "internalType": "bytes32",
              "name": "productHash",
              "type": "bytes32"
            },
            {
              "internalType": "uint256",
              "name": "unitPrice",
              "type": "uint256"
            },
            {
              "internalType": "uint256",
              "name": "moq",
              "type": "uint256"
            },
            {
              "internalType": "uint256",
              "name": "shippingCost",
              "type": "uint256"
            },
            {
              "internalType": "uint256",
              "name": "supplierScore",
              "type": "uint256"
            },
            {
              "internalType": "uint256",
              "name": "timestamp",
              "type": "uint256"
            },
            {
              "internalType": "string",
              "name": "supplierRef",
              "type": "string"
            }
          ],
          "internalType": "struct PriceEntry[]",
          "name": "allEntries",
          "type": "tuple[]"
        },
        {
          "internalType": "uint256[]",
          "name": "entryCounts",
          "type": "uint256[]"
        }
      ],
      "name": "batchUpdatePrices",
      "outputs": [],
      "stateMutability": "nonpayable",
      "type": "function"
    },
    {
      "inputs": [
        {
          "internalType": "string",
          "name": "productId",
          "type": "string"
        }
      ],
      "name": "computeProductHash",
      "outputs": [
        {
          "internalType": "bytes32",
          "name": "",
          "type": "bytes32"
        }
      ],
      "stateMutability": "pure",
      "type": "function"
    },
    {
      "inputs": [
        {
          "internalType": "bytes32",
          "name": "productHash",
          "type": "bytes32"
        }
      ],
      "name": "getBestPrice",
      "outputs": [
        {
          "components": [
            {
              "internalType": "bytes32",
              "name": "productHash",
              "type": "bytes32"
            },
            {
              "internalType": "uint256",
              "name": "unitPrice",
              "type": "uint256"
            },
            {
              "internalType": "uint256",
              "name": "moq",
              "type": "uint256"
            },
            {
              "internalType": "uint256",
              "name": "shippingCost",
              "type": "uint256"
            },
            {
              "internalType": "uint256",
              "name": "supplierScore",
              "type": "uint256"
            },
            {
              "internalType": "uint256",
              "name": "timestamp",
              "type": "uint256"
            },
            {
              "internalType": "string",
              "name": "supplierRef",
              "type": "string"
            }
          ],
          "internalType": "struct PriceEntry",
          "name": "bestEntry",
          "type": "tuple"
        }
      ],
      "stateMutability": "view",
      "type": "function"
    },
    {
      "inputs": [
        {
          "internalType": "bytes32",
          "name": "productHash",
          "type": "bytes32"
        }
      ],
      "name": "getBestSupplier",
      "outputs": [
        {
          "components": [
            {
              "internalType": "bytes32",
              "name": "productHash",
              "type": "bytes32"
            },
            {
              "internalType": "uint256",
              "name": "unitPrice",
              "type": "uint256"
            },
            {
              "internalType": "uint256",
              "name": "moq",
              "type": "uint256"
            },
            {
              "internalType": "uint256",
              "name": "shippingCost",
              "type": "uint256"
            },
            {
              "internalType": "uint256",
              "name": "supplierScore",
              "type": "uint256"
            },
            {
              "internalType": "uint256",
              "name": "timestamp",
              "type": "uint256"
            },
            {
              "internalType": "string",
              "name": "supplierRef",
              "type": "string"
            }
          ],
          "internalType": "struct PriceEntry",
          "name": "bestEntry",
          "type": "tuple"
        }
      ],
      "stateMutability": "view",
      "type": "function"
    },
    {
      "inputs": [
        {
          "internalType": "bytes32",
          "name": "productHash",
          "type": "bytes32"
        }
      ],
      "name": "getEntryCount",
      "outputs": [
        {
          "internalType": "uint256",
          "name": "",
          "type": "uint256"
        }
      ],
      "stateMutability": "view",
      "type": "function"
    },
    {
      "inputs": [
        {
          "internalType": "bytes32",
          "name": "productHash",
          "type": "bytes32"
        }
      ],
      "name": "getPrice",
      "outputs": [
        {
          "components": [
            {
              "internalType": "bytes32",
              "name": "productHash",
              "type": "bytes32"
            },
            {
              "internalType": "uint256",
              "name": "unitPrice",
              "type": "uint256"
            },
            {
              "internalType": "uint256",
              "name": "moq",
              "type": "uint256"
            },
            {
              "internalType": "uint256",
              "name": "shippingCost",
              "type": "uint256"
            },
            {
              "internalType": "uint256",
              "name": "supplierScore",
              "type": "uint256"
            },
            {
              "internalType": "uint256",
              "name": "timestamp",
              "type": "uint256"
            },
            {
              "internalType": "string",
              "name": "supplierRef",
              "type": "string"
            }
          ],
          "internalType": "struct PriceEntry[]",
          "name": "entries",
          "type": "tuple[]"
        },
        {
          "internalType": "uint256",
          "name": "timestamp",
          "type": "uint256"
        }
      ],
      "stateMutability": "view",
      "type": "function"
    },
    {
      "inputs": [],
      "name": "getProductCount",
      "outputs": [
        {
          "internalType": "uint256",
          "name": "",
          "type": "uint256"
        }
      ],
      "stateMutability": "view",
      "type": "function"
    },
    {
      "inputs": [
        {
          "internalType": "bytes32",
          "name": "productHash",
          "type": "bytes32"
        }
      ],
      "name": "isPriceFresh",
      "outputs": [
        {
          "internalType": "bool",
          "name": "isFresh",
          "type": "bool"
        }
      ],
      "stateMutability": "view",
      "type": "function"
    },
    {
      "inputs": [
        {
          "internalType": "uint256",
          "name": "",
          "type": "uint256"
        }
      ],
      "name": "knownProducts",
      "outputs": [
        {
          "internalType": "bytes32",
          "name": "",
          "type": "bytes32"
        }
      ],
      "stateMutability": "view",
      "type": "function"
    },
    {
      "inputs": [
        {
          "internalType": "bytes32",
          "name": "",
          "type": "bytes32"
        }
      ],
      "name": "lastUpdated",
      "outputs": [
        {
          "internalType": "uint256",
          "name": "",
          "type": "uint256"
        }
      ],
      "stateMutability": "view",
      "type": "function"
    },
    {
      "inputs": [],
      "name": "pendingAdmin",
      "outputs": [
        {
          "internalType": "address",
          "name": "",
          "type": "address"
        }
      ],
      "stateMutability": "view",
      "type": "function"
    },
    {
      "inputs": [
        {
          "internalType": "bytes32",
          "name": "",
          "type": "bytes32"
        }
      ],
      "name": "productExists",
      "outputs": [
        {
          "internalType": "bool",
          "name": "",
          "type": "bool"
        }
      ],
      "stateMutability": "view",
      "type": "function"
    },
    {
      "inputs": [
        {
          "internalType": "address",
          "name": "updater",
          "type": "address"
        },
        {
          "internalType": "bool",
          "name": "authorized",
          "type": "bool"
        }
      ],
      "name": "setAuthorizedUpdater",
      "outputs": [],
      "stateMutability": "nonpayable",
      "type": "function"
    },
    {
      "inputs": [
        {
          "internalType": "uint256",
          "name": "_threshold",
          "type": "uint256"
        }
      ],
      "name": "setStalenessThreshold",
      "outputs": [],
      "stateMutability": "nonpayable",
      "type": "function"
    },
    {
      "inputs": [],
      "name": "stalenessThreshold",
      "outputs": [
        {
          "internalType": "uint256",
          "name": "",
          "type": "uint256"
        }
      ],
      "stateMutability": "view",
      "type": "function"
    },
    {
      "inputs": [
        {
          "internalType": "address",
          "name": "newAdmin",
          "type": "address"
        }
      ],
      "name": "transferAdmin",
      "outputs": [],
      "stateMutability": "nonpayable",
      "type": "function"
    },
    {
      "inputs": [
        {
          "internalType": "bytes32",
          "name": "productHash",
          "type": "bytes32"
        },
        {
          "components": [
            {
              "internalType": "bytes32",
              "name": "productHash",
              "type": "bytes32"
            },
            {
              "internalType": "uint256",
              "name": "unitPrice",
              "type": "uint256"
            },
            {
              "internalType": "uint256",
              "name": "moq",
              "type": "uint256"
            },
            {
              "internalType": "uint256",
              "name": "shippingCost",
              "type": "uint256"
            },
            {
              "internalType": "uint256",
              "name": "supplierScore",
              "type": "uint256"
            },
            {
              "internalType": "uint256",
              "name": "timestamp",
              "type": "uint256"
            },
            {
              "internalType": "string",
              "name": "supplierRef",
              "type": "string"
            }
          ],
          "internalType": "struct PriceEntry[]",
          "name": "entries",
          "type": "tuple[]"
        }
      ],
      "name": "updatePrice",
      "outputs": [],
      "stateMutability": "nonpayable",
      "type": "function"
    }
  ],
  "bytecode": "0x6080604052348015600f57600080fd5b50604051611c72380380611c72833981016040819052602c9160af565b6001600160a01b03811660855760405162461bcd60e51b815260206004820152601760248201527f50726963654f7261636c653a207a65726f2061646d696e000000000000000000604482015260640160405180910390fd5b600080546001600160a01b0319166001600160a01b039290921691909117905561546060055560dd565b60006020828403121560c057600080fd5b81516001600160a01b038116811460d657600080fd5b9392505050565b611b86806100ec6000396000f3fe608060405234801561001057600080fd5b50600436106101425760003560e01c8063828323f7116100b8578063b25f68ae1161007c578063b25f68ae146102de578063c9d998f1146102e7578063f43b11a0146102fa578063f6ef34f91461030d578063f851a44014610320578063fb01e7f21461033357600080fd5b8063828323f71461026c5780638ff29cfe1461027f5780639749ee3f146102a257806399fc65d4146102c2578063a84f6ebb146102d557600080fd5b806331d98b3f1161010a57806331d98b3f146101ca5780633cc67143146101eb578063498d1fec146101fe5780634a348da91461021e5780634d4721161461022657806375829def1461025957600080fd5b8063060eb2f5146101475780630e18b6811461017a5780631337ea9514610184578063217e24b514610197578063267822471461019f575b600080fd5b610167610155366004611519565b60046020526000908152604090205481565b6040519081526020015b60405180910390f35b610182610346565b005b610167610192366004611532565b6103cc565b610167600a81565b6001546101b2906001600160a01b031681565b6040516001600160a01b039091168152602001610171565b6101dd6101d8366004611519565b610400565b604051610171929190611636565b6101826101f93660046116ef565b610549565b61016761020c366004611519565b60009081526003602052604090205490565b600654610167565b610249610234366004611519565b60076020526000908152604090205460ff1681565b6040519015158152602001610171565b6101826102673660046117b1565b610958565b61024961027a366004611519565b6109f6565b61024961028d3660046117b1565b60026020526000908152604090205460ff1681565b6102b56102b0366004611519565b610a1d565b60405161017191906117d3565b6101826102d03660046117e6565b610cfc565b61016760055481565b61016761546081565b6102b56102f5366004611519565b610da3565b610167610308366004611519565b61107b565b61018261031b366004611822565b61109c565b6000546101b2906001600160a01b031681565b610182610341366004611519565b6113d1565b6001546001600160a01b031633146103a55760405162461bcd60e51b815260206004820152601e60248201527f50726963654f7261636c653a206e6f742070656e64696e672061646d696e000060448201526064015b60405180910390fd5b60018054600080546001600160a01b03199081166001600160a01b03841617909155169055565b600082826040516020016103e192919061186e565b6040516020818303038152906040528051906020012090505b92915050565b6000818152600360209081526040808320600483528184205481548351818602810186019094528084526060959492939192849190869084015b8282101561053a57838290600052602060002090600702016040518060e00160405290816000820154815260200160018201548152602001600282015481526020016003820154815260200160048201548152602001600582015481526020016006820180546104a99061187e565b80601f01602080910402602001604051908101604052809291908181526020018280546104d59061187e565b80156105225780601f106104f757610100808354040283529160200191610522565b820191906000526020600020905b81548152906001019060200180831161050557829003601f168201915b5050505050815250508152602001906001019061043a565b50505050915091509150915091565b3360009081526002602052604090205460ff166105a85760405162461bcd60e51b815260206004820152601b60248201527f50726963654f7261636c653a206e6f7420617574686f72697a65640000000000604482015260640161039c565b60008590036105ca5760405163c2e5347d60e01b815260040160405180910390fd5b8481146106195760405162461bcd60e51b815260206004820152601c60248201527f50726963654f7261636c653a206c656e677468206d69736d6174636800000000604482015260640161039c565b6000805b868110156108c4576000848483818110610639576106396118b8565b9050602002013590506000811180156106535750600a8111155b61069f5760405162461bcd60e51b815260206004820152601a60248201527f50726963654f7261636c653a20696e76616c696420636f756e74000000000000604482015260640161039c565b856106aa82856118e4565b11156106f05760405162461bcd60e51b815260206004820152601560248201527450726963654f7261636c653a206f766572666c6f7760581b604482015260640161039c565b6000898984818110610704576107046118b8565b60209081029290920135600081815260079093526040909220549192505060ff16610774576006805460018181019092557ff652222313e28459528d920b65115c16c04f3efc82aaedc97be59f3f377c0d3f018290556000828152600760205260409020805460ff191690911790555b600081815260036020526040812061078b91611461565b60005b8281101561089c573689896107a384896118e4565b8181106107b2576107b26118b8565b90506020028101906107c491906118f7565b9050803583146108165760405162461bcd60e51b815260206004820152601a60248201527f50726963654f7261636c653a2068617368206d69736d61746368000000000000604482015260640161039c565b60008160200135116108645760405162461bcd60e51b815260206004820152601760248201527650726963654f7261636c653a207a65726f20707269636560481b604482015260640161039c565b60008381526003602090815260408220805460018101825590835291208291600702016108918282611a3c565b50505060010161078e565b5060008181526004602052604090204290556108b882856118e4565b9350505060010161061d565b508084146109145760405162461bcd60e51b815260206004820152601b60248201527f50726963654f7261636c653a20636f756e74206d69736d617463680000000000604482015260640161039c565b7f0a15e5934a0588c0fd58c7549435c158768c074b01c6e1dadac82ca430a0d2ff87874260405161094793929190611acf565b60405180910390a150505050505050565b6000546001600160a01b031633146109825760405162461bcd60e51b815260040161039c90611b0d565b6001600160a01b0381166109d45760405162461bcd60e51b815260206004820152601960248201527850726963654f7261636c653a207a65726f206164647265737360381b604482015260640161039c565b600180546001600160a01b0319166001600160a01b0392909216919091179055565b600554600082815260046020526040812054909190610a159042611b3d565b111592915050565b610a606040518060e00160405280600080191681526020016000815260200160008152602001600081526020016000815260200160008152602001606081525090565b60008281526003602052604090208054610ab65760405162461bcd60e51b815260206004820152601760248201527650726963654f7261636c653a206e6f20656e747269657360481b604482015260640161039c565b80600081548110610ac957610ac96118b8565b90600052602060002090600702016040518060e0016040529081600082015481526020016001820154815260200160028201548152602001600382015481526020016004820154815260200160058201548152602001600682018054610b2e9061187e565b80601f0160208091040260200160405190810160405280929190818152602001828054610b5a9061187e565b8015610ba75780601f10610b7c57610100808354040283529160200191610ba7565b820191906000526020600020905b815481529060010190602001808311610b8a57829003601f168201915b50505050508152505091506000600190505b8154811015610cf5578260800151828281548110610bd957610bd96118b8565b9060005260206000209060070201600401541115610ced57818181548110610c0357610c036118b8565b90600052602060002090600702016040518060e0016040529081600082015481526020016001820154815260200160028201548152602001600382015481526020016004820154815260200160058201548152602001600682018054610c689061187e565b80601f0160208091040260200160405190810160405280929190818152602001828054610c949061187e565b8015610ce15780601f10610cb657610100808354040283529160200191610ce1565b820191906000526020600020905b815481529060010190602001808311610cc457829003601f168201915b50505050508152505092505b600101610bb9565b5050919050565b6000546001600160a01b03163314610d265760405162461bcd60e51b815260040161039c90611b0d565b6001600160a01b038216610d785760405162461bcd60e51b815260206004820152601960248201527850726963654f7261636c653a207a65726f206164647265737360381b604482015260640161039c565b6001600160a01b03919091166000908152600260205260409020805460ff1916911515919091179055565b610de66040518060e00160405280600080191681526020016000815260200160008152602001600081526020016000815260200160008152602001606081525090565b60008281526003602052604090208054610e3c5760405162461bcd60e51b815260206004820152601760248201527650726963654f7261636c653a206e6f20656e747269657360481b604482015260640161039c565b80600081548110610e4f57610e4f6118b8565b90600052602060002090600702016040518060e0016040529081600082015481526020016001820154815260200160028201548152602001600382015481526020016004820154815260200160058201548152602001600682018054610eb49061187e565b80601f0160208091040260200160405190810160405280929190818152602001828054610ee09061187e565b8015610f2d5780601f10610f0257610100808354040283529160200191610f2d565b820191906000526020600020905b815481529060010190602001808311610f1057829003601f168201915b50505050508152505091506000600190505b8154811015610cf5578260200151828281548110610f5f57610f5f6118b8565b906000526020600020906007020160010154101561107357818181548110610f8957610f896118b8565b90600052602060002090600702016040518060e0016040529081600082015481526020016001820154815260200160028201548152602001600382015481526020016004820154815260200160058201548152602001600682018054610fee9061187e565b80601f016020809104026020016040519081016040528092919081815260200182805461101a9061187e565b80156110675780601f1061103c57610100808354040283529160200191611067565b820191906000526020600020905b81548152906001019060200180831161104a57829003601f168201915b50505050508152505092505b600101610f3f565b6006818154811061108b57600080fd5b600091825260209091200154905081565b3360009081526002602052604090205460ff166110fb5760405162461bcd60e51b815260206004820152601b60248201527f50726963654f7261636c653a206e6f7420617574686f72697a65640000000000604482015260640161039c565b801580159061110b5750600a8111155b6111625760405162461bcd60e51b815260206004820152602260248201527f50726963654f7261636c653a20696e76616c696420656e747269657320636f756044820152611b9d60f21b606482015260840161039c565b60008381526007602052604090205460ff166111c3576006805460018181019092557ff652222313e28459528d920b65115c16c04f3efc82aaedc97be59f3f377c0d3f018490556000848152600760205260409020805460ff191690911790555b60008381526003602052604081206111da91611461565b60005b8181101561132757838383838181106111f8576111f86118b8565b905060200281019061120a91906118f7565b35146112585760405162461bcd60e51b815260206004820152601a60248201527f50726963654f7261636c653a2068617368206d69736d61746368000000000000604482015260640161039c565b600083838381811061126c5761126c6118b8565b905060200281019061127e91906118f7565b60200135116112c95760405162461bcd60e51b815260206004820152601760248201527650726963654f7261636c653a207a65726f20707269636560481b604482015260640161039c565b60008481526003602052604090208383838181106112e9576112e96118b8565b90506020028101906112fb91906118f7565b81546001810183556000928352602090922090916007020161131d8282611a3c565b50506001016111dd565b50600083815260046020526040812042905583907f1c278fa9790ee5cfae7607a35202b57ef06960df9fe79baca5d617e2db126d6f90849084908161136e5761136e6118b8565b905060200281019061138091906118f7565b6020013584846000818110611397576113976118b8565b90506020028101906113a991906118f7565b60408051928352608091909101356020830152429082015260600160405180910390a2505050565b6000546001600160a01b031633146113fb5760405162461bcd60e51b815260040161039c90611b0d565b610e108110158015611410575062093a808111155b61145c5760405162461bcd60e51b815260206004820152601e60248201527f50726963654f7261636c653a20696e76616c6964207468726573686f6c640000604482015260640161039c565b600555565b50805460008255600702906000526020600020908101906114829190611485565b50565b808211156114cb57600080825560018201819055600282018190556003820181905560048201819055600582018190556114c260068301826114cf565b50600701611485565b5090565b5080546114db9061187e565b6000825580601f106114eb575050565b601f01602090049060005260206000209081019061148291905b808211156114cb5760008155600101611505565b60006020828403121561152b57600080fd5b5035919050565b6000806020838503121561154557600080fd5b823567ffffffffffffffff81111561155c57600080fd5b8301601f8101851361156d57600080fd5b803567ffffffffffffffff81111561158457600080fd5b85602082840101111561159657600080fd5b6020919091019590945092505050565b805182526020810151602083015260408101516040830152606081015160608301526080810151608083015260a081015160a0830152600060c082015160e060c085015280518060e086015260005b818110156116135760208184018101516101008884010152016115f5565b5060006101008287010152610100601f19601f8301168601019250505092915050565b6000604082016040835280855180835260608501915060608160051b86010192506020870160005b8281101561168f57605f1987860301845261167a8583516115a6565b9450602093840193919091019060010161165e565b505050506020929092019290925292915050565b60008083601f8401126116b557600080fd5b50813567ffffffffffffffff8111156116cd57600080fd5b6020830191508360208260051b85010111156116e857600080fd5b9250929050565b6000806000806000806060878903121561170857600080fd5b863567ffffffffffffffff81111561171f57600080fd5b61172b89828a016116a3565b909750955050602087013567ffffffffffffffff81111561174b57600080fd5b61175789828a016116a3565b909550935050604087013567ffffffffffffffff81111561177757600080fd5b61178389828a016116a3565b979a9699509497509295939492505050565b80356001600160a01b03811681146117ac57600080fd5b919050565b6000602082840312156117c357600080fd5b6117cc82611795565b9392505050565b6020815260006117cc60208301846115a6565b600080604083850312156117f957600080fd5b61180283611795565b91506020830135801515811461181757600080fd5b809150509250929050565b60008060006040848603121561183757600080fd5b83359250602084013567ffffffffffffffff81111561185557600080fd5b611861868287016116a3565b9497909650939450505050565b8183823760009101908152919050565b600181811c9082168061189257607f821691505b6020821081036118b257634e487b7160e01b600052602260045260246000fd5b50919050565b634e487b7160e01b600052603260045260246000fd5b634e487b7160e01b600052601160045260246000fd5b808201808211156103fa576103fa6118ce565b6000823560de1983360301811261190d57600080fd5b9190910192915050565b634e487b7160e01b600052604160045260246000fd5b601f82111561197757806000526020600020601f840160051c810160208510156119545750805b601f840160051c820191505b818110156119745760008155600101611960565b50505b505050565b67ffffffffffffffff83111561199457611994611917565b6119a8836119a2835461187e565b8361192d565b6000601f8411600181146119dc57600085156119c45750838201355b600019600387901b1c1916600186901b178355611974565b600083815260209020601f19861690835b82811015611a0d57868501358255602094850194600190920191016119ed565b5086821015611a2a5760001960f88860031b161c19848701351681555b505060018560011b0183555050505050565b813581556020820135600182015560408201356002820155606082013560038201556080820135600482015560a0820135600582015560008060c084013536859003601e19018112611a8c578283fd5b84018035915067ffffffffffffffff821115611aa6578283fd5b602001915036819003821315611abb57600080fd5b611ac981836006860161197c565b50505050565b6040808252810183905260006001600160fb1b03841115611aef57600080fd5b8360051b808660608501376020830193909352500160600192915050565b602080825260169082015275283934b1b2a7b930b1b6329d103737ba1030b236b4b760511b604082015260600190565b818103818111156103fa576103fa6118ce56fea2646970667358221220957777e7f0fe21983c91b6dca0a349b479e9f0579c14e073c6e72c1b2587b01864736f6c634300081c0033",
  "linkReferences": {},
  "deployedLinkReferences": {},
  "immutableReferences": {},
  "inputSourceName": "project/src/contracts/PriceOracle.sol",
  "buildInfoId": "solc-0_8_28-71bdb74f37453cf3b1e0c8aa5368e5ae83852c35"
}