{
  "_format": "hh3-artifact-1",
  "contractName": "AgentRegistry",
  "sourceName": "src/contracts/AgentRegistry.sol",
  "abi": [
    {
      "inputs": [
        {
          "internalType": "address",
          "name": "_admin",
          "type": "address"
        }
      ],
      "stateMutability": "nonpayable",
      "type": "constructor"
    },
    {
      "inputs": [
        {
          "internalType": "uint256",
          "name": "agentId",
          "type": "uint256"
        }
      ],
      "name": "AgentInactive",
      "type": "error"
    },
    {
      "inputs": [
        {
          "internalType": "uint256",
          "name": "agentId",
          "type": "uint256"
        }
      ],
      "name": "AgentNotFound",
      "type": "error"
    },
    {
      "inputs": [],
      "name": "InvalidOrderRange",
      "type": "error"
    },
    {
      "inputs": [
        {
          "internalType": "address",
          "name": "owner",
          "type": "address"
        },
        {
          "internalType": "uint256",
          "name": "max",
          "type": "uint256"
        }
      ],
      "name": "MaxAgentsReached",
      "type": "error"
    },
    {
      "inputs": [
        {
          "internalType": "uint256",
          "name": "agentId",
          "type": "uint256"
        },
        {
          "internalType": "address",
          "name": "caller",
          "type": "address"
        }
      ],
      "name": "NotAgentOwner",
      "type": "error"
    },
    {
      "anonymous": false,
      "inputs": [
        {
          "indexed": true,
          "internalType": "uint256",
          "name": "agentId",
          "type": "uint256"
        },
        {
          "indexed": true,
          "internalType": "address",
          "name": "owner",
          "type": "address"
        }
      ],
      "name": "AgentCreated",
      "type": "event"
    },
    {
      "anonymous": false,
      "inputs": [
        {
          "indexed": true,
          "internalType": "uint256",
          "name": "agentId",
          "type": "uint256"
        }
      ],
      "name": "AgentDeactivated",
      "type": "event"
    },
    {
      "anonymous": false,
      "inputs": [
        {
          "indexed": true,
          "internalType": "uint256",
          "name": "agentId",
          "type": "uint256"
        }
      ],
      "name": "AgentReactivated",
      "type": "event"
    },
    {
      "anonymous": false,
      "inputs": [
        {
          "indexed": true,
          "internalType": "uint256",
          "name": "agentId",
          "type": "uint256"
        },
        {
          "indexed": false,
          "internalType": "uint256",
          "name": "totalDeals",
          "type": "uint256"
        },
        {
          "indexed": false,
          "internalType": "uint256",
          "name": "totalVolume",
          "type": "uint256"
        },
        {
          "indexed": false,
          "internalType": "uint256",
          "name": "successRate",
          "type": "uint256"
        }
      ],
      "name": "AgentStatsUpdated",
      "type": "event"
    },
    {
      "anonymous": false,
      "inputs": [
        {
          "indexed": true,
          "internalType": "uint256",
          "name": "agentId",
          "type": "uint256"
        }
      ],
      "name": "AgentUpdated",
      "type": "event"
    },
    {
      "inputs": [],
      "name": "MAX_AGENTS_BUSINESS",
      "outputs": [
        {
          "internalType": "uint256",
          "name": "",
          "type": "uint256"
        }
      ],
      "stateMutability": "view",
      "type": "function"
    },
    {
      "inputs": [],
      "name": "MAX_AGENTS_FREE",
      "outputs": [
        {
          "internalType": "uint256",
          "name": "",
          "type": "uint256"
        }
      ],
      "stateMutability": "view",
      "type": "function"
    },
    {
      "inputs": [],
      "name": "MAX_AGENTS_PRO",
      "outputs": [
        {
          "internalType": "uint256",
          "name": "",
          "type": "uint256"
        }
      ],
      "stateMutability": "view",
      "type": "function"
    },
    {
      "inputs": [],
      "name": "MAX_CATEGORIES_PER_AGENT",
      "outputs": [
        {
          "internalType": "uint256",
          "name": "",
          "type": "uint256"
        }
      ],
      "stateMutability": "view",
      "type": "function"
    },
    {
      "inputs": [],
      "name": "acceptAdmin",
      "outputs": [],
      "stateMutability": "nonpayable",
      "type": "function"
    },
    {
      "inputs": [],
      "name": "admin",
      "outputs": [
        {
          "internalType": "address",
          "name": "",
          "type": "address"
        }
      ],
      "stateMutability": "view",
      "type": "function"
    },
    {
      "inputs": [
        {
          "internalType": "address",
          "name": "",
          "type": "address"
        }
      ],
      "name": "authorizedUpdaters",
      "outputs": [
        {
          "internalType": "bool",
          "name": "",
          "type": "bool"
        }
      ],
      "stateMutability": "view",
      "type": "function"
    },
    {
      "inputs": [
        {
          "internalType": "address[]",
          "name": "users",
          "type": "address[]"
        },
        {
          "internalType": "uint8[]",
          "name": "tiers",
          "type": "uint8[]"
        }
      ],
      "name": "batchSetUserTier",
      "outputs": [],
      "stateMutability": "nonpayable",
      "type": "function"
    },
    {
      "inputs": [
        {
          "internalType": "string[]",
          "name": "categories",
          "type": "string[]"
        },
        {
          "internalType": "uint256",
          "name": "minOrderSize",
          "type": "uint256"
        },
        {
          "internalType": "uint256",
          "name": "maxOrderSize",
          "type": "uint256"
        }
      ],
      "name": "createAgent",
      "outputs": [
        {
          "internalType": "uint256",
          "name": "agentId",
          "type": "uint256"
        }
      ],
      "stateMutability": "nonpayable",
      "type": "function"
    },
    {
      "inputs": [
        {
          "internalType": "uint256",
          "name": "agentId",
          "type": "uint256"
        }
      ],
      "name": "deactivateAgent",
      "outputs": [],
      "stateMutability": "nonpayable",
      "type": "function"
    },
    {
      "inputs": [
        {
          "internalType": "uint256",
          "name": "agentId",
          "type": "uint256"
        }
      ],
      "name": "getAgent",
      "outputs": [
        {
          "components": [
            {
              "internalType": "uint256",
              "name": "agentId",
              "type": "uint256"
            },
            {
              "internalType": "address",
              "name": "owner",
              "type": "address"
            },
            {
              "internalType": "string[]",
              "name": "productCategories",
              "type": "string[]"
            },
            {
              "internalType": "uint256",
              "name": "minOrderSize",
              "type": "uint256"
            },
            {
              "internalType": "uint256",
              "name": "maxOrderSize",
              "type": "uint256"
            },
            {
              "internalType": "bool",
              "name": "active",
              "type": "bool"
            },
            {
              "internalType": "uint256",
              "name": "createdAt",
              "type": "uint256"
            },
            {
              "internalType": "uint256",
              "name": "totalDeals",
              "type": "uint256"
            },
            {
              "internalType": "uint256",
              "name": "totalVolume",
              "type": "uint256"
            },
            {
              "internalType": "uint256",
              "name": "successRate",
              "type": "uint256"
            }
          ],
          "internalType": "struct AgentConfig",
          "name": "config",
          "type": "tuple"
        },
        {
          "internalType": "string[]",
          "name": "categories",
          "type": "string[]"
        }
      ],
      "stateMutability": "view",
      "type": "function"
    },
    {
      "inputs": [
        {
          "internalType": "uint256",
          "name": "agentId",
          "type": "uint256"
        }
      ],
      "name": "getAgentOwner",
      "outputs": [
        {
          "internalType": "address",
          "name": "",
          "type": "address"
        }
      ],
      "stateMutability": "view",
      "type": "function"
    },
    {
      "inputs": [
        {
          "internalType": "uint256",
          "name": "agentId",
          "type": "uint256"
        }
      ],
      "name": "getAgentStats",
      "outputs": [
        {
          "internalType": "uint256",
          "name": "totalDeals",
          "type": "uint256"
        },
        {
          "internalType": "uint256",
          "name": "totalVolume",
          "type": "uint256"
        },
        {
          "internalType": "uint256",
          "name": "successRate",
          "type": "uint256"
        }
      ],
      "stateMutability": "view",
      "type": "function"
    },
    {
      "inputs": [
        {
          "internalType": "address",
          "name": "owner",
          "type": "address"
        }
      ],
      "name": "getAgentsByOwner",
      "outputs": [
        {
          "internalType": "uint256[]",
          "name": "",
          "type": "uint256[]"
        }
      ],
      "stateMutability": "view",
      "type": "function"
    },
    {
      "inputs": [
        {
          "internalType": "uint256",
          "name": "agentId",
          "type": "uint256"
        }
      ],
      "name": "isAgentActive",
      "outputs": [
        {
          "internalType": "bool",
          "name": "",
          "type": "bool"
        }
      ],
      "stateMutability": "view",
      "type": "function"
    },
    {
      "inputs": [],
      "name": "nextAgentId",
      "outputs": [
        {
          "internalType": "uint256",
          "name": "",
          "type": "uint256"
        }
      ],
      "stateMutability": "view",
      "type": "function"
    },
    {
      "inputs": [
        {
          "internalType": "address",
          "name": "",
          "type": "address"
        },
        {
          "internalType": "uint256",
          "name": "",
          "type": "uint256"
        }
      ],
      "name": "ownerAgents",
      "outputs": [
        {
          "internalType": "uint256",
          "name": "",
          "type": "uint256"
        }
      ],
      "stateMutability": "view",
      "type": "function"
    },
    {
      "inputs": [],
      "name": "pendingAdmin",
      "outputs": [
        {
          "internalType": "address",
          "name": "",
          "type": "address"
        }
      ],
      "stateMutability": "view",
      "type": "function"
    },
    {
      "inputs": [
        {
          "internalType": "uint256",
          "name": "agentId",
          "type": "uint256"
        }
      ],
      "name": "reactivateAgent",
      "outputs": [],
      "stateMutability": "nonpayable",
      "type": "function"
    },
    {
      "inputs": [
        {
          "internalType": "uint256",
          "name": "agentId",
          "type": "uint256"
        },
        {
          "internalType": "uint256",
          "name": "volume",
          "type": "uint256"
        },
        {
          "internalType": "bool",
          "name": "success",
          "type": "bool"
        }
      ],
      "name": "recordDealCompletion",
      "outputs": [],
      "stateMutability": "nonpayable",
      "type": "function"
    },
    {
      "inputs": [
        {
          "internalType": "address",
          "name": "updater",
          "type": "address"
        },
        {
          "internalType": "bool",
          "name": "authorized",
          "type": "bool"
        }
      ],
      "name": "setAuthorizedUpdater",
      "outputs": [],
      "stateMutability": "nonpayable",
      "type": "function"
    },
    {
      "inputs": [
        {
          "internalType": "address",
          "name": "user",
          "type": "address"
        },
        {
          "internalType": "uint8",
          "name": "tier",
          "type": "uint8"
        }
      ],
      "name": "setUserTier",
      "outputs": [],
      "stateMutability": "nonpayable",
      "type": "function"
    },
    {
      "inputs": [
        {
          "internalType": "address",
          "name": "newAdmin",
          "type": "address"
        }
      ],
      "name": "transferAdmin",
      "outputs": [],
      "stateMutability": "nonpayable",
      "type": "function"
    },
    {
      "inputs": [
        {
          "internalType": "uint256",
          "name": "agentId",
          "type": "uint256"
        },
        {
          "internalType": "string[]",
          "name": "categories",
          "type": "string[]"
        }
      ],
      "name": "updateCategories",
      "outputs": [],
      "stateMutability": "nonpayable",
      "type": "function"
    },
    {
      "inputs": [
        {
          "internalType": "uint256",
          "name": "agentId",
          "type": "uint256"
        },
        {
          "internalType": "uint256",
          "name": "minOrderSize",
          "type": "uint256"
        },
        {
          "internalType": "uint256",
          "name": "maxOrderSize",
          "type": "uint256"
        }
      ],
      "name": "updateOrderLimits",
      "outputs": [],
      "stateMutability": "nonpayable",
      "type": "function"
    },
    {
      "inputs": [
        {
          "internalType": "address",
          "name": "",
          "type": "address"
        }
      ],
      "name": "userTier",
      "outputs": [
        {
          "internalType": "uint8",
          "name": "",
          "type": "uint8"
        }
      ],
      "stateMutability": "view",
      "type": "function"
    }
  ],
  "bytecode": "0x6080604052348015600f57600080fd5b50604051611ec2380380611ec2833981016040819052602c9160ae565b6001600160a01b03811660855760405162461bcd60e51b815260206004820152601960248201527f4167656e7452656769737472793a207a65726f2061646d696e00000000000000604482015260640160405180910390fd5b600080546001600160a01b0319166001600160a01b0392909216919091179055600160075560dc565b60006020828403121560bf57600080fd5b81516001600160a01b038116811460d557600080fd5b9392505050565b611dd7806100eb6000396000f3fe608060405234801561001057600080fd5b506004361061018e5760003560e01c80638ff29cfe116100de578063cfa5e2f611610097578063e44797fc11610071578063e44797fc146103de578063f851a440146103f1578063fa78504414610404578063fd6103171461040c57600080fd5b8063cfa5e2f6146103b0578063d9eab7c4146103b8578063dfddf8df146103cb57600080fd5b80638ff29cfe1461032b57806396f67a571461034e57806399fc65d414610356578063a04725c614610369578063a68dd9c81461037c578063c85cefd9146103a857600080fd5b80632e739ad31161014b578063444056e411610125578063444056e4146102a757806362febe4f146102ba57806368091633146102cd57806375829def1461031857600080fd5b80632e739ad31461025a57806330efc4981461026d578063392d2d8e1461028457600080fd5b80630e18b6811461019357806311ba6b4a1461019d5780631ab6f888146101b057806321c7557c146101d9578063267822471461020e5780632de5aaf714610239575b600080fd5b61019b61041f565b005b61019b6101ab3660046115c2565b6104a5565b6101c36101be3660046115f7565b61059e565b6040516101d09190611619565b60405180910390f35b6101fc6101e73660046115f7565b60066020526000908152604090205460ff1681565b60405160ff90911681526020016101d0565b600154610221906001600160a01b031681565b6040516001600160a01b0390911681526020016101d0565b61024c6102473660046115c2565b61060a565b6040516101d09291906116ef565b61019b6102683660046117a5565b6108e8565b61027660075481565b6040519081526020016101d0565b6102976102923660046115c2565b6109d3565b60405190151581526020016101d0565b61019b6102b536600461181d565b610a13565b6102766102c836600461188e565b610b9d565b6102fd6102db3660046115c2565b6000908152600360205260409020600781015460088201546009909201549092565b604080519384526020840192909252908201526060016101d0565b61019b6103263660046115f7565b610bce565b6102976103393660046115f7565b60026020526000908152604090205460ff1681565b610276601481565b61019b6103643660046118c8565b610c70565b61019b61037736600461190c565b610d1b565b61022161038a3660046115c2565b6000908152600360205260409020600101546001600160a01b031690565b610276600a81565b610276600381565b61019b6103c6366004611936565b610dc6565b6102766103d9366004611982565b610f21565b61019b6103ec3660046119d3565b6111c0565b600054610221906001600160a01b031681565b610276600681565b61019b61041a3660046115c2565b611377565b6001546001600160a01b0316331461047e5760405162461bcd60e51b815260206004820181905260248201527f4167656e7452656769737472793a206e6f742070656e64696e672061646d696e60448201526064015b60405180910390fd5b60018054600080546001600160a01b03199081166001600160a01b03841617909155169055565b60008181526003602052604090206001015481906001600160a01b03166104e257604051630ede975960e01b815260048101829052602401610475565b6000818152600360205260409020600101546001600160a01b03163314610525576040516304ffad3160e21b815260048101829052336024820152604401610475565b60008281526003602052604090206005015460ff1661055a57604051632f0e043560e11b815260048101839052602401610475565b600082815260036020526040808220600501805460ff191690555183917fc2fb7f8575ac3990e70361684edfc4d283931ea9a03dfa28766bf376a3934aa291a25050565b6001600160a01b0381166000908152600560209081526040918290208054835181840281018401909452808452606093928301828280156105fe57602002820191906000526020600020905b8154815260200190600101908083116105ea575b50505050509050919050565b61066b6040518061014001604052806000815260200160006001600160a01b03168152602001606081526020016000815260200160008152602001600015158152602001600081526020016000815260200160008152602001600081525090565b6000828152600360205260409020600101546060906001600160a01b03166106a957604051630ede975960e01b815260048101849052602401610475565b60008381526003602090815260408083208151610140810183528154815260018201546001600160a01b031681850152600282018054845181870281018701865281815292969395948701949293919290919084015b828210156107ab57838290600052602060002001805461071e90611a08565b80601f016020809104026020016040519081016040528092919081815260200182805461074a90611a08565b80156107975780601f1061076c57610100808354040283529160200191610797565b820191906000526020600020905b81548152906001019060200180831161077a57829003601f168201915b5050505050815260200190600101906106ff565b505050908252506003820154602080830191909152600480840154604080850191909152600585015460ff161515606085015260068501546080850152600785015460a0850152600885015460c085015260099094015460e090930192909252600087815291815282822080548451818402810184019095528085529496509293919084015b828210156108dd57838290600052602060002001805461085090611a08565b80601f016020809104026020016040519081016040528092919081815260200182805461087c90611a08565b80156108c95780601f1061089e576101008083540402835291602001916108c9565b820191906000526020600020905b8154815290600101906020018083116108ac57829003601f168201915b505050505081526020019060010190610831565b505050509050915091565b60008381526003602052604090206001015483906001600160a01b031661092557604051630ede975960e01b815260048101829052602401610475565b6000818152600360205260409020600101546001600160a01b03163314610968576040516304ffad3160e21b815260048101829052336024820152604401610475565b81831061098857604051637ca9a80560e01b815260040160405180910390fd5b600084815260036020819052604080832091820186905560049091018490555185917ff9ad94c5cd385423b7d420bd953716dc348c65914cceb49759c095b7ba0064a991a250505050565b60008181526003602052604081206005015460ff168015610a0d57506000828152600360205260409020600101546001600160a01b031615155b92915050565b6000546001600160a01b03163314610a3d5760405162461bcd60e51b815260040161047590611a42565b828114610a8c5760405162461bcd60e51b815260206004820152601e60248201527f4167656e7452656769737472793a206c656e677468206d69736d6174636800006044820152606401610475565b60005b83811015610b96576003838383818110610aab57610aab611a79565b9050602002016020810190610ac09190611a8f565b60ff161115610b115760405162461bcd60e51b815260206004820152601b60248201527f4167656e7452656769737472793a20696e76616c6964207469657200000000006044820152606401610475565b828282818110610b2357610b23611a79565b9050602002016020810190610b389190611a8f565b60066000878785818110610b4e57610b4e611a79565b9050602002016020810190610b6391906115f7565b6001600160a01b031681526020810191909152604001600020805460ff191660ff92909216919091179055600101610a8f565b5050505050565b60056020528160005260406000208181548110610bb957600080fd5b90600052602060002001600091509150505481565b6000546001600160a01b03163314610bf85760405162461bcd60e51b815260040161047590611a42565b6001600160a01b038116610c4e5760405162461bcd60e51b815260206004820152601b60248201527f4167656e7452656769737472793a207a65726f206164647265737300000000006044820152606401610475565b600180546001600160a01b0319166001600160a01b0392909216919091179055565b6000546001600160a01b03163314610c9a5760405162461bcd60e51b815260040161047590611a42565b6001600160a01b038216610cf05760405162461bcd60e51b815260206004820152601b60248201527f4167656e7452656769737472793a207a65726f206164647265737300000000006044820152606401610475565b6001600160a01b03919091166000908152600260205260409020805460ff1916911515919091179055565b6000546001600160a01b03163314610d455760405162461bcd60e51b815260040161047590611a42565b60038160ff161115610d995760405162461bcd60e51b815260206004820152601b60248201527f4167656e7452656769737472793a20696e76616c6964207469657200000000006044820152606401610475565b6001600160a01b03919091166000908152600660205260409020805460ff191660ff909216919091179055565b60008381526003602052604090206001015483906001600160a01b0316610e0357604051630ede975960e01b815260048101829052602401610475565b6000818152600360205260409020600101546001600160a01b03163314610e46576040516304ffad3160e21b815260048101829052336024820152604401610475565b8115801590610e56575060148211155b610e725760405162461bcd60e51b815260040161047590611aaa565b6000848152600460205260408120610e89916114e4565b60005b82811015610eef576000858152600460205260409020848483818110610eb457610eb4611a79565b9050602002810190610ec69190611aeb565b82546001810184556000938452602090932090920191610ee69183611b94565b50600101610e8c565b5060405184907ff9ad94c5cd385423b7d420bd953716dc348c65914cceb49759c095b7ba0064a990600090a250505050565b6000818310610f4357604051637ca9a80560e01b815260040160405180910390fd5b8315801590610f53575060148411155b610f6f5760405162461bcd60e51b815260040161047590611aaa565b33600090815260066020526040812054610f8b9060ff166114a0565b336000908152600560205260409020549091508111610fc6576040516334109d3360e11b815233600482015260248101829052604401610475565b60078054906000610fd683611c6a565b9091555060408051610140810182528281523360208201529193508101600060405190808252806020026020018201604052801561102857816020015b60608152602001906001900390816110135790505b50815260208082018790526040808301879052600160608401819052426080850152600060a0850181905260c0850181905260e09094018490528684526003835292819020845181558483015193810180546001600160a01b0319166001600160a01b039095169490941790935583015180516110ab9260028501920190611505565b50606082015160038201556080820151600482015560a082015160058201805460ff191691151591909117905560c0820151600682015560e0820151600782015561010082015160088201556101209091015160099091015560005b8581101561116a57600083815260046020526040902087878381811061112f5761112f611a79565b90506020028101906111419190611aeb565b825460018101845560009384526020909320909201916111619183611b94565b50600101611107565b5033600081815260056020908152604080832080546001810182559084529183209091018590555184917fa70099852e9c3325724165514adc9d6f8dd55c4708c923dbf3219c4fc6f8aefc91a350949350505050565b3360009081526002602052604090205460ff1661122d5760405162461bcd60e51b815260206004820152602560248201527f4167656e7452656769737472793a206e6f7420617574686f72697a65642075706044820152643230ba32b960d91b6064820152608401610475565b6000838152600360205260409020600101546001600160a01b031661126857604051630ede975960e01b815260048101849052602401610475565b6000838152600360205260408120600781018054919260019261128c908490611c83565b92505081905550828160080160008282546112a79190611c83565b909155505081156112f15760078101546112c2600182611c96565b82600901546112d19190611ca9565b6112dd90612710611c83565b6112e79190611cc0565b6009820155611320565b6007810154611301600182611c96565b82600901546113109190611ca9565b61131a9190611cc0565b60098201555b6007810154600882015460098301546040805193845260208401929092529082015284907fe2b86be09edf0c2a3958669b7b3dc7ab7b735a2c55bb5ad1539e2400dc0ee7679060600160405180910390a250505050565b60008181526003602052604090206001015481906001600160a01b03166113b457604051630ede975960e01b815260048101829052602401610475565b6000818152600360205260409020600101546001600160a01b031633146113f7576040516304ffad3160e21b815260048101829052336024820152604401610475565b60008281526003602052604090206005015460ff16156114595760405162461bcd60e51b815260206004820152601d60248201527f4167656e7452656769737472793a20616c7265616479206163746976650000006044820152606401610475565b600082815260036020526040808220600501805460ff191660011790555183917f7cce21c1f4552995dccace889e9ad45febf59c654d3fd1d7ab0457fa1439aa2c91a25050565b60008160ff166000036114b557506003919050565b8160ff166001036114c857506006919050565b8160ff166002036114db5750600a919050565b50600019919050565b5080546000825590600052602060002090810190611502919061155b565b50565b82805482825590600052602060002090810192821561154b579160200282015b8281111561154b578251829061153b9082611ce2565b5091602001919060010190611525565b5061155792915061155b565b5090565b8082111561155757600061156f8282611578565b5060010161155b565b50805461158490611a08565b6000825580601f10611594575050565b601f01602090049060005260206000209081019061150291905b8082111561155757600081556001016115ae565b6000602082840312156115d457600080fd5b5035919050565b80356001600160a01b03811681146115f257600080fd5b919050565b60006020828403121561160957600080fd5b611612826115db565b9392505050565b602080825282518282018190526000918401906040840190835b81811015611651578351835260209384019390920191600101611633565b509095945050505050565b600082825180855260208501945060208160051b8301016020850160005b838110156116e357848303601f190188528151805180855260005b818110156116b157602081840181015187830182015201611695565b506000602082870101526020601f19601f8301168601019450505060208201915060208801975060018101905061167a565b50909695505050505050565b60408152825160408201526000602084015161171660608401826001600160a01b03169052565b506040840151610140608084015261173261018084018261165c565b9050606085015160a0840152608085015160c084015260a085015161175b60e085018215159052565b5060c085015161010084015260e0850151610120840152610100850151610140840152610120850151610160840152828103602084015261179c818561165c565b95945050505050565b6000806000606084860312156117ba57600080fd5b505081359360208301359350604090920135919050565b60008083601f8401126117e357600080fd5b50813567ffffffffffffffff8111156117fb57600080fd5b6020830191508360208260051b850101111561181657600080fd5b9250929050565b6000806000806040858703121561183357600080fd5b843567ffffffffffffffff81111561184a57600080fd5b611856878288016117d1565b909550935050602085013567ffffffffffffffff81111561187657600080fd5b611882878288016117d1565b95989497509550505050565b600080604083850312156118a157600080fd5b6118aa836115db565b946020939093013593505050565b803580151581146115f257600080fd5b600080604083850312156118db57600080fd5b6118e4836115db565b91506118f2602084016118b8565b90509250929050565b803560ff811681146115f257600080fd5b6000806040838503121561191f57600080fd5b611928836115db565b91506118f2602084016118fb565b60008060006040848603121561194b57600080fd5b83359250602084013567ffffffffffffffff81111561196957600080fd5b611975868287016117d1565b9497909650939450505050565b6000806000806060858703121561199857600080fd5b843567ffffffffffffffff8111156119af57600080fd5b6119bb878288016117d1565b90989097506020870135966040013595509350505050565b6000806000606084860312156119e857600080fd5b83359250602084013591506119ff604085016118b8565b90509250925092565b600181811c90821680611a1c57607f821691505b602082108103611a3c57634e487b7160e01b600052602260045260246000fd5b50919050565b60208082526018908201527f4167656e7452656769737472793a206e6f742061646d696e0000000000000000604082015260600190565b634e487b7160e01b600052603260045260246000fd5b600060208284031215611aa157600080fd5b611612826118fb565b60208082526021908201527f4167656e7452656769737472793a20696e76616c69642063617465676f7269656040820152607360f81b606082015260800190565b6000808335601e19843603018112611b0257600080fd5b83018035915067ffffffffffffffff821115611b1d57600080fd5b60200191503681900382131561181657600080fd5b634e487b7160e01b600052604160045260246000fd5b601f821115611b8f57806000526020600020601f840160051c81016020851015611b6f5750805b601f840160051c820191505b81811015610b965760008155600101611b7b565b505050565b67ffffffffffffffff831115611bac57611bac611b32565b611bc083611bba8354611a08565b83611b48565b6000601f841160018114611bf45760008515611bdc5750838201355b600019600387901b1c1916600186901b178355610b96565b600083815260209020601f19861690835b82811015611c255786850135825560209485019460019092019101611c05565b5086821015611c425760001960f88860031b161c19848701351681555b505060018560011b0183555050505050565b634e487b7160e01b600052601160045260246000fd5b600060018201611c7c57611c7c611c54565b5060010190565b80820180821115610a0d57610a0d611c54565b81810381811115610a0d57610a0d611c54565b8082028115828204841417610a0d57610a0d611c54565b600082611cdd57634e487b7160e01b600052601260045260246000fd5b500490565b815167ffffffffffffffff811115611cfc57611cfc611b32565b611d1081611d0a8454611a08565b84611b48565b6020601f821160018114611d445760008315611d2c5750848201515b600019600385901b1c1916600184901b178455610b96565b600084815260208120601f198516915b82811015611d745787850151825560209485019460019092019101611d54565b5084821015611d925786840151600019600387901b60f8161c191681555b50505050600190811b0190555056fea2646970667358221220f93e170155a6f0bec5b2d6e610685f1198db60bec638a349ee6e1ef6d41cc57064736f6c634300081c0033",
  "linkReferences": {},
  "deployedLinkReferences": {},
  "immutableReferences": {},
  "inputSourceName": "project/src/contracts/AgentRegistry.sol",
  "buildInfoId": "solc-0_8_28-71bdb74f37453cf3b1e0c8aa5368e5ae83852c35"
}