{
  "_format": "hh3-artifact-1",
  "contractName": "DisputeResolver",
  "sourceName": "src/contracts/DisputeResolver.sol",
  "abi": [
    {
      "inputs": [
        {
          "internalType": "address",
          "name": "_usdc",
          "type": "address"
        },
        {
          "internalType": "address",
          "name": "_admin",
          "type": "address"
        },
        {
          "internalType": "address",
          "name": "_escrowVault",
          "type": "address"
        }
      ],
      "stateMutability": "nonpayable",
      "type": "constructor"
    },
    {
      "inputs": [
        {
          "internalType": "uint256",
          "name": "dealId",
          "type": "uint256"
        }
      ],
      "name": "DisputeAlreadyExists",
      "type": "error"
    },
    {
      "inputs": [
        {
          "internalType": "uint256",
          "name": "disputeId",
          "type": "uint256"
        }
      ],
      "name": "DisputeNotFound",
      "type": "error"
    },
    {
      "inputs": [
        {
          "internalType": "uint256",
          "name": "disputeId",
          "type": "uint256"
        },
        {
          "internalType": "enum DisputeStatus",
          "name": "current",
          "type": "uint8"
        }
      ],
      "name": "InvalidDisputeStatus",
      "type": "error"
    },
    {
      "inputs": [],
      "name": "InvalidRefundBps",
      "type": "error"
    },
    {
      "inputs": [
        {
          "internalType": "uint256",
          "name": "disputeId",
          "type": "uint256"
        }
      ],
      "name": "NotDisputeParty",
      "type": "error"
    },
    {
      "inputs": [
        {
          "internalType": "uint256",
          "name": "disputeId",
          "type": "uint256"
        }
      ],
      "name": "SupplierDeadlineNotReached",
      "type": "error"
    },
    {
      "anonymous": false,
      "inputs": [
        {
          "indexed": true,
          "internalType": "uint256",
          "name": "disputeId",
          "type": "uint256"
        }
      ],
      "name": "DisputeExpired",
      "type": "event"
    },
    {
      "anonymous": false,
      "inputs": [
        {
          "indexed": true,
          "internalType": "uint256",
          "name": "disputeId",
          "type": "uint256"
        },
        {
          "indexed": false,
          "internalType": "address",
          "name": "to",
          "type": "address"
        }
      ],
      "name": "DisputeFeeRefunded",
      "type": "event"
    },
    {
      "anonymous": false,
      "inputs": [
        {
          "indexed": true,
          "internalType": "uint256",
          "name": "disputeId",
          "type": "uint256"
        },
        {
          "indexed": true,
          "internalType": "uint256",
          "name": "dealId",
          "type": "uint256"
        },
        {
          "indexed": true,
          "internalType": "address",
          "name": "filedBy",
          "type": "address"
        }
      ],
      "name": "DisputeFiled",
      "type": "event"
    },
    {
      "anonymous": false,
      "inputs": [
        {
          "indexed": true,
          "internalType": "uint256",
          "name": "disputeId",
          "type": "uint256"
        },
        {
          "indexed": false,
          "internalType": "enum DisputeOutcome",
          "name": "outcome",
          "type": "uint8"
        },
        {
          "indexed": false,
          "internalType": "uint256",
          "name": "buyerRefundBps",
          "type": "uint256"
        }
      ],
      "name": "DisputeResolved",
      "type": "event"
    },
    {
      "anonymous": false,
      "inputs": [
        {
          "indexed": true,
          "internalType": "uint256",
          "name": "disputeId",
          "type": "uint256"
        },
        {
          "indexed": false,
          "internalType": "string",
          "name": "response",
          "type": "string"
        }
      ],
      "name": "SupplierResponded",
      "type": "event"
    },
    {
      "inputs": [],
      "name": "BPS_DENOMINATOR",
      "outputs": [
        {
          "internalType": "uint256",
          "name": "",
          "type": "uint256"
        }
      ],
      "stateMutability": "view",
      "type": "function"
    },
    {
      "inputs": [],
      "name": "DISPUTE_FEE",
      "outputs": [
        {
          "internalType": "uint256",
          "name": "",
          "type": "uint256"
        }
      ],
      "stateMutability": "view",
      "type": "function"
    },
    {
      "inputs": [],
      "name": "SUPPLIER_RESPONSE_PERIOD",
      "outputs": [
        {
          "internalType": "uint256",
          "name": "",
          "type": "uint256"
        }
      ],
      "stateMutability": "view",
      "type": "function"
    },
    {
      "inputs": [],
      "name": "acceptAdmin",
      "outputs": [],
      "stateMutability": "nonpayable",
      "type": "function"
    },
    {
      "inputs": [],
      "name": "admin",
      "outputs": [
        {
          "internalType": "address",
          "name": "",
          "type": "address"
        }
      ],
      "stateMutability": "view",
      "type": "function"
    },
    {
      "inputs": [
        {
          "internalType": "address",
          "name": "",
          "type": "address"
        }
      ],
      "name": "arbitrators",
      "outputs": [
        {
          "internalType": "bool",
          "name": "",
          "type": "bool"
        }
      ],
      "stateMutability": "view",
      "type": "function"
    },
    {
      "inputs": [
        {
          "internalType": "uint256",
          "name": "",
          "type": "uint256"
        }
      ],
      "name": "dealDisputeId",
      "outputs": [
        {
          "internalType": "uint256",
          "name": "",
          "type": "uint256"
        }
      ],
      "stateMutability": "view",
      "type": "function"
    },
    {
      "inputs": [
        {
          "internalType": "uint256",
          "name": "",
          "type": "uint256"
        }
      ],
      "name": "disputes",
      "outputs": [
        {
          "internalType": "uint256",
          "name": "disputeId",
          "type": "uint256"
        },
        {
          "internalType": "uint256",
          "name": "dealId",
          "type": "uint256"
        },
        {
          "internalType": "address",
          "name": "filedBy",
          "type": "address"
        },
        {
          "internalType": "string",
          "name": "reason",
          "type": "string"
        },
        {
          "internalType": "uint256",
          "name": "filedAt",
          "type": "uint256"
        },
        {
          "internalType": "uint256",
          "name": "supplierDeadline",
          "type": "uint256"
        },
        {
          "internalType": "enum DisputeStatus",
          "name": "status",
          "type": "uint8"
        },
        {
          "internalType": "enum DisputeOutcome",
          "name": "outcome",
          "type": "uint8"
        },
        {
          "internalType": "uint256",
          "name": "buyerRefundBps",
          "type": "uint256"
        }
      ],
      "stateMutability": "view",
      "type": "function"
    },
    {
      "inputs": [],
      "name": "escrowVault",
      "outputs": [
        {
          "internalType": "address",
          "name": "",
          "type": "address"
        }
      ],
      "stateMutability": "view",
      "type": "function"
    },
    {
      "inputs": [
        {
          "internalType": "uint256",
          "name": "disputeId",
          "type": "uint256"
        }
      ],
      "name": "expireDispute",
      "outputs": [],
      "stateMutability": "nonpayable",
      "type": "function"
    },
    {
      "inputs": [
        {
          "internalType": "uint256",
          "name": "",
          "type": "uint256"
        }
      ],
      "name": "feeDepositor",
      "outputs": [
        {
          "internalType": "address",
          "name": "",
          "type": "address"
        }
      ],
      "stateMutability": "view",
      "type": "function"
    },
    {
      "inputs": [
        {
          "internalType": "uint256",
          "name": "dealId",
          "type": "uint256"
        },
        {
          "internalType": "string",
          "name": "reason",
          "type": "string"
        }
      ],
      "name": "fileDispute",
      "outputs": [
        {
          "internalType": "uint256",
          "name": "disputeId",
          "type": "uint256"
        }
      ],
      "stateMutability": "nonpayable",
      "type": "function"
    },
    {
      "inputs": [
        {
          "internalType": "uint256",
          "name": "disputeId",
          "type": "uint256"
        }
      ],
      "name": "getDispute",
      "outputs": [
        {
          "components": [
            {
              "internalType": "uint256",
              "name": "disputeId",
              "type": "uint256"
            },
            {
              "internalType": "uint256",
              "name": "dealId",
              "type": "uint256"
            },
            {
              "internalType": "address",
              "name": "filedBy",
              "type": "address"
            },
            {
              "internalType": "string",
              "name": "reason",
              "type": "string"
            },
            {
              "internalType": "uint256",
              "name": "filedAt",
              "type": "uint256"
            },
            {
              "internalType": "uint256",
              "name": "supplierDeadline",
              "type": "uint256"
            },
            {
              "internalType": "enum DisputeStatus",
              "name": "status",
              "type": "uint8"
            },
            {
              "internalType": "enum DisputeOutcome",
              "name": "outcome",
              "type": "uint8"
            },
            {
              "internalType": "uint256",
              "name": "buyerRefundBps",
              "type": "uint256"
            }
          ],
          "internalType": "struct Dispute",
          "name": "",
          "type": "tuple"
        }
      ],
      "stateMutability": "view",
      "type": "function"
    },
    {
      "inputs": [
        {
          "internalType": "uint256",
          "name": "dealId",
          "type": "uint256"
        }
      ],
      "name": "getDisputeByDeal",
      "outputs": [
        {
          "components": [
            {
              "internalType": "uint256",
              "name": "disputeId",
              "type": "uint256"
            },
            {
              "internalType": "uint256",
              "name": "dealId",
              "type": "uint256"
            },
            {
              "internalType": "address",
              "name": "filedBy",
              "type": "address"
            },
            {
              "internalType": "string",
              "name": "reason",
              "type": "string"
            },
            {
              "internalType": "uint256",
              "name": "filedAt",
              "type": "uint256"
            },
            {
              "internalType": "uint256",
              "name": "supplierDeadline",
              "type": "uint256"
            },
            {
              "internalType": "enum DisputeStatus",
              "name": "status",
              "type": "uint8"
            },
            {
              "internalType": "enum DisputeOutcome",
              "name": "outcome",
              "type": "uint8"
            },
            {
              "internalType": "uint256",
              "name": "buyerRefundBps",
              "type": "uint256"
            }
          ],
          "internalType": "struct Dispute",
          "name": "",
          "type": "tuple"
        }
      ],
      "stateMutability": "view",
      "type": "function"
    },
    {
      "inputs": [
        {
          "internalType": "uint256",
          "name": "disputeId",
          "type": "uint256"
        }
      ],
      "name": "getSupplierResponse",
      "outputs": [
        {
          "internalType": "string",
          "name": "",
          "type": "string"
        }
      ],
      "stateMutability": "view",
      "type": "function"
    },
    {
      "inputs": [
        {
          "internalType": "uint256",
          "name": "disputeId",
          "type": "uint256"
        }
      ],
      "name": "isDisputeExpirable",
      "outputs": [
        {
          "internalType": "bool",
          "name": "",
          "type": "bool"
        }
      ],
      "stateMutability": "view",
      "type": "function"
    },
    {
      "inputs": [],
      "name": "nextDisputeId",
      "outputs": [
        {
          "internalType": "uint256",
          "name": "",
          "type": "uint256"
        }
      ],
      "stateMutability": "view",
      "type": "function"
    },
    {
      "inputs": [],
      "name": "pendingAdmin",
      "outputs": [
        {
          "internalType": "address",
          "name": "",
          "type": "address"
        }
      ],
      "stateMutability": "view",
      "type": "function"
    },
    {
      "inputs": [
        {
          "internalType": "uint256",
          "name": "disputeId",
          "type": "uint256"
        },
        {
          "internalType": "uint256",
          "name": "buyerRefundBps",
          "type": "uint256"
        }
      ],
      "name": "resolveDispute",
      "outputs": [],
      "stateMutability": "nonpayable",
      "type": "function"
    },
    {
      "inputs": [
        {
          "internalType": "address",
          "name": "arb",
          "type": "address"
        },
        {
          "internalType": "bool",
          "name": "authorized",
          "type": "bool"
        }
      ],
      "name": "setArbitrator",
      "outputs": [],
      "stateMutability": "nonpayable",
      "type": "function"
    },
    {
      "inputs": [
        {
          "internalType": "address",
          "name": "_vault",
          "type": "address"
        }
      ],
      "name": "setEscrowVault",
      "outputs": [],
      "stateMutability": "nonpayable",
      "type": "function"
    },
    {
      "inputs": [
        {
          "internalType": "uint256",
          "name": "disputeId",
          "type": "uint256"
        },
        {
          "internalType": "string",
          "name": "response",
          "type": "string"
        }
      ],
      "name": "supplierRespond",
      "outputs": [],
      "stateMutability": "nonpayable",
      "type": "function"
    },
    {
      "inputs": [
        {
          "internalType": "uint256",
          "name": "",
          "type": "uint256"
        }
      ],
      "name": "supplierResponses",
      "outputs": [
        {
          "internalType": "string",
          "name": "",
          "type": "string"
        }
      ],
      "stateMutability": "view",
      "type": "function"
    },
    {
      "inputs": [
        {
          "internalType": "address",
          "name": "newAdmin",
          "type": "address"
        }
      ],
      "name": "transferAdmin",
      "outputs": [],
      "stateMutability": "nonpayable",
      "type": "function"
    },
    {
      "inputs": [],
      "name": "usdc",
      "outputs": [
        {
          "internalType": "address",
          "name": "",
          "type": "address"
        }
      ],
      "stateMutability": "view",
      "type": "function"
    }
  ],
  "bytecode": "0x60a060405234801561001057600080fd5b506040516128d53803806128d583398101604081905261002f9161010a565b6001600160a01b0383161580159061004f57506001600160a01b03821615155b801561006357506001600160a01b03811615155b6100b35760405162461bcd60e51b815260206004820152601d60248201527f446973707574655265736f6c7665723a207a65726f2061646472657373000000604482015260640160405180910390fd5b6001600160a01b03928316608052600080549284166001600160a01b031993841617905560028054919093169116179055600160085561014d565b80516001600160a01b038116811461010557600080fd5b919050565b60008060006060848603121561011f57600080fd5b610128846100ee565b9250610136602085016100ee565b9150610144604085016100ee565b90509250925092565b60805161275861017d600039600081816102510152818161083d015281816112850152611ec301526127586000f3fe608060405234801561001057600080fd5b50600436106101a35760003560e01c8063608bd1ba116100ee578063c671bdec11610097578063e1a4521811610071578063e1a45218146103c3578063e3a96cbd146103cc578063ee1797fb146103df578063f851a440146103f257600080fd5b8063c671bdec14610393578063c728d730146103a6578063dc755e9d146103b957600080fd5b80638a2ae60b116100c85780638a2ae60b14610363578063bad708db14610376578063bdc84ac31461038057600080fd5b8063608bd1ba1461031457806375829def1461033d5780638243af1d1461035057600080fd5b80633e413bee1161015057806351d0ea371161012a57806351d0ea37146102a6578063564a565d146102d957806358c45b171461030157600080fd5b80633e413bee1461024c57806342443efd146102735780634a5a00a11461028657600080fd5b8063267822471161018157806326782247146101ee5780632bc0b076146102195780632c4b99b71461022c57600080fd5b80630db39934146101a85780630e18b681146101c45780630efaeed2146101ce575b600080fd5b6101b160085481565b6040519081526020015b60405180910390f35b6101cc610405565b005b6101b16101dc366004611f95565b60056020526000908152604090205481565b600154610201906001600160a01b031681565b6040516001600160a01b0390911681526020016101bb565b6101cc610227366004611fd4565b61048b565b61023f61023a366004611f95565b610566565b6040516101bb919061205d565b6102017f000000000000000000000000000000000000000000000000000000000000000081565b6101cc610281366004611f95565b610608565b610299610294366004611f95565b6108ee565b6040516101bb91906120aa565b6102c96102b436600461214a565b60036020526000908152604090205460ff1681565b60405190151581526020016101bb565b6102ec6102e7366004611f95565b610acd565b6040516101bb99989796959493929190612167565b6101cc61030f3660046121d4565b610bb0565b610201610322366004611f95565b6007602052600090815260409020546001600160a01b031681565b6101cc61034b36600461214a565b610e13565b6101b161035e3660046121d4565b610ee5565b600254610201906001600160a01b031681565b6101b162093a8081565b6101cc61038e366004612252565b6113e5565b6101cc6103a136600461214a565b61179b565b61023f6103b4366004611f95565b61186d565b6101b1624c4b4081565b6101b161271081565b6102996103da366004611f95565b611907565b6102c96103ed366004611f95565b611ab5565b600054610201906001600160a01b031681565b6001546001600160a01b031633146104645760405162461bcd60e51b815260206004820152601c60248201527f446973707574655265736f6c7665723a206e6f742070656e64696e670000000060448201526064015b60405180910390fd5b60018054600080546001600160a01b03199081166001600160a01b03841617909155169055565b6000546001600160a01b031633146104e55760405162461bcd60e51b815260206004820152601a60248201527f446973707574655265736f6c7665723a206e6f742061646d696e000000000000604482015260640161045b565b6001600160a01b03821661053b5760405162461bcd60e51b815260206004820152601d60248201527f446973707574655265736f6c7665723a207a65726f2061646472657373000000604482015260640161045b565b6001600160a01b03919091166000908152600360205260409020805460ff1916911515919091179055565b600081815260066020526040902080546060919061058390612274565b80601f01602080910402602001604051908101604052809291908181526020018280546105af90612274565b80156105fc5780601f106105d1576101008083540402835291602001916105fc565b820191906000526020600020905b8154815290600101906020018083116105df57829003601f168201915b50505050509050919050565b60095460ff1660010361065d5760405162461bcd60e51b815260206004820152601a60248201527f446973707574655265736f6c7665723a207265656e7472616e74000000000000604482015260640161045b565b6009805460ff1916600117905560008181526004602052604090206002015481906001600160a01b03166106a757604051634294e0f760e01b81526004810182905260240161045b565b60008281526004602052604090206001600682015460ff1660048111156106d0576106d0612070565b146106fb5760068101546040516374d341fd60e01b815261045b91859160ff909116906004016122ae565b806005015442116107225760405163d40b379360e01b81526004810184905260240161045b565b60068101805461ffff1916610104179055612710600782018190556002546001830154604051602481019190915260448101929092526000916001600160a01b039091169060640160408051601f198184030181529181526020820180516001600160e01b031663bdc84ac360e01b1790525161079f91906122c2565b6000604051808303816000865af19150503d80600081146107dc576040519150601f19603f3d011682016040523d82523d6000602084013e6107e1565b606091505b50509050806108325760405162461bcd60e51b815260206004820152601f60248201527f446973707574655265736f6c7665723a207265736f6c7665206661696c656400604482015260640161045b565b600282015461086f907f0000000000000000000000000000000000000000000000000000000000000000906001600160a01b0316624c4b40611af5565b60405184907f7f5ca1e18f0bde5ebe14e6196febc16e76e98fdf0bd7eb9672ea4012626278e990600090a260028201546040516001600160a01b03909116815284907f1cd34d6f40ae3ff505382ecdf922a8a144f8212afdbc3f44f69f5492a0bd221e9060200160405180910390a250506009805460ff191690555050565b6108f6611f2f565b600082815260056020526040812054908190036109615760405162461bcd60e51b8152602060048201526024808201527f446973707574655265736f6c7665723a206e6f206469737075746520666f72206044820152631919585b60e21b606482015260840161045b565b6000818152600460209081526040918290208251610120810184528154815260018201549281019290925260028101546001600160a01b0316928201929092526003820180549192916060840191906109b990612274565b80601f01602080910402602001604051908101604052809291908181526020018280546109e590612274565b8015610a325780601f10610a0757610100808354040283529160200191610a32565b820191906000526020600020905b815481529060010190602001808311610a1557829003601f168201915b5050509183525050600482810154602083015260058301546040830152600683015460609092019160ff1690811115610a6d57610a6d612070565b6004811115610a7e57610a7e612070565b81526020016006820160019054906101000a900460ff166003811115610aa657610aa6612070565b6003811115610ab757610ab7612070565b8152602001600782015481525050915050919050565b6004602052600090815260409020805460018201546002830154600384018054939492936001600160a01b039092169291610b0790612274565b80601f0160208091040260200160405190810160405280929190818152602001828054610b3390612274565b8015610b805780601f10610b5557610100808354040283529160200191610b80565b820191906000526020600020905b815481529060010190602001808311610b6357829003601f168201915b505050506004830154600584015460068501546007909501549394919390925060ff808316926101009004169089565b60008381526004602052604090206002015483906001600160a01b0316610bed57604051634294e0f760e01b81526004810182905260240161045b565b60008481526004602052604090206001600682015460ff166004811115610c1657610c16612070565b14610c415760068101546040516374d341fd60e01b815261045b91879160ff909116906004016122ae565b6002546001820154604051602481019190915260009182916001600160a01b039091169060440160408051601f198184030181529181526020820180516001600160e01b03166320bf56eb60e21b17905251610c9d91906122c2565b600060405180830381855afa9150503d8060008114610cd8576040519150601f19603f3d011682016040523d82523d6000602084013e610cdd565b606091505b509150915081610d2f5760405162461bcd60e51b815260206004820152601f60248201527f446973707574655265736f6c7665723a206765744465616c206661696c656400604482015260640161045b565b600081806020019051810190610d4591906123c8565b60608101519091506001600160a01b03163314610da45760405162461bcd60e51b815260206004820152601d60248201527f446973707574655265736f6c7665723a206e6f7420737570706c696572000000604482015260640161045b565b6006848101805460ff19166002179055600089815260209190915260409020610dce8789836124f4565b50877f9bc9440296cbf4d565b3af842fa15d2d360cff8c226a92f3fbc9f1e9841c35fb8888604051610e019291906125b4565b60405180910390a25050505050505050565b6000546001600160a01b03163314610e6d5760405162461bcd60e51b815260206004820152601a60248201527f446973707574655265736f6c7665723a206e6f742061646d696e000000000000604482015260640161045b565b6001600160a01b038116610ec35760405162461bcd60e51b815260206004820152601d60248201527f446973707574655265736f6c7665723a207a65726f2061646472657373000000604482015260640161045b565b600180546001600160a01b0319166001600160a01b0392909216919091179055565b60095460009060ff16600103610f3d5760405162461bcd60e51b815260206004820152601a60248201527f446973707574655265736f6c7665723a207265656e7472616e74000000000000604482015260640161045b565b6009805460ff1916600117905560008481526005602052604090205415610f7a5760405163b40fec2160e01b81526004810185905260240161045b565b6002546040516024810186905260009182916001600160a01b039091169060440160408051601f198184030181529181526020820180516001600160e01b03166320bf56eb60e21b17905251610fd091906122c2565b600060405180830381855afa9150503d806000811461100b576040519150601f19603f3d011682016040523d82523d6000602084013e611010565b606091505b5091509150816110625760405162461bcd60e51b815260206004820152601f60248201527f446973707574655265736f6c7665723a206765744465616c206661696c656400604482015260640161045b565b60008180602001905181019061107891906123c8565b60408101519091506001600160a01b031633146110d75760405162461bcd60e51b815260206004820152601a60248201527f446973707574655265736f6c7665723a206e6f74206275796572000000000000604482015260640161045b565b600880549060006110e7836125f9565b919050559350604051806101200160405280858152602001888152602001336001600160a01b0316815260200187878080601f01602080910402602001604051908101604052809392919081815260200183838082843760009201919091525050509082525042602082018190526040909101906111699062093a8090612612565b815260200160018152602001600081526000602091820181905286815260048252604090819020835181559183015160018301558201516002820180546001600160a01b0319166001600160a01b03909216919091179055606082015160038201906111d5908261262b565b506080820151816004015560a0820151816005015560c08201518160060160006101000a81548160ff0219169083600481111561121457611214612070565b021790555060e082015160068201805461ff00191661010083600381111561123e5761123e612070565b0217905550610100919091015160079182015560008881526005602090815260408083208890558783529290522080546001600160a01b031916339081179091556112af907f00000000000000000000000000000000000000000000000000000000000000009030624c4b40611c10565b600254604051602481018990526000916001600160a01b03169060440160408051601f198184030181529181526020820180516001600160e01b031663314b683560e01b1790525161130191906122c2565b6000604051808303816000865af19150503d806000811461133e576040519150601f19603f3d011682016040523d82523d6000602084013e611343565b606091505b50509050806113a05760405162461bcd60e51b8152602060048201526024808201527f446973707574655265736f6c7665723a206d61726b44697370757465642066616044820152631a5b195960e21b606482015260840161045b565b6040513390899087907f7564896c2ed6d0cc75ce75683a848b6607f1aaac8c0752dfa0bec85ca5c33dd990600090a450506009805460ff191690555090949350505050565b3360009081526003602052604090205460ff168061140d57506000546001600160a01b031633145b6114595760405162461bcd60e51b815260206004820152601f60248201527f446973707574655265736f6c7665723a206e6f742061726269747261746f7200604482015260640161045b565b60095460ff166001036114ae5760405162461bcd60e51b815260206004820152601a60248201527f446973707574655265736f6c7665723a207265656e7472616e74000000000000604482015260640161045b565b6009805460ff1916600117905560008281526004602052604090206002015482906001600160a01b03166114f857604051634294e0f760e01b81526004810182905260240161045b565b60008381526004602052604090206001600682015460ff16600481111561152157611521612070565b148061154557506002600682015460ff16600481111561154357611543612070565b145b6115915760405162461bcd60e51b815260206004820152601f60248201527f446973707574655265736f6c7665723a206e6f74207265736f6c7661626c6500604482015260640161045b565b6127108311156115b457604051631429e5a760e31b815260040160405180910390fd5b60068101805460ff191660031790556007810183905561270f1983016115f2576006810180546001919061ff001916610100835b0217905550611624565b82600003611612576006810180546002919061ff001916610100836115e8565b60068101805461ff0019166103001790555b60025460018201546040516000926001600160a01b031691611653918790602401918252602082015260400190565b60408051601f198184030181529181526020820180516001600160e01b031663bdc84ac360e01b1790525161168891906122c2565b6000604051808303816000865af19150503d80600081146116c5576040519150601f19603f3d011682016040523d82523d6000602084013e6116ca565b606091505b505090508061172a5760405162461bcd60e51b815260206004820152602660248201527f446973707574655265736f6c7665723a207265736f6c7665446973707574652060448201526519985a5b195960d21b606482015260840161045b565b6006820154611742908690610100900460ff16611d40565b600682015460405186917ff1ec8c5f40b1ecbe135bf063eabb3d0787f27bef26b6dcf944914a01d2de0b9e9161178291610100900460ff169088906126ea565b60405180910390a250506009805460ff19169055505050565b6000546001600160a01b031633146117f55760405162461bcd60e51b815260206004820152601a60248201527f446973707574655265736f6c7665723a206e6f742061646d696e000000000000604482015260640161045b565b6001600160a01b03811661184b5760405162461bcd60e51b815260206004820152601d60248201527f446973707574655265736f6c7665723a207a65726f2061646472657373000000604482015260640161045b565b600280546001600160a01b0319166001600160a01b0392909216919091179055565b6006602052600090815260409020805461188690612274565b80601f01602080910402602001604051908101604052809291908181526020018280546118b290612274565b80156118ff5780601f106118d4576101008083540402835291602001916118ff565b820191906000526020600020905b8154815290600101906020018083116118e257829003601f168201915b505050505081565b61190f611f2f565b6000828152600460205260409020600201546001600160a01b031661194a57604051634294e0f760e01b81526004810183905260240161045b565b6000828152600460209081526040918290208251610120810184528154815260018201549281019290925260028101546001600160a01b0316928201929092526003820180549192916060840191906119a290612274565b80601f01602080910402602001604051908101604052809291908181526020018280546119ce90612274565b8015611a1b5780601f106119f057610100808354040283529160200191611a1b565b820191906000526020600020905b8154815290600101906020018083116119fe57829003601f168201915b5050509183525050600482810154602083015260058301546040830152600683015460609092019160ff1690811115611a5657611a56612070565b6004811115611a6757611a67612070565b81526020016006820160019054906101000a900460ff166003811115611a8f57611a8f612070565b6003811115611aa057611aa0612070565b81526020016007820154815250509050919050565b60008181526004602052604081206001600682015460ff166004811115611ade57611ade612070565b148015611aee5750806005015442115b9392505050565b604080516001600160a01b038481166024830152604480830185905283518084039091018152606490920183526020820180516001600160e01b031663a9059cbb60e01b1790529151600092839290871691611b5191906122c2565b6000604051808303816000865af19150503d8060008114611b8e576040519150601f19603f3d011682016040523d82523d6000602084013e611b93565b606091505b5091509150818015611bbd575080511580611bbd575080806020019051810190611bbd9190612705565b611c095760405162461bcd60e51b815260206004820181905260248201527f446973707574655265736f6c7665723a207472616e73666572206661696c6564604482015260640161045b565b5050505050565b604080516001600160a01b0385811660248301528481166044830152606480830185905283518084039091018152608490920183526020820180516001600160e01b03166323b872dd60e01b1790529151600092839290881691611c7491906122c2565b6000604051808303816000865af19150503d8060008114611cb1576040519150601f19603f3d011682016040523d82523d6000602084013e611cb6565b606091505b5091509150818015611ce0575080511580611ce0575080806020019051810190611ce09190612705565b611d385760405162461bcd60e51b8152602060048201526024808201527f446973707574655265736f6c7665723a207472616e7366657246726f6d2066616044820152631a5b195960e21b606482015260840161045b565b505050505050565b60006001826003811115611d5657611d56612070565b03611d7c57506000828152600460205260409020600201546001600160a01b0316611ebe565b6002826003811115611d9057611d90612070565b03611eb957600254600084815260046020526040808220600101549051919283926001600160a01b0390911691611dcd9160240190815260200190565b60408051601f198184030181529181526020820180516001600160e01b03166320bf56eb60e21b17905251611e0291906122c2565b600060405180830381855afa9150503d8060008114611e3d576040519150601f19603f3d011682016040523d82523d6000602084013e611e42565b606091505b509150915081611e945760405162461bcd60e51b815260206004820152601f60248201527f446973707574655265736f6c7665723a206765744465616c206661696c656400604482015260640161045b565b600081806020019051810190611eaa91906123c8565b606001519350611ebe92505050565b505050565b611eec7f000000000000000000000000000000000000000000000000000000000000000082624c4b40611af5565b6040516001600160a01b038216815283907f1cd34d6f40ae3ff505382ecdf922a8a144f8212afdbc3f44f69f5492a0bd221e9060200160405180910390a2505050565b604051806101200160405280600081526020016000815260200160006001600160a01b0316815260200160608152602001600081526020016000815260200160006004811115611f8157611f81612070565b815260200160008152602001600081525090565b600060208284031215611fa757600080fd5b5035919050565b6001600160a01b0381168114611fc357600080fd5b50565b8015158114611fc357600080fd5b60008060408385031215611fe757600080fd5b8235611ff281611fae565b9150602083013561200281611fc6565b809150509250929050565b60005b83811015612028578181015183820152602001612010565b50506000910152565b6000815180845261204981602086016020860161200d565b601f01601f19169290920160200192915050565b602081526000611aee6020830184612031565b634e487b7160e01b600052602160045260246000fd5b6005811061209657612096612070565b9052565b6004811061209657612096612070565b602081528151602082015260208201516040820152600060408301516120db60608401826001600160a01b03169052565b50606083015161012060808401526120f7610140840182612031565b9050608084015160a084015260a084015160c084015260c084015161211f60e0850182612086565b5060e084015161213361010085018261209a565b506101008401516101208401528091505092915050565b60006020828403121561215c57600080fd5b8135611aee81611fae565b8981528860208201526001600160a01b038816604082015261012060608201526000612197610120830189612031565b90508660808301528560a08301526121b260c0830186612086565b6121bf60e083018561209a565b826101008301529a9950505050505050505050565b6000806000604084860312156121e957600080fd5b83359250602084013567ffffffffffffffff81111561220757600080fd5b8401601f8101861361221857600080fd5b803567ffffffffffffffff81111561222f57600080fd5b86602082840101111561224157600080fd5b939660209190910195509293505050565b6000806040838503121561226557600080fd5b50508035926020909101359150565b600181811c9082168061228857607f821691505b6020821081036122a857634e487b7160e01b600052602260045260246000fd5b50919050565b82815260408101611aee6020830184612086565b600082516122d481846020870161200d565b9190910192915050565b634e487b7160e01b600052604160045260246000fd5b604051610140810167ffffffffffffffff81118282101715612318576123186122de565b60405290565b805161232981611fae565b919050565b80516009811061232957600080fd5b600082601f83011261234e57600080fd5b815167ffffffffffffffff811115612368576123686122de565b604051601f8201601f19908116603f0116810167ffffffffffffffff81118282101715612397576123976122de565b6040528181528382016020018510156123af57600080fd5b6123c082602083016020870161200d565b949350505050565b6000602082840312156123da57600080fd5b815167ffffffffffffffff8111156123f157600080fd5b8201610140818503121561240457600080fd5b61240c6122f4565b81518152602080830151908201526124266040830161231e565b60408201526124376060830161231e565b60608201526080828101519082015260a0808301519082015260c0808301519082015260e08083015190820152612471610100830161232e565b61010082015261012082015167ffffffffffffffff81111561249257600080fd5b61249e8682850161233d565b61012083015250949350505050565b601f821115611eb957806000526020600020601f840160051c810160208510156124d45750805b601f840160051c820191505b81811015611c0957600081556001016124e0565b67ffffffffffffffff83111561250c5761250c6122de565b6125208361251a8354612274565b836124ad565b6000601f841160018114612554576000851561253c5750838201355b600019600387901b1c1916600186901b178355611c09565b600083815260209020601f19861690835b828110156125855786850135825560209485019460019092019101612565565b50868210156125a25760001960f88860031b161c19848701351681555b505060018560011b0183555050505050565b60208152816020820152818360408301376000818301604090810191909152601f909201601f19160101919050565b634e487b7160e01b600052601160045260246000fd5b60006001820161260b5761260b6125e3565b5060010190565b80820180821115612625576126256125e3565b92915050565b815167ffffffffffffffff811115612645576126456122de565b612659816126538454612274565b846124ad565b6020601f82116001811461268d57600083156126755750848201515b600019600385901b1c1916600184901b178455611c09565b600084815260208120601f198516915b828110156126bd578785015182556020948501946001909201910161269d565b50848210156126db5786840151600019600387901b60f8161c191681555b50505050600190811b01905550565b604081016126f8828561209a565b8260208301529392505050565b60006020828403121561271757600080fd5b8151611aee81611fc656fea264697066735822122080a0a2d8c035e2641ee27e90abad02a1bfcc5995547c33125d4b245fe05179c864736f6c634300081c0033",
  "linkReferences": {},
  "deployedLinkReferences": {},
  "immutableReferences": {
    "16": [
      {
        "length": 32,
        "start": 593
      },
      {
        "length": 32,
        "start": 2109
      },
      {
        "length": 32,
        "start": 4741
      },
      {
        "length": 32,
        "start": 7875
      }
    ]
  },
  "inputSourceName": "project/src/contracts/DisputeResolver.sol",
  "buildInfoId": "solc-0_8_28-51834aee145f717c81349ff8c7acf2186b2ecd74"
}