{"project/src/contracts/EscrowVault.sol":{"EscrowVault":{"abi":[{"inputs":[{"internalType":"address","name":"_usdc","type":"address"},{"internalType":"address","name":"_admin","type":"address"},{"internalType":"address","name":"_feeCollector","type":"address"}],"stateMutability":"nonpayable","type":"constructor"},{"inputs":[],"name":"DeadlineInPast","type":"error"},{"inputs":[{"internalType":"uint256","name":"dealId","type":"uint256"}],"name":"DealExpired","type":"error"},{"inputs":[{"internalType":"uint256","name":"dealId","type":"uint256"}],"name":"DealNotFound","type":"error"},{"inputs":[{"internalType":"uint256","name":"required","type":"uint256"},{"internalType":"uint256","name":"actual","type":"uint256"}],"name":"InsufficientAllowance","type":"error"},{"inputs":[{"internalType":"uint256","name":"dealId","type":"uint256"},{"internalType":"enum DealStatus","name":"current","type":"uint8"},{"internalType":"enum DealStatus","name":"expected","type":"uint8"}],"name":"InvalidDealStatus","type":"error"},{"inputs":[{"internalType":"uint256","name":"dealId","type":"uint256"}],"name":"OnlyBuyer","type":"error"},{"inputs":[],"name":"OnlyWorkflow","type":"error"},{"inputs":[],"name":"ZeroAddress","type":"error"},{"inputs":[],"name":"ZeroAmount","type":"error"},{"anonymous":false,"inputs":[{"indexed":true,"internalType":"uint256","name":"dealId","type":"uint256"}],"name":"DealCancelled","type":"event"},{"anonymous":false,"inputs":[{"indexed":true,"internalType":"uint256","name":"dealId","type":"uint256"}],"name":"DealConfirmed","type":"event"},{"anonymous":false,"inputs":[{"indexed":true,"internalType":"uint256","name":"dealId","type":"uint256"},{"indexed":true,"internalType":"uint256","name":"agentId","type":"uint256"},{"indexed":true,"internalType":"address","name":"buyer","type":"address"},{"indexed":false,"internalType":"address","name":"supplier","type":"address"},{"indexed":false,"internalType":"uint256","name":"amount","type":"uint256"}],"name":"DealCreated","type":"event"},{"anonymous":false,"inputs":[{"indexed":true,"internalType":"uint256","name":"dealId","type":"uint256"}],"name":"DealDelivered","type":"event"},{"anonymous":false,"inputs":[{"indexed":true,"internalType":"uint256","name":"dealId","type":"uint256"}],"name":"DealDisputed","type":"event"},{"anonymous":false,"inputs":[{"indexed":true,"internalType":"uint256","name":"dealId","type":"uint256"},{"indexed":false,"internalType":"address","name":"buyer","type":"address"},{"indexed":false,"internalType":"uint256","name":"amount","type":"uint256"}],"name":"DealRefunded","type":"event"},{"anonymous":false,"inputs":[{"indexed":true,"internalType":"uint256","name":"dealId","type":"uint256"}],"name":"DealShipped","type":"event"},{"anonymous":false,"inputs":[{"indexed":true,"internalType":"uint256","name":"dealId","type":"uint256"},{"indexed":false,"internalType":"address","name":"supplier","type":"address"},{"indexed":false,"internalType":"uint256","name":"supplierAmount","type":"uint256"},{"indexed":false,"internalType":"uint256","name":"feeAmount","type":"uint256"}],"name":"EscrowReleased","type":"event"},{"anonymous":false,"inputs":[{"indexed":true,"internalType":"uint256","name":"dealId","type":"uint256"},{"indexed":false,"internalType":"uint256","name":"premiumPaid","type":"uint256"}],"name":"ExpressSettlement","type":"event"},{"inputs":[],"name":"BPS_DENOMINATOR","outputs":[{"internalType":"uint256","name":"","type":"uint256"}],"stateMutability":"view","type":"function"},{"inputs":[],"name":"EXPRESS_PREMIUM_BPS","outputs":[{"internalType":"uint256","name":"","type":"uint256"}],"stateMutability":"view","type":"function"},{"inputs":[],"name":"MAX_DEAL_DURATION","outputs":[{"internalType":"uint256","name":"","type":"uint256"}],"stateMutability":"view","type":"function"},{"inputs":[],"name":"MIN_DEAL_AMOUNT","outputs":[{"internalType":"uint256","name":"","type":"uint256"}],"stateMutability":"view","type":"function"},{"inputs":[],"name":"PLATFORM_FEE_BPS","outputs":[{"internalType":"uint256","name":"","type":"uint256"}],"stateMutability":"view","type":"function"},{"inputs":[],"name":"acceptAdmin","outputs":[],"stateMutability":"nonpayable","type":"function"},{"inputs":[],"name":"accumulatedFees","outputs":[{"internalType":"uint256","name":"","type":"uint256"}],"stateMutability":"view","type":"function"},{"inputs":[],"name":"admin","outputs":[{"internalType":"address","name":"","type":"address"}],"stateMutability":"view","type":"function"},{"inputs":[{"internalType":"address","name":"","type":"address"}],"name":"authorizedWorkflows","outputs":[{"internalType":"bool","name":"","type":"bool"}],"stateMutability":"view","type":"function"},{"inputs":[{"internalType":"uint256","name":"amount","type":"uint256"}],"name":"calculateFee","outputs":[{"internalType":"uint256","name":"","type":"uint256"}],"stateMutability":"pure","type":"function"},{"inputs":[{"internalType":"uint256","name":"dealId","type":"uint256"}],"name":"cancelDeal","outputs":[],"stateMutability":"nonpayable","type":"function"},{"inputs":[{"internalType":"uint256","name":"dealId","type":"uint256"}],"name":"claimExpiredDeal","outputs":[],"stateMutability":"nonpayable","type":"function"},{"inputs":[{"internalType":"uint256","name":"dealId","type":"uint256"}],"name":"confirmDeal","outputs":[],"stateMutability":"nonpayable","type":"function"},{"inputs":[{"internalType":"uint256","name":"dealId","type":"uint256"}],"name":"confirmDelivery","outputs":[],"stateMutability":"nonpayable","type":"function"},{"inputs":[{"internalType":"uint256","name":"agentId","type":"uint256"},{"internalType":"address","name":"supplier","type":"address"},{"internalType":"uint256","name":"amount","type":"uint256"},{"internalType":"uint256","name":"deliveryDeadline","type":"uint256"},{"internalType":"string","name":"metadataURI","type":"string"}],"name":"createDeal","outputs":[{"internalType":"uint256","name":"dealId","type":"uint256"}],"stateMutability":"nonpayable","type":"function"},{"inputs":[{"internalType":"uint256","name":"","type":"uint256"}],"name":"deals","outputs":[{"internalType":"uint256","name":"dealId","type":"uint256"},{"internalType":"uint256","name":"agentId","type":"uint256"},{"internalType":"address","name":"buyer","type":"address"},{"internalType":"address","name":"supplier","type":"address"},{"internalType":"uint256","name":"amount","type":"uint256"},{"internalType":"uint256","name":"platformFee","type":"uint256"},{"internalType":"uint256","name":"createdAt","type":"uint256"},{"internalType":"uint256","name":"deliveryDeadline","type":"uint256"},{"internalType":"enum DealStatus","name":"status","type":"uint8"},{"internalType":"string","name":"metadataURI","type":"string"}],"stateMutability":"view","type":"function"},{"inputs":[],"name":"disputeResolver","outputs":[{"internalType":"address","name":"","type":"address"}],"stateMutability":"view","type":"function"},{"inputs":[{"internalType":"uint256","name":"dealId","type":"uint256"}],"name":"expressSettle","outputs":[],"stateMutability":"nonpayable","type":"function"},{"inputs":[],"name":"feeCollector","outputs":[{"internalType":"address","name":"","type":"address"}],"stateMutability":"view","type":"function"},{"inputs":[{"internalType":"uint256","name":"dealId","type":"uint256"}],"name":"getDeal","outputs":[{"components":[{"internalType":"uint256","name":"dealId","type":"uint256"},{"internalType":"uint256","name":"agentId","type":"uint256"},{"internalType":"address","name":"buyer","type":"address"},{"internalType":"address","name":"supplier","type":"address"},{"internalType":"uint256","name":"amount","type":"uint256"},{"internalType":"uint256","name":"platformFee","type":"uint256"},{"internalType":"uint256","name":"createdAt","type":"uint256"},{"internalType":"uint256","name":"deliveryDeadline","type":"uint256"},{"internalType":"enum DealStatus","name":"status","type":"uint8"},{"internalType":"string","name":"metadataURI","type":"string"}],"internalType":"struct Deal","name":"","type":"tuple"}],"stateMutability":"view","type":"function"},{"inputs":[{"internalType":"uint256","name":"dealId","type":"uint256"}],"name":"getDealStatus","outputs":[{"internalType":"enum DealStatus","name":"","type":"uint8"}],"stateMutability":"view","type":"function"},{"inputs":[{"internalType":"uint256","name":"dealId","type":"uint256"}],"name":"markDisputed","outputs":[],"stateMutability":"nonpayable","type":"function"},{"inputs":[{"internalType":"uint256","name":"dealId","type":"uint256"}],"name":"markShipped","outputs":[],"stateMutability":"nonpayable","type":"function"},{"inputs":[],"name":"nextDealId","outputs":[{"internalType":"uint256","name":"","type":"uint256"}],"stateMutability":"view","type":"function"},{"inputs":[],"name":"pendingAdmin","outputs":[{"internalType":"address","name":"","type":"address"}],"stateMutability":"view","type":"function"},{"inputs":[],"name":"purchaseOrderContract","outputs":[{"internalType":"address","name":"","type":"address"}],"stateMutability":"view","type":"function"},{"inputs":[{"internalType":"uint256","name":"dealId","type":"uint256"},{"internalType":"uint256","name":"buyerRefundBps","type":"uint256"}],"name":"resolveDispute","outputs":[],"stateMutability":"nonpayable","type":"function"},{"inputs":[{"internalType":"address","name":"workflow","type":"address"},{"internalType":"bool","name":"authorized","type":"bool"}],"name":"setAuthorizedWorkflow","outputs":[],"stateMutability":"nonpayable","type":"function"},{"inputs":[{"internalType":"address","name":"_resolver","type":"address"}],"name":"setDisputeResolver","outputs":[],"stateMutability":"nonpayable","type":"function"},{"inputs":[{"internalType":"address","name":"_feeCollector","type":"address"}],"name":"setFeeCollector","outputs":[],"stateMutability":"nonpayable","type":"function"},{"inputs":[{"internalType":"address","name":"_po","type":"address"}],"name":"setPurchaseOrderContract","outputs":[],"stateMutability":"nonpayable","type":"function"},{"inputs":[{"internalType":"address","name":"newAdmin","type":"address"}],"name":"transferAdmin","outputs":[],"stateMutability":"nonpayable","type":"function"},{"inputs":[],"name":"usdc","outputs":[{"internalType":"address","name":"","type":"address"}],"stateMutability":"view","type":"function"},{"inputs":[],"name":"withdrawFees","outputs":[],"stateMutability":"nonpayable","type":"function"}],"evm":{"bytecode":{"linkReferences":{},"object":"60a060405234801561001057600080fd5b5060405161273d38038061273d83398101604081905261002f916100fb565b6001600160a01b0383166100565760405163d92e233d60e01b815260040160405180910390fd5b6001600160a01b03821661007d5760405163d92e233d60e01b815260040160405180910390fd5b6001600160a01b0381166100a45760405163d92e233d60e01b815260040160405180910390fd5b6001600160a01b03928316608052600080549284166001600160a01b031993841617905560028054919093169116179055600160075561013e565b80516001600160a01b03811681146100f657600080fd5b919050565b60008060006060848603121561011057600080fd5b610119846100df565b9250610127602085016100df565b9150610135604085016100df565b90509250925092565b6080516125b361018a600039600081816102d7015281816108dd01528181610c4f01528181610dbd01528181611639015281816118fb0152818161193b0152611f0801526125b36000f3fe608060405234801561001057600080fd5b50600436106102065760003560e01c80636f7ab3811161011a578063bdc84ac3116100ad578063e1a452181161007c578063e1a4521814610485578063eed90d6b1461048e578063f5a3f4af146104a1578063f851a440146104b4578063fd84cb97146104c757600080fd5b8063bdc84ac314610419578063c415b95c1461042c578063c698f53b1461043f578063dc9417651461047257600080fd5b8063924e63f6116100e9578063924e63f6146103cd57806399a5d747146103e0578063a42dce80146103f3578063ab1a50a21461040657600080fd5b80636f7ab3811461035457806375829def1461038757806382fd5bac1461039a57806389fa505d146103ba57600080fd5b806331ea1a391161019d578063539aa77f1161016c578063539aa77f1461030a578063566f07da14610312578063587f5ed7146103255780635cb442bb1461032e57806360f692091461034157600080fd5b806331ea1a39146102bf5780633e413bee146102d2578063476343ee146102f95780634d9879e31461030157600080fd5b806325de8e81116101d957806325de8e811461026e57806326782247146102765780632c7f556a146102a1578063314b6835146102ac57600080fd5b8063015d0a871461020b57806303988f84146102285780630e18b6811461025157806313c41cb91461025b575b600080fd5b61021562ed4e0081565b6040519081526020015b60405180910390f35b61023b610236366004612003565b6104da565b60405161021f9a999897969594939291906120a4565b6102596105c9565b005b610215610269366004612136565b61064f565b610215603281565b600154610289906001600160a01b031681565b6040516001600160a01b03909116815260200161021f565b6102156302faf08081565b6102596102ba366004612003565b610961565b6102596102cd366004612003565b610b1b565b6102897f000000000000000000000000000000000000000000000000000000000000000081565b610259610cba565b61021560075481565b61021560fa81565b610259610320366004612003565b610df9565b61021560085481565b61025961033c366004612003565b610faf565b61025961034f3660046121d8565b6110b2565b6103776103623660046121d8565b60056020526000908152604090205460ff1681565b604051901515815260200161021f565b6102596103953660046121d8565b61114e565b6103ad6103a8366004612003565b6111ea565b60405161021f91906121fa565b600354610289906001600160a01b031681565b6102596103db3660046121d8565b611375565b6102156103ee366004612003565b611411565b6102596104013660046121d8565b611431565b610259610414366004612003565b6114cd565b6102596104273660046122a2565b6116c9565b600254610289906001600160a01b031681565b61046561044d366004612003565b60009081526006602052604090206008015460ff1690565b60405161021f91906122c4565b6102596104803660046122e3565b61197f565b61021561271081565b61025961049c366004612003565b611a24565b600454610289906001600160a01b031681565b600054610289906001600160a01b031681565b6102596104d5366004612003565b611b27565b60066020819052600091825260409091208054600182015460028301546003840154600485015460058601549686015460078701546008880154600989018054989a97996001600160a01b03978816999790961697949694959394929360ff909216926105469061231a565b80601f01602080910402602001604051908101604052809291908181526020018280546105729061231a565b80156105bf5780601f10610594576101008083540402835291602001916105bf565b820191906000526020600020905b8154815290600101906020018083116105a257829003601f168201915b505050505090508a565b6001546001600160a01b031633146106285760405162461bcd60e51b815260206004820152601e60248201527f457363726f775661756c743a206e6f742070656e64696e672061646d696e000060448201526064015b60405180910390fd5b60018054600080546001600160a01b03199081166001600160a01b03841617909155169055565b60095460009060ff166001036106955760405162461bcd60e51b815260206004820152601b602482015260008051602061255e833981519152604482015260640161061f565b6009805460ff191660011790556001600160a01b0386166106c95760405163d92e233d60e01b815260040160405180910390fd5b6302faf0808510156106ee57604051631f2a200560e01b815260040160405180910390fd5b42841161070e5760405163017d800b60e71b815260040160405180910390fd5b61071b62ed4e004261236a565b84111561073b5760405163017d800b60e71b815260040160405180910390fd5b600061271061074b60fa8861237d565b6107559190612394565b600780549192506000610767836123b6565b919050559150604051806101400160405280838152602001898152602001336001600160a01b03168152602001886001600160a01b03168152602001878152602001828152602001428152602001868152602001600160088111156107ce576107ce61201c565b815260200185858080601f0160208091040260200160405190810160405280939291908181526020018383808284376000920182905250939094525050848152600660208181526040928390208551815590850151600180830191909155928501516002820180546001600160a01b039283166001600160a01b03199182161790915560608701516003840180549190931691161790556080850151600482015560a0850151600582015560c08501519181019190915560e08401516007820155610100840151600880830180549395509193919260ff1916919084908111156108ba576108ba61201c565b021790555061012082015160098201906108d49082612431565b509050506109047f0000000000000000000000000000000000000000000000000000000000000000333089611c8d565b604080516001600160a01b03891681526020810188905233918a9185917f42bfc42602fa11f44c1027ca1f02776fff2d41ada9084da556ba41dcf89b0603910160405180910390a4506009805460ff191690559695505050505050565b6004546001600160a01b031633146109c55760405162461bcd60e51b815260206004820152602160248201527f457363726f775661756c743a206e6f742064697370757465207265736f6c76656044820152603960f91b606482015260840161061f565b60008181526006602052604090206002015481906001600160a01b0316610a025760405163cb58af1f60e01b81526004810182905260240161061f565b6000828152600660205260409020600260088083015460ff1690811115610a2b57610a2b61201c565b1480610a4f5750600360088083015460ff1690811115610a4d57610a4d61201c565b145b80610a805750600160088083015460ff1690811115610a7057610a7061201c565b148015610a805750806007015442115b610adc5760405162461bcd60e51b815260206004820152602760248201527f457363726f775661756c743a20696e76616c69642073746174757320666f72206044820152666469737075746560c81b606482015260840161061f565b60088101805460ff1916600617905560405183907f185c2a554eff32f49a7ef7387f4bef0dae9c130c84d0e28717ec3076a8dccf0690600090a2505050565b60095460ff16600103610b5e5760405162461bcd60e51b815260206004820152601b602482015260008051602061255e833981519152604482015260640161061f565b6009805460ff1916600117905560008181526006602052604090206002015481906001600160a01b0316610ba85760405163cb58af1f60e01b81526004810182905260240161061f565b600082815260066020526040902060028101546001600160a01b03163314610be6576040516311b797d960e11b81526004810184905260240161061f565b600160088083015460ff1690811115610c0157610c0161201c565b14610c2f576008810154604051633939b35960e21b815261061f91859160ff909116906001906004016124f0565b6008818101805460ff1916909117905560028101546004820154610c80917f0000000000000000000000000000000000000000000000000000000000000000916001600160a01b0390911690611db1565b60405183907f31b0c01e8429f81903c3f8adc204767b8efa7cfca91a00f3b4bb40ce63c8a20690600090a250506009805460ff1916905550565b60095460ff16600103610cfd5760405162461bcd60e51b815260206004820152601b602482015260008051602061255e833981519152604482015260640161061f565b6009805460ff19166001179055600054336001600160a01b0390911614610d5f5760405162461bcd60e51b815260206004820152601660248201527522b9b1b937bbab30bab63a1d103737ba1030b236b4b760511b604482015260640161061f565b60085480610daf5760405162461bcd60e51b815260206004820152601460248201527f457363726f775661756c743a206e6f2066656573000000000000000000000000604482015260640161061f565b6000600855600254610dec907f0000000000000000000000000000000000000000000000000000000000000000906001600160a01b031683611db1565b506009805460ff19169055565b60095460ff16600103610e3c5760405162461bcd60e51b815260206004820152601b602482015260008051602061255e833981519152604482015260640161061f565b6009805460ff1916600117905560008181526006602052604090206002015481906001600160a01b0316610e865760405163cb58af1f60e01b81526004810182905260240161061f565b600082815260066020526040902060028101546001600160a01b03163314610ec4576040516311b797d960e11b81526004810184905260240161061f565b600360088083015460ff1690811115610edf57610edf61201c565b14610f0d576008810154604051633939b35960e21b815261061f91859160ff909116906003906004016124f0565b600061271060328360040154610f23919061237d565b610f2d9190612394565b60088301805460ff19166005908117909155830180549192508291600090610f5690849061236a565b90915550610f65905082611ecc565b837f936db7c13e95c6aae657983ce0bf4b8e864968dd7b2a7fc4f1c5c2429d9bf99182604051610f9791815260200190565b60405180910390a250506009805460ff191690555050565b3360009081526005602052604090205460ff16610fdf5760405163765dbe9f60e01b815260040160405180910390fd5b60008181526006602052604090206002015481906001600160a01b031661101c5760405163cb58af1f60e01b81526004810182905260240161061f565b6000828152600660205260409020600160088083015460ff16908111156110455761104561201c565b14611073576008810154604051633939b35960e21b815261061f91859160ff909116906001906004016124f0565b60088101805460ff1916600217905560405183907f9df29a48d557958defdbeb91dda0116b443663f2a358ab8947609973c5a7b51c90600090a2505050565b6000546001600160a01b031633146111055760405162461bcd60e51b815260206004820152601660248201527522b9b1b937bbab30bab63a1d103737ba1030b236b4b760511b604482015260640161061f565b6001600160a01b03811661112c5760405163d92e233d60e01b815260040160405180910390fd5b600380546001600160a01b0319166001600160a01b0392909216919091179055565b6000546001600160a01b031633146111a15760405162461bcd60e51b815260206004820152601660248201527522b9b1b937bbab30bab63a1d103737ba1030b236b4b760511b604482015260640161061f565b6001600160a01b0381166111c85760405163d92e233d60e01b815260040160405180910390fd5b600180546001600160a01b0319166001600160a01b0392909216919091179055565b6111f2611f8d565b6000828152600660205260409020600201546001600160a01b031661122d5760405163cb58af1f60e01b81526004810183905260240161061f565b6000828152600660208181526040928390208351610140810185528154815260018201549281019290925260028101546001600160a01b03908116948301949094526003810154909316606082015260048301546080820152600583015460a08201529082015460c0820152600782015460e082015260088083015491929161010084019160ff909116908111156112c7576112c761201c565b60088111156112d8576112d861201c565b81526020016009820180546112ec9061231a565b80601f01602080910402602001604051908101604052809291908181526020018280546113189061231a565b80156113655780601f1061133a57610100808354040283529160200191611365565b820191906000526020600020905b81548152906001019060200180831161134857829003601f168201915b5050505050815250509050919050565b6000546001600160a01b031633146113c85760405162461bcd60e51b815260206004820152601660248201527522b9b1b937bbab30bab63a1d103737ba1030b236b4b760511b604482015260640161061f565b6001600160a01b0381166113ef5760405163d92e233d60e01b815260040160405180910390fd5b600480546001600160a01b0319166001600160a01b0392909216919091179055565b600061271061142160fa8461237d565b61142b9190612394565b92915050565b6000546001600160a01b031633146114845760405162461bcd60e51b815260206004820152601660248201527522b9b1b937bbab30bab63a1d103737ba1030b236b4b760511b604482015260640161061f565b6001600160a01b0381166114ab5760405163d92e233d60e01b815260040160405180910390fd5b600280546001600160a01b0319166001600160a01b0392909216919091179055565b60095460ff166001036115105760405162461bcd60e51b815260206004820152601b602482015260008051602061255e833981519152604482015260640161061f565b6009805460ff1916600117905560008181526006602052604090206002015481906001600160a01b031661155a5760405163cb58af1f60e01b81526004810182905260240161061f565b6000828152600660205260409020600160088083015460ff16908111156115835761158361201c565b14806115a75750600260088083015460ff16908111156115a5576115a561201c565b145b6115f35760405162461bcd60e51b815260206004820152601a60248201527f457363726f775661756c743a206e6f7420636c61696d61626c65000000000000604482015260640161061f565b8060070154421161161a5760405163121de49760e21b81526004810184905260240161061f565b60088101805460ff191660071790556002810154600482015461166a917f0000000000000000000000000000000000000000000000000000000000000000916001600160a01b0390911690611db1565b60028101546004820154604080516001600160a01b039093168352602083019190915284917f421ac64b0a0e649da74bb1528ebb1736572ec660f9aff6b354fd500e22c63418910160405180910390a250506009805460ff1916905550565b6004546001600160a01b0316331461172d5760405162461bcd60e51b815260206004820152602160248201527f457363726f775661756c743a206e6f742064697370757465207265736f6c76656044820152603960f91b606482015260840161061f565b60095460ff166001036117705760405162461bcd60e51b815260206004820152601b602482015260008051602061255e833981519152604482015260640161061f565b6009805460ff1916600117905560008281526006602052604090206002015482906001600160a01b03166117ba5760405163cb58af1f60e01b81526004810182905260240161061f565b60008381526006602081905260409091209060088083015460ff16908111156117e5576117e561201c565b14611813576008810154604051633939b35960e21b815261061f91869160ff909116906006906004016124f0565b6127108311156118655760405162461bcd60e51b815260206004820152601860248201527f457363726f775661756c743a20696e76616c6964206270730000000000000000604482015260640161061f565b60048101546005820154600061187b8284612511565b9050600061271061188c888461237d565b6118969190612394565b905060006118a48284612511565b905061271088036118c35760088601805460ff191660071790556118d3565b60088601805460ff191660051790555b83600860008282546118e5919061236a565b9091555050811561192a57600286015461192a907f0000000000000000000000000000000000000000000000000000000000000000906001600160a01b031684611db1565b801561196a57600386015461196a907f0000000000000000000000000000000000000000000000000000000000000000906001600160a01b031683611db1565b50506009805460ff1916905550505050505050565b6000546001600160a01b031633146119d25760405162461bcd60e51b815260206004820152601660248201527522b9b1b937bbab30bab63a1d103737ba1030b236b4b760511b604482015260640161061f565b6001600160a01b0382166119f95760405163d92e233d60e01b815260040160405180910390fd5b6001600160a01b03919091166000908152600560205260409020805460ff1916911515919091179055565b3360009081526005602052604090205460ff16611a545760405163765dbe9f60e01b815260040160405180910390fd5b60008181526006602052604090206002015481906001600160a01b0316611a915760405163cb58af1f60e01b81526004810182905260240161061f565b6000828152600660205260409020600260088083015460ff1690811115611aba57611aba61201c565b14611ae8576008810154604051633939b35960e21b815261061f91859160ff909116906002906004016124f0565b60088101805460ff1916600317905560405183907fc8a5eeaa874c7ee1b7d1ebe6945314ab290d711cd69acde68d5a0e554f5b179490600090a2505050565b3360009081526005602052604090205460ff16611b575760405163765dbe9f60e01b815260040160405180910390fd5b60095460ff16600103611b9a5760405162461bcd60e51b815260206004820152601b602482015260008051602061255e833981519152604482015260640161061f565b6009805460ff1916600117905560008181526006602052604090206002015481906001600160a01b0316611be45760405163cb58af1f60e01b81526004810182905260240161061f565b6000828152600660205260409020600360088083015460ff1690811115611c0d57611c0d61201c565b14611c3b576008810154604051633939b35960e21b815261061f91859160ff909116906003906004016124f0565b60088101805460ff19166005179055611c5381611ecc565b60405183907f68d22d76aed78ae83e6fd176100d4dc9ce13b2de5d9fac856b5945710b13e88390600090a250506009805460ff1916905550565b604080516001600160a01b0385811660248301528481166044830152606480830185905283518084039091018152608490920183526020820180516001600160e01b03166323b872dd60e01b1790529151600092839290881691611cf19190612524565b6000604051808303816000865af19150503d8060008114611d2e576040519150601f19603f3d011682016040523d82523d6000602084013e611d33565b606091505b5091509150818015611d5d575080511580611d5d575080806020019051810190611d5d9190612540565b611da95760405162461bcd60e51b815260206004820181905260248201527f457363726f775661756c743a207472616e7366657246726f6d206661696c6564604482015260640161061f565b505050505050565b604080516001600160a01b038481166024830152604480830185905283518084039091018152606490920183526020820180516001600160e01b031663a9059cbb60e01b1790529151600092839290871691611e0d9190612524565b6000604051808303816000865af19150503d8060008114611e4a576040519150601f19603f3d011682016040523d82523d6000602084013e611e4f565b606091505b5091509150818015611e79575080511580611e79575080806020019051810190611e799190612540565b611ec55760405162461bcd60e51b815260206004820152601c60248201527f457363726f775661756c743a207472616e73666572206661696c656400000000604482015260640161061f565b5050505050565b60058101546004820154600090611ee4908390612511565b90508160086000828254611ef8919061236a565b90915550506003830154611f37907f0000000000000000000000000000000000000000000000000000000000000000906001600160a01b031683611db1565b82546003840154604080516001600160a01b0390921682526020820184905281018490527f07dd78b97459a0754e75d3d53bbd26afd8a683f317c40b50eea07d05c49f966b9060600160405180910390a2505050565b604051806101400160405280600081526020016000815260200160006001600160a01b0316815260200160006001600160a01b031681526020016000815260200160008152602001600081526020016000815260200160006008811115611ff657611ff661201c565b8152602001606081525090565b60006020828403121561201557600080fd5b5035919050565b634e487b7160e01b600052602160045260246000fd5b6009811061205057634e487b7160e01b600052602160045260246000fd5b9052565b60005b8381101561206f578181015183820152602001612057565b50506000910152565b60008151808452612090816020860160208601612054565b601f01601f19169290920160200192915050565b8a81528960208201526001600160a01b03891660408201526001600160a01b03881660608201528660808201528560a08201528460c08201528360e08201526120f1610100820184612032565b610140610120820152600061210a610140830184612078565b9c9b505050505050505050505050565b80356001600160a01b038116811461213157600080fd5b919050565b60008060008060008060a0878903121561214f57600080fd5b8635955061215f6020880161211a565b94506040870135935060608701359250608087013567ffffffffffffffff81111561218957600080fd5b8701601f8101891361219a57600080fd5b803567ffffffffffffffff8111156121b157600080fd5b8960208284010111156121c357600080fd5b60208201935080925050509295509295509295565b6000602082840312156121ea57600080fd5b6121f38261211a565b9392505050565b6020815281516020820152602082015160408201526000604083015161222b60608401826001600160a01b03169052565b5060608301516001600160a01b038116608084015250608083015160a083015260a083015160c083015260c083015160e083015260e083015161010083015261010083015161227e610120840182612032565b506101208301516101408084015261229a610160840182612078565b949350505050565b600080604083850312156122b557600080fd5b50508035926020909101359150565b6020810161142b8284612032565b80151581146122e057600080fd5b50565b600080604083850312156122f657600080fd5b6122ff8361211a565b9150602083013561230f816122d2565b809150509250929050565b600181811c9082168061232e57607f821691505b60208210810361234e57634e487b7160e01b600052602260045260246000fd5b50919050565b634e487b7160e01b600052601160045260246000fd5b8082018082111561142b5761142b612354565b808202811582820484141761142b5761142b612354565b6000826123b157634e487b7160e01b600052601260045260246000fd5b500490565b6000600182016123c8576123c8612354565b5060010190565b634e487b7160e01b600052604160045260246000fd5b601f82111561242c57806000526020600020601f840160051c8101602085101561240c5750805b601f840160051c820191505b81811015611ec55760008155600101612418565b505050565b815167ffffffffffffffff81111561244b5761244b6123cf565b61245f81612459845461231a565b846123e5565b6020601f821160018114612493576000831561247b5750848201515b600019600385901b1c1916600184901b178455611ec5565b600084815260208120601f198516915b828110156124c357878501518255602094850194600190920191016124a3565b50848210156124e15786840151600019600387901b60f8161c191681555b50505050600190811b01905550565b838152606081016125046020830185612032565b61229a6040830184612032565b8181038181111561142b5761142b612354565b60008251612536818460208701612054565b9190910192915050565b60006020828403121561255257600080fd5b81516121f3816122d256fe457363726f775661756c743a207265656e7472616e742063616c6c0000000000a2646970667358221220f8ee28c01bb97feb7726ed10e62f08afc915cbaa7aa3eb3148d3a5f2f5ab8c7564736f6c634300081c0033","opcodes":"PUSH1 0xA0 PUSH1 0x40 MSTORE CALLVALUE DUP1 ISZERO PUSH2 0x10 JUMPI PUSH1 0x0 DUP1 REVERT JUMPDEST POP PUSH1 0x40 MLOAD PUSH2 0x273D CODESIZE SUB DUP1 PUSH2 0x273D DUP4 CODECOPY DUP2 ADD PUSH1 0x40 DUP2 SWAP1 MSTORE PUSH2 0x2F SWAP2 PUSH2 0xFB JUMP JUMPDEST PUSH1 0x1 PUSH1 0x1 PUSH1 0xA0 SHL SUB DUP4 AND PUSH2 0x56 JUMPI PUSH1 0x40 MLOAD PUSH4 0xD92E233D PUSH1 0xE0 SHL DUP2 MSTORE PUSH1 0x4 ADD PUSH1 0x40 MLOAD DUP1 SWAP2 SUB SWAP1 REVERT JUMPDEST PUSH1 0x1 PUSH1 0x1 PUSH1 0xA0 SHL SUB DUP3 AND PUSH2 0x7D JUMPI PUSH1 0x40 MLOAD PUSH4 0xD92E233D PUSH1 0xE0 SHL DUP2 MSTORE PUSH1 0x4 ADD PUSH1 0x40 MLOAD DUP1 SWAP2 SUB SWAP1 REVERT JUMPDEST PUSH1 0x1 PUSH1 0x1 PUSH1 0xA0 SHL SUB DUP2 AND PUSH2 0xA4 JUMPI PUSH1 0x40 MLOAD PUSH4 0xD92E233D PUSH1 0xE0 SHL DUP2 MSTORE PUSH1 0x4 ADD PUSH1 0x40 MLOAD DUP1 SWAP2 SUB SWAP1 REVERT JUMPDEST PUSH1 0x1 PUSH1 0x1 PUSH1 0xA0 SHL SUB SWAP3 DUP4 AND PUSH1 0x80 MSTORE PUSH1 0x0 DUP1 SLOAD SWAP3 DUP5 AND PUSH1 0x1 PUSH1 0x1 PUSH1 0xA0 SHL SUB NOT SWAP4 DUP5 AND OR SWAP1 SSTORE PUSH1 0x2 DUP1 SLOAD SWAP2 SWAP1 SWAP4 AND SWAP2 AND OR SWAP1 SSTORE PUSH1 0x1 PUSH1 0x7 SSTORE PUSH2 0x13E JUMP JUMPDEST DUP1 MLOAD PUSH1 0x1 PUSH1 0x1 PUSH1 0xA0 SHL SUB DUP2 AND DUP2 EQ PUSH2 0xF6 JUMPI PUSH1 0x0 DUP1 REVERT JUMPDEST SWAP2 SWAP1 POP JUMP JUMPDEST PUSH1 0x0 DUP1 PUSH1 0x0 PUSH1 0x60 DUP5 DUP7 SUB SLT ISZERO PUSH2 0x110 JUMPI PUSH1 0x0 DUP1 REVERT JUMPDEST PUSH2 0x119 DUP5 PUSH2 0xDF JUMP JUMPDEST SWAP3 POP PUSH2 0x127 PUSH1 0x20 DUP6 ADD PUSH2 0xDF JUMP JUMPDEST SWAP2 POP PUSH2 0x135 PUSH1 0x40 DUP6 ADD PUSH2 0xDF JUMP JUMPDEST SWAP1 POP SWAP3 POP SWAP3 POP SWAP3 JUMP JUMPDEST PUSH1 0x80 MLOAD PUSH2 0x25B3 PUSH2 0x18A PUSH1 0x0 CODECOPY PUSH1 0x0 DUP2 DUP2 PUSH2 0x2D7 ADD MSTORE DUP2 DUP2 PUSH2 0x8DD ADD MSTORE DUP2 DUP2 PUSH2 0xC4F ADD MSTORE DUP2 DUP2 PUSH2 0xDBD ADD MSTORE DUP2 DUP2 PUSH2 0x1639 ADD MSTORE DUP2 DUP2 PUSH2 0x18FB ADD MSTORE DUP2 DUP2 PUSH2 0x193B ADD MSTORE PUSH2 0x1F08 ADD MSTORE PUSH2 0x25B3 PUSH1 0x0 RETURN INVALID PUSH1 0x80 PUSH1 0x40 MSTORE CALLVALUE DUP1 ISZERO PUSH2 0x10 JUMPI PUSH1 0x0 DUP1 REVERT JUMPDEST POP PUSH1 0x4 CALLDATASIZE LT PUSH2 0x206 JUMPI PUSH1 0x0 CALLDATALOAD PUSH1 0xE0 SHR DUP1 PUSH4 0x6F7AB381 GT PUSH2 0x11A JUMPI DUP1 PUSH4 0xBDC84AC3 GT PUSH2 0xAD JUMPI DUP1 PUSH4 0xE1A45218 GT PUSH2 0x7C JUMPI DUP1 PUSH4 0xE1A45218 EQ PUSH2 0x485 JUMPI DUP1 PUSH4 0xEED90D6B EQ PUSH2 0x48E JUMPI DUP1 PUSH4 0xF5A3F4AF EQ PUSH2 0x4A1 JUMPI DUP1 PUSH4 0xF851A440 EQ PUSH2 0x4B4 JUMPI DUP1 PUSH4 0xFD84CB97 EQ PUSH2 0x4C7 JUMPI PUSH1 0x0 DUP1 REVERT JUMPDEST DUP1 PUSH4 0xBDC84AC3 EQ PUSH2 0x419 JUMPI DUP1 PUSH4 0xC415B95C EQ PUSH2 0x42C JUMPI DUP1 PUSH4 0xC698F53B EQ PUSH2 0x43F JUMPI DUP1 PUSH4 0xDC941765 EQ PUSH2 0x472 JUMPI PUSH1 0x0 DUP1 REVERT JUMPDEST DUP1 PUSH4 0x924E63F6 GT PUSH2 0xE9 JUMPI DUP1 PUSH4 0x924E63F6 EQ PUSH2 0x3CD JUMPI DUP1 PUSH4 0x99A5D747 EQ PUSH2 0x3E0 JUMPI DUP1 PUSH4 0xA42DCE80 EQ PUSH2 0x3F3 JUMPI DUP1 PUSH4 0xAB1A50A2 EQ PUSH2 0x406 JUMPI PUSH1 0x0 DUP1 REVERT JUMPDEST DUP1 PUSH4 0x6F7AB381 EQ PUSH2 0x354 JUMPI DUP1 PUSH4 0x75829DEF EQ PUSH2 0x387 JUMPI DUP1 PUSH4 0x82FD5BAC EQ PUSH2 0x39A JUMPI DUP1 PUSH4 0x89FA505D EQ PUSH2 0x3BA JUMPI PUSH1 0x0 DUP1 REVERT JUMPDEST DUP1 PUSH4 0x31EA1A39 GT PUSH2 0x19D JUMPI DUP1 PUSH4 0x539AA77F GT PUSH2 0x16C JUMPI DUP1 PUSH4 0x539AA77F EQ PUSH2 0x30A JUMPI DUP1 PUSH4 0x566F07DA EQ PUSH2 0x312 JUMPI DUP1 PUSH4 0x587F5ED7 EQ PUSH2 0x325 JUMPI DUP1 PUSH4 0x5CB442BB EQ PUSH2 0x32E JUMPI DUP1 PUSH4 0x60F69209 EQ PUSH2 0x341 JUMPI PUSH1 0x0 DUP1 REVERT JUMPDEST DUP1 PUSH4 0x31EA1A39 EQ PUSH2 0x2BF JUMPI DUP1 PUSH4 0x3E413BEE EQ PUSH2 0x2D2 JUMPI DUP1 PUSH4 0x476343EE EQ PUSH2 0x2F9 JUMPI DUP1 PUSH4 0x4D9879E3 EQ PUSH2 0x301 JUMPI PUSH1 0x0 DUP1 REVERT JUMPDEST DUP1 PUSH4 0x25DE8E81 GT PUSH2 0x1D9 JUMPI DUP1 PUSH4 0x25DE8E81 EQ PUSH2 0x26E JUMPI DUP1 PUSH4 0x26782247 EQ PUSH2 0x276 JUMPI DUP1 PUSH4 0x2C7F556A EQ PUSH2 0x2A1 JUMPI DUP1 PUSH4 0x314B6835 EQ PUSH2 0x2AC JUMPI PUSH1 0x0 DUP1 REVERT JUMPDEST DUP1 PUSH4 0x15D0A87 EQ PUSH2 0x20B JUMPI DUP1 PUSH4 0x3988F84 EQ PUSH2 0x228 JUMPI DUP1 PUSH4 0xE18B681 EQ PUSH2 0x251 JUMPI DUP1 PUSH4 0x13C41CB9 EQ PUSH2 0x25B JUMPI JUMPDEST PUSH1 0x0 DUP1 REVERT JUMPDEST PUSH2 0x215 PUSH3 0xED4E00 DUP2 JUMP JUMPDEST PUSH1 0x40 MLOAD SWAP1 DUP2 MSTORE PUSH1 0x20 ADD JUMPDEST PUSH1 0x40 MLOAD DUP1 SWAP2 SUB SWAP1 RETURN JUMPDEST PUSH2 0x23B PUSH2 0x236 CALLDATASIZE PUSH1 0x4 PUSH2 0x2003 JUMP JUMPDEST PUSH2 0x4DA JUMP JUMPDEST PUSH1 0x40 MLOAD PUSH2 0x21F SWAP11 SWAP10 SWAP9 SWAP8 SWAP7 SWAP6 SWAP5 SWAP4 SWAP3 SWAP2 SWAP1 PUSH2 0x20A4 JUMP JUMPDEST PUSH2 0x259 PUSH2 0x5C9 JUMP JUMPDEST STOP JUMPDEST PUSH2 0x215 PUSH2 0x269 CALLDATASIZE PUSH1 0x4 PUSH2 0x2136 JUMP JUMPDEST PUSH2 0x64F JUMP JUMPDEST PUSH2 0x215 PUSH1 0x32 DUP2 JUMP JUMPDEST PUSH1 0x1 SLOAD PUSH2 0x289 SWAP1 PUSH1 0x1 PUSH1 0x1 PUSH1 0xA0 SHL SUB AND DUP2 JUMP JUMPDEST PUSH1 0x40 MLOAD PUSH1 0x1 PUSH1 0x1 PUSH1 0xA0 SHL SUB SWAP1 SWAP2 AND DUP2 MSTORE PUSH1 0x20 ADD PUSH2 0x21F JUMP JUMPDEST PUSH2 0x215 PUSH4 0x2FAF080 DUP2 JUMP JUMPDEST PUSH2 0x259 PUSH2 0x2BA CALLDATASIZE PUSH1 0x4 PUSH2 0x2003 JUMP JUMPDEST PUSH2 0x961 JUMP JUMPDEST PUSH2 0x259 PUSH2 0x2CD CALLDATASIZE PUSH1 0x4 PUSH2 0x2003 JUMP JUMPDEST PUSH2 0xB1B JUMP JUMPDEST PUSH2 0x289 PUSH32 0x0 DUP2 JUMP JUMPDEST PUSH2 0x259 PUSH2 0xCBA JUMP JUMPDEST PUSH2 0x215 PUSH1 0x7 SLOAD DUP2 JUMP JUMPDEST PUSH2 0x215 PUSH1 0xFA DUP2 JUMP JUMPDEST PUSH2 0x259 PUSH2 0x320 CALLDATASIZE PUSH1 0x4 PUSH2 0x2003 JUMP JUMPDEST PUSH2 0xDF9 JUMP JUMPDEST PUSH2 0x215 PUSH1 0x8 SLOAD DUP2 JUMP JUMPDEST PUSH2 0x259 PUSH2 0x33C CALLDATASIZE PUSH1 0x4 PUSH2 0x2003 JUMP JUMPDEST PUSH2 0xFAF JUMP JUMPDEST PUSH2 0x259 PUSH2 0x34F CALLDATASIZE PUSH1 0x4 PUSH2 0x21D8 JUMP JUMPDEST PUSH2 0x10B2 JUMP JUMPDEST PUSH2 0x377 PUSH2 0x362 CALLDATASIZE PUSH1 0x4 PUSH2 0x21D8 JUMP JUMPDEST PUSH1 0x5 PUSH1 0x20 MSTORE PUSH1 0x0 SWAP1 DUP2 MSTORE PUSH1 0x40 SWAP1 KECCAK256 SLOAD PUSH1 0xFF AND DUP2 JUMP JUMPDEST PUSH1 0x40 MLOAD SWAP1 ISZERO ISZERO DUP2 MSTORE PUSH1 0x20 ADD PUSH2 0x21F JUMP JUMPDEST PUSH2 0x259 PUSH2 0x395 CALLDATASIZE PUSH1 0x4 PUSH2 0x21D8 JUMP JUMPDEST PUSH2 0x114E JUMP JUMPDEST PUSH2 0x3AD PUSH2 0x3A8 CALLDATASIZE PUSH1 0x4 PUSH2 0x2003 JUMP JUMPDEST PUSH2 0x11EA JUMP JUMPDEST PUSH1 0x40 MLOAD PUSH2 0x21F SWAP2 SWAP1 PUSH2 0x21FA JUMP JUMPDEST PUSH1 0x3 SLOAD PUSH2 0x289 SWAP1 PUSH1 0x1 PUSH1 0x1 PUSH1 0xA0 SHL SUB AND DUP2 JUMP JUMPDEST PUSH2 0x259 PUSH2 0x3DB CALLDATASIZE PUSH1 0x4 PUSH2 0x21D8 JUMP JUMPDEST PUSH2 0x1375 JUMP JUMPDEST PUSH2 0x215 PUSH2 0x3EE CALLDATASIZE PUSH1 0x4 PUSH2 0x2003 JUMP JUMPDEST PUSH2 0x1411 JUMP JUMPDEST PUSH2 0x259 PUSH2 0x401 CALLDATASIZE PUSH1 0x4 PUSH2 0x21D8 JUMP JUMPDEST PUSH2 0x1431 JUMP JUMPDEST PUSH2 0x259 PUSH2 0x414 CALLDATASIZE PUSH1 0x4 PUSH2 0x2003 JUMP JUMPDEST PUSH2 0x14CD JUMP JUMPDEST PUSH2 0x259 PUSH2 0x427 CALLDATASIZE PUSH1 0x4 PUSH2 0x22A2 JUMP JUMPDEST PUSH2 0x16C9 JUMP JUMPDEST PUSH1 0x2 SLOAD PUSH2 0x289 SWAP1 PUSH1 0x1 PUSH1 0x1 PUSH1 0xA0 SHL SUB AND DUP2 JUMP JUMPDEST PUSH2 0x465 PUSH2 0x44D CALLDATASIZE PUSH1 0x4 PUSH2 0x2003 JUMP JUMPDEST PUSH1 0x0 SWAP1 DUP2 MSTORE PUSH1 0x6 PUSH1 0x20 MSTORE PUSH1 0x40 SWAP1 KECCAK256 PUSH1 0x8 ADD SLOAD PUSH1 0xFF AND SWAP1 JUMP JUMPDEST PUSH1 0x40 MLOAD PUSH2 0x21F SWAP2 SWAP1 PUSH2 0x22C4 JUMP JUMPDEST PUSH2 0x259 PUSH2 0x480 CALLDATASIZE PUSH1 0x4 PUSH2 0x22E3 JUMP JUMPDEST PUSH2 0x197F JUMP JUMPDEST PUSH2 0x215 PUSH2 0x2710 DUP2 JUMP JUMPDEST PUSH2 0x259 PUSH2 0x49C CALLDATASIZE PUSH1 0x4 PUSH2 0x2003 JUMP JUMPDEST PUSH2 0x1A24 JUMP JUMPDEST PUSH1 0x4 SLOAD PUSH2 0x289 SWAP1 PUSH1 0x1 PUSH1 0x1 PUSH1 0xA0 SHL SUB AND DUP2 JUMP JUMPDEST PUSH1 0x0 SLOAD PUSH2 0x289 SWAP1 PUSH1 0x1 PUSH1 0x1 PUSH1 0xA0 SHL SUB AND DUP2 JUMP JUMPDEST PUSH2 0x259 PUSH2 0x4D5 CALLDATASIZE PUSH1 0x4 PUSH2 0x2003 JUMP JUMPDEST PUSH2 0x1B27 JUMP JUMPDEST PUSH1 0x6 PUSH1 0x20 DUP2 SWAP1 MSTORE PUSH1 0x0 SWAP2 DUP3 MSTORE PUSH1 0x40 SWAP1 SWAP2 KECCAK256 DUP1 SLOAD PUSH1 0x1 DUP3 ADD SLOAD PUSH1 0x2 DUP4 ADD SLOAD PUSH1 0x3 DUP5 ADD SLOAD PUSH1 0x4 DUP6 ADD SLOAD PUSH1 0x5 DUP7 ADD SLOAD SWAP7 DUP7 ADD SLOAD PUSH1 0x7 DUP8 ADD SLOAD PUSH1 0x8 DUP9 ADD SLOAD PUSH1 0x9 DUP10 ADD DUP1 SLOAD SWAP9 SWAP11 SWAP8 SWAP10 PUSH1 0x1 PUSH1 0x1 PUSH1 0xA0 SHL SUB SWAP8 DUP9 AND SWAP10 SWAP8 SWAP1 SWAP7 AND SWAP8 SWAP5 SWAP7 SWAP5 SWAP6 SWAP4 SWAP5 SWAP3 SWAP4 PUSH1 0xFF SWAP1 SWAP3 AND SWAP3 PUSH2 0x546 SWAP1 PUSH2 0x231A JUMP JUMPDEST DUP1 PUSH1 0x1F ADD PUSH1 0x20 DUP1 SWAP2 DIV MUL PUSH1 0x20 ADD PUSH1 0x40 MLOAD SWAP1 DUP2 ADD PUSH1 0x40 MSTORE DUP1 SWAP3 SWAP2 SWAP1 DUP2 DUP2 MSTORE PUSH1 0x20 ADD DUP3 DUP1 SLOAD PUSH2 0x572 SWAP1 PUSH2 0x231A JUMP JUMPDEST DUP1 ISZERO PUSH2 0x5BF JUMPI DUP1 PUSH1 0x1F LT PUSH2 0x594 JUMPI PUSH2 0x100 DUP1 DUP4 SLOAD DIV MUL DUP4 MSTORE SWAP2 PUSH1 0x20 ADD SWAP2 PUSH2 0x5BF JUMP JUMPDEST DUP3 ADD SWAP2 SWAP1 PUSH1 0x0 MSTORE PUSH1 0x20 PUSH1 0x0 KECCAK256 SWAP1 JUMPDEST DUP2 SLOAD DUP2 MSTORE SWAP1 PUSH1 0x1 ADD SWAP1 PUSH1 0x20 ADD DUP1 DUP4 GT PUSH2 0x5A2 JUMPI DUP3 SWAP1 SUB PUSH1 0x1F AND DUP3 ADD SWAP2 JUMPDEST POP POP POP POP POP SWAP1 POP DUP11 JUMP JUMPDEST PUSH1 0x1 SLOAD PUSH1 0x1 PUSH1 0x1 PUSH1 0xA0 SHL SUB AND CALLER EQ PUSH2 0x628 JUMPI PUSH1 0x40 MLOAD PUSH3 0x461BCD PUSH1 0xE5 SHL DUP2 MSTORE PUSH1 0x20 PUSH1 0x4 DUP3 ADD MSTORE PUSH1 0x1E PUSH1 0x24 DUP3 ADD MSTORE PUSH32 0x457363726F775661756C743A206E6F742070656E64696E672061646D696E0000 PUSH1 0x44 DUP3 ADD MSTORE PUSH1 0x64 ADD JUMPDEST PUSH1 0x40 MLOAD DUP1 SWAP2 SUB SWAP1 REVERT JUMPDEST PUSH1 0x1 DUP1 SLOAD PUSH1 0x0 DUP1 SLOAD PUSH1 0x1 PUSH1 0x1 PUSH1 0xA0 SHL SUB NOT SWAP1 DUP2 AND PUSH1 0x1 PUSH1 0x1 PUSH1 0xA0 SHL SUB DUP5 AND OR SWAP1 SWAP2 SSTORE AND SWAP1 SSTORE JUMP JUMPDEST PUSH1 0x9 SLOAD PUSH1 0x0 SWAP1 PUSH1 0xFF AND PUSH1 0x1 SUB PUSH2 0x695 JUMPI PUSH1 0x40 MLOAD PUSH3 0x461BCD PUSH1 0xE5 SHL DUP2 MSTORE PUSH1 0x20 PUSH1 0x4 DUP3 ADD MSTORE PUSH1 0x1B PUSH1 0x24 DUP3 ADD MSTORE PUSH1 0x0 DUP1 MLOAD PUSH1 0x20 PUSH2 0x255E DUP4 CODECOPY DUP2 MLOAD SWAP2 MSTORE PUSH1 0x44 DUP3 ADD MSTORE PUSH1 0x64 ADD PUSH2 0x61F JUMP JUMPDEST PUSH1 0x9 DUP1 SLOAD PUSH1 0xFF NOT AND PUSH1 0x1 OR SWAP1 SSTORE PUSH1 0x1 PUSH1 0x1 PUSH1 0xA0 SHL SUB DUP7 AND PUSH2 0x6C9 JUMPI PUSH1 0x40 MLOAD PUSH4 0xD92E233D PUSH1 0xE0 SHL DUP2 MSTORE PUSH1 0x4 ADD PUSH1 0x40 MLOAD DUP1 SWAP2 SUB SWAP1 REVERT JUMPDEST PUSH4 0x2FAF080 DUP6 LT ISZERO PUSH2 0x6EE JUMPI PUSH1 0x40 MLOAD PUSH4 0x1F2A2005 PUSH1 0xE0 SHL DUP2 MSTORE PUSH1 0x4 ADD PUSH1 0x40 MLOAD DUP1 SWAP2 SUB SWAP1 REVERT JUMPDEST TIMESTAMP DUP5 GT PUSH2 0x70E JUMPI PUSH1 0x40 MLOAD PUSH4 0x17D800B PUSH1 0xE7 SHL DUP2 MSTORE PUSH1 0x4 ADD PUSH1 0x40 MLOAD DUP1 SWAP2 SUB SWAP1 REVERT JUMPDEST PUSH2 0x71B PUSH3 0xED4E00 TIMESTAMP PUSH2 0x236A JUMP JUMPDEST DUP5 GT ISZERO PUSH2 0x73B JUMPI PUSH1 0x40 MLOAD PUSH4 0x17D800B PUSH1 0xE7 SHL DUP2 MSTORE PUSH1 0x4 ADD PUSH1 0x40 MLOAD DUP1 SWAP2 SUB SWAP1 REVERT JUMPDEST PUSH1 0x0 PUSH2 0x2710 PUSH2 0x74B PUSH1 0xFA DUP9 PUSH2 0x237D JUMP JUMPDEST PUSH2 0x755 SWAP2 SWAP1 PUSH2 0x2394 JUMP JUMPDEST PUSH1 0x7 DUP1 SLOAD SWAP2 SWAP3 POP PUSH1 0x0 PUSH2 0x767 DUP4 PUSH2 0x23B6 JUMP JUMPDEST SWAP2 SWAP1 POP SSTORE SWAP2 POP PUSH1 0x40 MLOAD DUP1 PUSH2 0x140 ADD PUSH1 0x40 MSTORE DUP1 DUP4 DUP2 MSTORE PUSH1 0x20 ADD DUP10 DUP2 MSTORE PUSH1 0x20 ADD CALLER PUSH1 0x1 PUSH1 0x1 PUSH1 0xA0 SHL SUB AND DUP2 MSTORE PUSH1 0x20 ADD DUP9 PUSH1 0x1 PUSH1 0x1 PUSH1 0xA0 SHL SUB AND DUP2 MSTORE PUSH1 0x20 ADD DUP8 DUP2 MSTORE PUSH1 0x20 ADD DUP3 DUP2 MSTORE PUSH1 0x20 ADD TIMESTAMP DUP2 MSTORE PUSH1 0x20 ADD DUP7 DUP2 MSTORE PUSH1 0x20 ADD PUSH1 0x1 PUSH1 0x8 DUP2 GT ISZERO PUSH2 0x7CE JUMPI PUSH2 0x7CE PUSH2 0x201C JUMP JUMPDEST DUP2 MSTORE PUSH1 0x20 ADD DUP6 DUP6 DUP1 DUP1 PUSH1 0x1F ADD PUSH1 0x20 DUP1 SWAP2 DIV MUL PUSH1 0x20 ADD PUSH1 0x40 MLOAD SWAP1 DUP2 ADD PUSH1 0x40 MSTORE DUP1 SWAP4 SWAP3 SWAP2 SWAP1 DUP2 DUP2 MSTORE PUSH1 0x20 ADD DUP4 DUP4 DUP1 DUP3 DUP5 CALLDATACOPY PUSH1 0x0 SWAP3 ADD DUP3 SWAP1 MSTORE POP SWAP4 SWAP1 SWAP5 MSTORE POP POP DUP5 DUP2 MSTORE PUSH1 0x6 PUSH1 0x20 DUP2 DUP2 MSTORE PUSH1 0x40 SWAP3 DUP4 SWAP1 KECCAK256 DUP6 MLOAD DUP2 SSTORE SWAP1 DUP6 ADD MLOAD PUSH1 0x1 DUP1 DUP4 ADD SWAP2 SWAP1 SWAP2 SSTORE SWAP3 DUP6 ADD MLOAD PUSH1 0x2 DUP3 ADD DUP1 SLOAD PUSH1 0x1 PUSH1 0x1 PUSH1 0xA0 SHL SUB SWAP3 DUP4 AND PUSH1 0x1 PUSH1 0x1 PUSH1 0xA0 SHL SUB NOT SWAP2 DUP3 AND OR SWAP1 SWAP2 SSTORE PUSH1 0x60 DUP8 ADD MLOAD PUSH1 0x3 DUP5 ADD DUP1 SLOAD SWAP2 SWAP1 SWAP4 AND SWAP2 AND OR SWAP1 SSTORE PUSH1 0x80 DUP6 ADD MLOAD PUSH1 0x4 DUP3 ADD SSTORE PUSH1 0xA0 DUP6 ADD MLOAD PUSH1 0x5 DUP3 ADD SSTORE PUSH1 0xC0 DUP6 ADD MLOAD SWAP2 DUP2 ADD SWAP2 SWAP1 SWAP2 SSTORE PUSH1 0xE0 DUP5 ADD MLOAD PUSH1 0x7 DUP3 ADD SSTORE PUSH2 0x100 DUP5 ADD MLOAD PUSH1 0x8 DUP1 DUP4 ADD DUP1 SLOAD SWAP4 SWAP6 POP SWAP2 SWAP4 SWAP2 SWAP3 PUSH1 0xFF NOT AND SWAP2 SWAP1 DUP5 SWAP1 DUP2 GT ISZERO PUSH2 0x8BA JUMPI PUSH2 0x8BA PUSH2 0x201C JUMP JUMPDEST MUL OR SWAP1 SSTORE POP PUSH2 0x120 DUP3 ADD MLOAD PUSH1 0x9 DUP3 ADD SWAP1 PUSH2 0x8D4 SWAP1 DUP3 PUSH2 0x2431 JUMP JUMPDEST POP SWAP1 POP POP PUSH2 0x904 PUSH32 0x0 CALLER ADDRESS DUP10 PUSH2 0x1C8D JUMP JUMPDEST PUSH1 0x40 DUP1 MLOAD PUSH1 0x1 PUSH1 0x1 PUSH1 0xA0 SHL SUB DUP10 AND DUP2 MSTORE PUSH1 0x20 DUP2 ADD DUP9 SWAP1 MSTORE CALLER SWAP2 DUP11 SWAP2 DUP6 SWAP2 PUSH32 0x42BFC42602FA11F44C1027CA1F02776FFF2D41ADA9084DA556BA41DCF89B0603 SWAP2 ADD PUSH1 0x40 MLOAD DUP1 SWAP2 SUB SWAP1 LOG4 POP PUSH1 0x9 DUP1 SLOAD PUSH1 0xFF NOT AND SWAP1 SSTORE SWAP7 SWAP6 POP POP POP POP POP POP JUMP JUMPDEST PUSH1 0x4 SLOAD PUSH1 0x1 PUSH1 0x1 PUSH1 0xA0 SHL SUB AND CALLER EQ PUSH2 0x9C5 JUMPI PUSH1 0x40 MLOAD PUSH3 0x461BCD PUSH1 0xE5 SHL DUP2 MSTORE PUSH1 0x20 PUSH1 0x4 DUP3 ADD MSTORE PUSH1 0x21 PUSH1 0x24 DUP3 ADD MSTORE PUSH32 0x457363726F775661756C743A206E6F742064697370757465207265736F6C7665 PUSH1 0x44 DUP3 ADD MSTORE PUSH1 0x39 PUSH1 0xF9 SHL PUSH1 0x64 DUP3 ADD MSTORE PUSH1 0x84 ADD PUSH2 0x61F JUMP JUMPDEST PUSH1 0x0 DUP2 DUP2 MSTORE PUSH1 0x6 PUSH1 0x20 MSTORE PUSH1 0x40 SWAP1 KECCAK256 PUSH1 0x2 ADD SLOAD DUP2 SWAP1 PUSH1 0x1 PUSH1 0x1 PUSH1 0xA0 SHL SUB AND PUSH2 0xA02 JUMPI PUSH1 0x40 MLOAD PUSH4 0xCB58AF1F PUSH1 0xE0 SHL DUP2 MSTORE PUSH1 0x4 DUP2 ADD DUP3 SWAP1 MSTORE PUSH1 0x24 ADD PUSH2 0x61F JUMP JUMPDEST PUSH1 0x0 DUP3 DUP2 MSTORE PUSH1 0x6 PUSH1 0x20 MSTORE PUSH1 0x40 SWAP1 KECCAK256 PUSH1 0x2 PUSH1 0x8 DUP1 DUP4 ADD SLOAD PUSH1 0xFF AND SWAP1 DUP2 GT ISZERO PUSH2 0xA2B JUMPI PUSH2 0xA2B PUSH2 0x201C JUMP JUMPDEST EQ DUP1 PUSH2 0xA4F JUMPI POP PUSH1 0x3 PUSH1 0x8 DUP1 DUP4 ADD SLOAD PUSH1 0xFF AND SWAP1 DUP2 GT ISZERO PUSH2 0xA4D JUMPI PUSH2 0xA4D PUSH2 0x201C JUMP JUMPDEST EQ JUMPDEST DUP1 PUSH2 0xA80 JUMPI POP PUSH1 0x1 PUSH1 0x8 DUP1 DUP4 ADD SLOAD PUSH1 0xFF AND SWAP1 DUP2 GT ISZERO PUSH2 0xA70 JUMPI PUSH2 0xA70 PUSH2 0x201C JUMP JUMPDEST EQ DUP1 ISZERO PUSH2 0xA80 JUMPI POP DUP1 PUSH1 0x7 ADD SLOAD TIMESTAMP GT JUMPDEST PUSH2 0xADC JUMPI PUSH1 0x40 MLOAD PUSH3 0x461BCD PUSH1 0xE5 SHL DUP2 MSTORE PUSH1 0x20 PUSH1 0x4 DUP3 ADD MSTORE PUSH1 0x27 PUSH1 0x24 DUP3 ADD MSTORE PUSH32 0x457363726F775661756C743A20696E76616C69642073746174757320666F7220 PUSH1 0x44 DUP3 ADD MSTORE PUSH7 0x64697370757465 PUSH1 0xC8 SHL PUSH1 0x64 DUP3 ADD MSTORE PUSH1 0x84 ADD PUSH2 0x61F JUMP JUMPDEST PUSH1 0x8 DUP2 ADD DUP1 SLOAD PUSH1 0xFF NOT AND PUSH1 0x6 OR SWAP1 SSTORE PUSH1 0x40 MLOAD DUP4 SWAP1 PUSH32 0x185C2A554EFF32F49A7EF7387F4BEF0DAE9C130C84D0E28717EC3076A8DCCF06 SWAP1 PUSH1 0x0 SWAP1 LOG2 POP POP POP JUMP JUMPDEST PUSH1 0x9 SLOAD PUSH1 0xFF AND PUSH1 0x1 SUB PUSH2 0xB5E JUMPI PUSH1 0x40 MLOAD PUSH3 0x461BCD PUSH1 0xE5 SHL DUP2 MSTORE PUSH1 0x20 PUSH1 0x4 DUP3 ADD MSTORE PUSH1 0x1B PUSH1 0x24 DUP3 ADD MSTORE PUSH1 0x0 DUP1 MLOAD PUSH1 0x20 PUSH2 0x255E DUP4 CODECOPY DUP2 MLOAD SWAP2 MSTORE PUSH1 0x44 DUP3 ADD MSTORE PUSH1 0x64 ADD PUSH2 0x61F JUMP JUMPDEST PUSH1 0x9 DUP1 SLOAD PUSH1 0xFF NOT AND PUSH1 0x1 OR SWAP1 SSTORE PUSH1 0x0 DUP2 DUP2 MSTORE PUSH1 0x6 PUSH1 0x20 MSTORE PUSH1 0x40 SWAP1 KECCAK256 PUSH1 0x2 ADD SLOAD DUP2 SWAP1 PUSH1 0x1 PUSH1 0x1 PUSH1 0xA0 SHL SUB AND PUSH2 0xBA8 JUMPI PUSH1 0x40 MLOAD PUSH4 0xCB58AF1F PUSH1 0xE0 SHL DUP2 MSTORE PUSH1 0x4 DUP2 ADD DUP3 SWAP1 MSTORE PUSH1 0x24 ADD PUSH2 0x61F JUMP JUMPDEST PUSH1 0x0 DUP3 DUP2 MSTORE PUSH1 0x6 PUSH1 0x20 MSTORE PUSH1 0x40 SWAP1 KECCAK256 PUSH1 0x2 DUP2 ADD SLOAD PUSH1 0x1 PUSH1 0x1 PUSH1 0xA0 SHL SUB AND CALLER EQ PUSH2 0xBE6 JUMPI PUSH1 0x40 MLOAD PUSH4 0x11B797D9 PUSH1 0xE1 SHL DUP2 MSTORE PUSH1 0x4 DUP2 ADD DUP5 SWAP1 MSTORE PUSH1 0x24 ADD PUSH2 0x61F JUMP JUMPDEST PUSH1 0x1 PUSH1 0x8 DUP1 DUP4 ADD SLOAD PUSH1 0xFF AND SWAP1 DUP2 GT ISZERO PUSH2 0xC01 JUMPI PUSH2 0xC01 PUSH2 0x201C JUMP JUMPDEST EQ PUSH2 0xC2F JUMPI PUSH1 0x8 DUP2 ADD SLOAD PUSH1 0x40 MLOAD PUSH4 0x3939B359 PUSH1 0xE2 SHL DUP2 MSTORE PUSH2 0x61F SWAP2 DUP6 SWAP2 PUSH1 0xFF SWAP1 SWAP2 AND SWAP1 PUSH1 0x1 SWAP1 PUSH1 0x4 ADD PUSH2 0x24F0 JUMP JUMPDEST PUSH1 0x8 DUP2 DUP2 ADD DUP1 SLOAD PUSH1 0xFF NOT AND SWAP1 SWAP2 OR SWAP1 SSTORE PUSH1 0x2 DUP2 ADD SLOAD PUSH1 0x4 DUP3 ADD SLOAD PUSH2 0xC80 SWAP2 PUSH32 0x0 SWAP2 PUSH1 0x1 PUSH1 0x1 PUSH1 0xA0 SHL SUB SWAP1 SWAP2 AND SWAP1 PUSH2 0x1DB1 JUMP JUMPDEST PUSH1 0x40 MLOAD DUP4 SWAP1 PUSH32 0x31B0C01E8429F81903C3F8ADC204767B8EFA7CFCA91A00F3B4BB40CE63C8A206 SWAP1 PUSH1 0x0 SWAP1 LOG2 POP POP PUSH1 0x9 DUP1 SLOAD PUSH1 0xFF NOT AND SWAP1 SSTORE POP JUMP JUMPDEST PUSH1 0x9 SLOAD PUSH1 0xFF AND PUSH1 0x1 SUB PUSH2 0xCFD JUMPI PUSH1 0x40 MLOAD PUSH3 0x461BCD PUSH1 0xE5 SHL DUP2 MSTORE PUSH1 0x20 PUSH1 0x4 DUP3 ADD MSTORE PUSH1 0x1B PUSH1 0x24 DUP3 ADD MSTORE PUSH1 0x0 DUP1 MLOAD PUSH1 0x20 PUSH2 0x255E DUP4 CODECOPY DUP2 MLOAD SWAP2 MSTORE PUSH1 0x44 DUP3 ADD MSTORE PUSH1 0x64 ADD PUSH2 0x61F JUMP JUMPDEST PUSH1 0x9 DUP1 SLOAD PUSH1 0xFF NOT AND PUSH1 0x1 OR SWAP1 SSTORE PUSH1 0x0 SLOAD CALLER PUSH1 0x1 PUSH1 0x1 PUSH1 0xA0 SHL SUB SWAP1 SWAP2 AND EQ PUSH2 0xD5F JUMPI PUSH1 0x40 MLOAD PUSH3 0x461BCD PUSH1 0xE5 SHL DUP2 MSTORE PUSH1 0x20 PUSH1 0x4 DUP3 ADD MSTORE PUSH1 0x16 PUSH1 0x24 DUP3 ADD MSTORE PUSH22 0x22B9B1B937BBAB30BAB63A1D103737BA1030B236B4B7 PUSH1 0x51 SHL PUSH1 0x44 DUP3 ADD MSTORE PUSH1 0x64 ADD PUSH2 0x61F JUMP JUMPDEST PUSH1 0x8 SLOAD DUP1 PUSH2 0xDAF JUMPI PUSH1 0x40 MLOAD PUSH3 0x461BCD PUSH1 0xE5 SHL DUP2 MSTORE PUSH1 0x20 PUSH1 0x4 DUP3 ADD MSTORE PUSH1 0x14 PUSH1 0x24 DUP3 ADD MSTORE PUSH32 0x457363726F775661756C743A206E6F2066656573000000000000000000000000 PUSH1 0x44 DUP3 ADD MSTORE PUSH1 0x64 ADD PUSH2 0x61F JUMP JUMPDEST PUSH1 0x0 PUSH1 0x8 SSTORE PUSH1 0x2 SLOAD PUSH2 0xDEC SWAP1 PUSH32 0x0 SWAP1 PUSH1 0x1 PUSH1 0x1 PUSH1 0xA0 SHL SUB AND DUP4 PUSH2 0x1DB1 JUMP JUMPDEST POP PUSH1 0x9 DUP1 SLOAD PUSH1 0xFF NOT AND SWAP1 SSTORE JUMP JUMPDEST PUSH1 0x9 SLOAD PUSH1 0xFF AND PUSH1 0x1 SUB PUSH2 0xE3C JUMPI PUSH1 0x40 MLOAD PUSH3 0x461BCD PUSH1 0xE5 SHL DUP2 MSTORE PUSH1 0x20 PUSH1 0x4 DUP3 ADD MSTORE PUSH1 0x1B PUSH1 0x24 DUP3 ADD MSTORE PUSH1 0x0 DUP1 MLOAD PUSH1 0x20 PUSH2 0x255E DUP4 CODECOPY DUP2 MLOAD SWAP2 MSTORE PUSH1 0x44 DUP3 ADD MSTORE PUSH1 0x64 ADD PUSH2 0x61F JUMP JUMPDEST PUSH1 0x9 DUP1 SLOAD PUSH1 0xFF NOT AND PUSH1 0x1 OR SWAP1 SSTORE PUSH1 0x0 DUP2 DUP2 MSTORE PUSH1 0x6 PUSH1 0x20 MSTORE PUSH1 0x40 SWAP1 KECCAK256 PUSH1 0x2 ADD SLOAD DUP2 SWAP1 PUSH1 0x1 PUSH1 0x1 PUSH1 0xA0 SHL SUB AND PUSH2 0xE86 JUMPI PUSH1 0x40 MLOAD PUSH4 0xCB58AF1F PUSH1 0xE0 SHL DUP2 MSTORE PUSH1 0x4 DUP2 ADD DUP3 SWAP1 MSTORE PUSH1 0x24 ADD PUSH2 0x61F JUMP JUMPDEST PUSH1 0x0 DUP3 DUP2 MSTORE PUSH1 0x6 PUSH1 0x20 MSTORE PUSH1 0x40 SWAP1 KECCAK256 PUSH1 0x2 DUP2 ADD SLOAD PUSH1 0x1 PUSH1 0x1 PUSH1 0xA0 SHL SUB AND CALLER EQ PUSH2 0xEC4 JUMPI PUSH1 0x40 MLOAD PUSH4 0x11B797D9 PUSH1 0xE1 SHL DUP2 MSTORE PUSH1 0x4 DUP2 ADD DUP5 SWAP1 MSTORE PUSH1 0x24 ADD PUSH2 0x61F JUMP JUMPDEST PUSH1 0x3 PUSH1 0x8 DUP1 DUP4 ADD SLOAD PUSH1 0xFF AND SWAP1 DUP2 GT ISZERO PUSH2 0xEDF JUMPI PUSH2 0xEDF PUSH2 0x201C JUMP JUMPDEST EQ PUSH2 0xF0D JUMPI PUSH1 0x8 DUP2 ADD SLOAD PUSH1 0x40 MLOAD PUSH4 0x3939B359 PUSH1 0xE2 SHL DUP2 MSTORE PUSH2 0x61F SWAP2 DUP6 SWAP2 PUSH1 0xFF SWAP1 SWAP2 AND SWAP1 PUSH1 0x3 SWAP1 PUSH1 0x4 ADD PUSH2 0x24F0 JUMP JUMPDEST PUSH1 0x0 PUSH2 0x2710 PUSH1 0x32 DUP4 PUSH1 0x4 ADD SLOAD PUSH2 0xF23 SWAP2 SWAP1 PUSH2 0x237D JUMP JUMPDEST PUSH2 0xF2D SWAP2 SWAP1 PUSH2 0x2394 JUMP JUMPDEST PUSH1 0x8 DUP4 ADD DUP1 SLOAD PUSH1 0xFF NOT AND PUSH1 0x5 SWAP1 DUP2 OR SWAP1 SWAP2 SSTORE DUP4 ADD DUP1 SLOAD SWAP2 SWAP3 POP DUP3 SWAP2 PUSH1 0x0 SWAP1 PUSH2 0xF56 SWAP1 DUP5 SWAP1 PUSH2 0x236A JUMP JUMPDEST SWAP1 SWAP2 SSTORE POP PUSH2 0xF65 SWAP1 POP DUP3 PUSH2 0x1ECC JUMP JUMPDEST DUP4 PUSH32 0x936DB7C13E95C6AAE657983CE0BF4B8E864968DD7B2A7FC4F1C5C2429D9BF991 DUP3 PUSH1 0x40 MLOAD PUSH2 0xF97 SWAP2 DUP2 MSTORE PUSH1 0x20 ADD SWAP1 JUMP JUMPDEST PUSH1 0x40 MLOAD DUP1 SWAP2 SUB SWAP1 LOG2 POP POP PUSH1 0x9 DUP1 SLOAD PUSH1 0xFF NOT AND SWAP1 SSTORE POP POP JUMP JUMPDEST CALLER PUSH1 0x0 SWAP1 DUP2 MSTORE PUSH1 0x5 PUSH1 0x20 MSTORE PUSH1 0x40 SWAP1 KECCAK256 SLOAD PUSH1 0xFF AND PUSH2 0xFDF JUMPI PUSH1 0x40 MLOAD PUSH4 0x765DBE9F PUSH1 0xE0 SHL DUP2 MSTORE PUSH1 0x4 ADD PUSH1 0x40 MLOAD DUP1 SWAP2 SUB SWAP1 REVERT JUMPDEST PUSH1 0x0 DUP2 DUP2 MSTORE PUSH1 0x6 PUSH1 0x20 MSTORE PUSH1 0x40 SWAP1 KECCAK256 PUSH1 0x2 ADD SLOAD DUP2 SWAP1 PUSH1 0x1 PUSH1 0x1 PUSH1 0xA0 SHL SUB AND PUSH2 0x101C JUMPI PUSH1 0x40 MLOAD PUSH4 0xCB58AF1F PUSH1 0xE0 SHL DUP2 MSTORE PUSH1 0x4 DUP2 ADD DUP3 SWAP1 MSTORE PUSH1 0x24 ADD PUSH2 0x61F JUMP JUMPDEST PUSH1 0x0 DUP3 DUP2 MSTORE PUSH1 0x6 PUSH1 0x20 MSTORE PUSH1 0x40 SWAP1 KECCAK256 PUSH1 0x1 PUSH1 0x8 DUP1 DUP4 ADD SLOAD PUSH1 0xFF AND SWAP1 DUP2 GT ISZERO PUSH2 0x1045 JUMPI PUSH2 0x1045 PUSH2 0x201C JUMP JUMPDEST EQ PUSH2 0x1073 JUMPI PUSH1 0x8 DUP2 ADD SLOAD PUSH1 0x40 MLOAD PUSH4 0x3939B359 PUSH1 0xE2 SHL DUP2 MSTORE PUSH2 0x61F SWAP2 DUP6 SWAP2 PUSH1 0xFF SWAP1 SWAP2 AND SWAP1 PUSH1 0x1 SWAP1 PUSH1 0x4 ADD PUSH2 0x24F0 JUMP JUMPDEST PUSH1 0x8 DUP2 ADD DUP1 SLOAD PUSH1 0xFF NOT AND PUSH1 0x2 OR SWAP1 SSTORE PUSH1 0x40 MLOAD DUP4 SWAP1 PUSH32 0x9DF29A48D557958DEFDBEB91DDA0116B443663F2A358AB8947609973C5A7B51C SWAP1 PUSH1 0x0 SWAP1 LOG2 POP POP POP JUMP JUMPDEST PUSH1 0x0 SLOAD PUSH1 0x1 PUSH1 0x1 PUSH1 0xA0 SHL SUB AND CALLER EQ PUSH2 0x1105 JUMPI PUSH1 0x40 MLOAD PUSH3 0x461BCD PUSH1 0xE5 SHL DUP2 MSTORE PUSH1 0x20 PUSH1 0x4 DUP3 ADD MSTORE PUSH1 0x16 PUSH1 0x24 DUP3 ADD MSTORE PUSH22 0x22B9B1B937BBAB30BAB63A1D103737BA1030B236B4B7 PUSH1 0x51 SHL PUSH1 0x44 DUP3 ADD MSTORE PUSH1 0x64 ADD PUSH2 0x61F JUMP JUMPDEST PUSH1 0x1 PUSH1 0x1 PUSH1 0xA0 SHL SUB DUP2 AND PUSH2 0x112C JUMPI PUSH1 0x40 MLOAD PUSH4 0xD92E233D PUSH1 0xE0 SHL DUP2 MSTORE PUSH1 0x4 ADD PUSH1 0x40 MLOAD DUP1 SWAP2 SUB SWAP1 REVERT JUMPDEST PUSH1 0x3 DUP1 SLOAD PUSH1 0x1 PUSH1 0x1 PUSH1 0xA0 SHL SUB NOT AND PUSH1 0x1 PUSH1 0x1 PUSH1 0xA0 SHL SUB SWAP3 SWAP1 SWAP3 AND SWAP2 SWAP1 SWAP2 OR SWAP1 SSTORE JUMP JUMPDEST PUSH1 0x0 SLOAD PUSH1 0x1 PUSH1 0x1 PUSH1 0xA0 SHL SUB AND CALLER EQ PUSH2 0x11A1 JUMPI PUSH1 0x40 MLOAD PUSH3 0x461BCD PUSH1 0xE5 SHL DUP2 MSTORE PUSH1 0x20 PUSH1 0x4 DUP3 ADD MSTORE PUSH1 0x16 PUSH1 0x24 DUP3 ADD MSTORE PUSH22 0x22B9B1B937BBAB30BAB63A1D103737BA1030B236B4B7 PUSH1 0x51 SHL PUSH1 0x44 DUP3 ADD MSTORE PUSH1 0x64 ADD PUSH2 0x61F JUMP JUMPDEST PUSH1 0x1 PUSH1 0x1 PUSH1 0xA0 SHL SUB DUP2 AND PUSH2 0x11C8 JUMPI PUSH1 0x40 MLOAD PUSH4 0xD92E233D PUSH1 0xE0 SHL DUP2 MSTORE PUSH1 0x4 ADD PUSH1 0x40 MLOAD DUP1 SWAP2 SUB SWAP1 REVERT JUMPDEST PUSH1 0x1 DUP1 SLOAD PUSH1 0x1 PUSH1 0x1 PUSH1 0xA0 SHL SUB NOT AND PUSH1 0x1 PUSH1 0x1 PUSH1 0xA0 SHL SUB SWAP3 SWAP1 SWAP3 AND SWAP2 SWAP1 SWAP2 OR SWAP1 SSTORE JUMP JUMPDEST PUSH2 0x11F2 PUSH2 0x1F8D JUMP JUMPDEST PUSH1 0x0 DUP3 DUP2 MSTORE PUSH1 0x6 PUSH1 0x20 MSTORE PUSH1 0x40 SWAP1 KECCAK256 PUSH1 0x2 ADD SLOAD PUSH1 0x1 PUSH1 0x1 PUSH1 0xA0 SHL SUB AND PUSH2 0x122D JUMPI PUSH1 0x40 MLOAD PUSH4 0xCB58AF1F PUSH1 0xE0 SHL DUP2 MSTORE PUSH1 0x4 DUP2 ADD DUP4 SWAP1 MSTORE PUSH1 0x24 ADD PUSH2 0x61F JUMP JUMPDEST PUSH1 0x0 DUP3 DUP2 MSTORE PUSH1 0x6 PUSH1 0x20 DUP2 DUP2 MSTORE PUSH1 0x40 SWAP3 DUP4 SWAP1 KECCAK256 DUP4 MLOAD PUSH2 0x140 DUP2 ADD DUP6 MSTORE DUP2 SLOAD DUP2 MSTORE PUSH1 0x1 DUP3 ADD SLOAD SWAP3 DUP2 ADD SWAP3 SWAP1 SWAP3 MSTORE PUSH1 0x2 DUP2 ADD SLOAD PUSH1 0x1 PUSH1 0x1 PUSH1 0xA0 SHL SUB SWAP1 DUP2 AND SWAP5 DUP4 ADD SWAP5 SWAP1 SWAP5 MSTORE PUSH1 0x3 DUP2 ADD SLOAD SWAP1 SWAP4 AND PUSH1 0x60 DUP3 ADD MSTORE PUSH1 0x4 DUP4 ADD SLOAD PUSH1 0x80 DUP3 ADD MSTORE PUSH1 0x5 DUP4 ADD SLOAD PUSH1 0xA0 DUP3 ADD MSTORE SWAP1 DUP3 ADD SLOAD PUSH1 0xC0 DUP3 ADD MSTORE PUSH1 0x7 DUP3 ADD SLOAD PUSH1 0xE0 DUP3 ADD MSTORE PUSH1 0x8 DUP1 DUP4 ADD SLOAD SWAP2 SWAP3 SWAP2 PUSH2 0x100 DUP5 ADD SWAP2 PUSH1 0xFF SWAP1 SWAP2 AND SWAP1 DUP2 GT ISZERO PUSH2 0x12C7 JUMPI PUSH2 0x12C7 PUSH2 0x201C JUMP JUMPDEST PUSH1 0x8 DUP2 GT ISZERO PUSH2 0x12D8 JUMPI PUSH2 0x12D8 PUSH2 0x201C JUMP JUMPDEST DUP2 MSTORE PUSH1 0x20 ADD PUSH1 0x9 DUP3 ADD DUP1 SLOAD PUSH2 0x12EC SWAP1 PUSH2 0x231A JUMP JUMPDEST DUP1 PUSH1 0x1F ADD PUSH1 0x20 DUP1 SWAP2 DIV MUL PUSH1 0x20 ADD PUSH1 0x40 MLOAD SWAP1 DUP2 ADD PUSH1 0x40 MSTORE DUP1 SWAP3 SWAP2 SWAP1 DUP2 DUP2 MSTORE PUSH1 0x20 ADD DUP3 DUP1 SLOAD PUSH2 0x1318 SWAP1 PUSH2 0x231A JUMP JUMPDEST DUP1 ISZERO PUSH2 0x1365 JUMPI DUP1 PUSH1 0x1F LT PUSH2 0x133A JUMPI PUSH2 0x100 DUP1 DUP4 SLOAD DIV MUL DUP4 MSTORE SWAP2 PUSH1 0x20 ADD SWAP2 PUSH2 0x1365 JUMP JUMPDEST DUP3 ADD SWAP2 SWAP1 PUSH1 0x0 MSTORE PUSH1 0x20 PUSH1 0x0 KECCAK256 SWAP1 JUMPDEST DUP2 SLOAD DUP2 MSTORE SWAP1 PUSH1 0x1 ADD SWAP1 PUSH1 0x20 ADD DUP1 DUP4 GT PUSH2 0x1348 JUMPI DUP3 SWAP1 SUB PUSH1 0x1F AND DUP3 ADD SWAP2 JUMPDEST POP POP POP POP POP DUP2 MSTORE POP POP SWAP1 POP SWAP2 SWAP1 POP JUMP JUMPDEST PUSH1 0x0 SLOAD PUSH1 0x1 PUSH1 0x1 PUSH1 0xA0 SHL SUB AND CALLER EQ PUSH2 0x13C8 JUMPI PUSH1 0x40 MLOAD PUSH3 0x461BCD PUSH1 0xE5 SHL DUP2 MSTORE PUSH1 0x20 PUSH1 0x4 DUP3 ADD MSTORE PUSH1 0x16 PUSH1 0x24 DUP3 ADD MSTORE PUSH22 0x22B9B1B937BBAB30BAB63A1D103737BA1030B236B4B7 PUSH1 0x51 SHL PUSH1 0x44 DUP3 ADD MSTORE PUSH1 0x64 ADD PUSH2 0x61F JUMP JUMPDEST PUSH1 0x1 PUSH1 0x1 PUSH1 0xA0 SHL SUB DUP2 AND PUSH2 0x13EF JUMPI PUSH1 0x40 MLOAD PUSH4 0xD92E233D PUSH1 0xE0 SHL DUP2 MSTORE PUSH1 0x4 ADD PUSH1 0x40 MLOAD DUP1 SWAP2 SUB SWAP1 REVERT JUMPDEST PUSH1 0x4 DUP1 SLOAD PUSH1 0x1 PUSH1 0x1 PUSH1 0xA0 SHL SUB NOT AND PUSH1 0x1 PUSH1 0x1 PUSH1 0xA0 SHL SUB SWAP3 SWAP1 SWAP3 AND SWAP2 SWAP1 SWAP2 OR SWAP1 SSTORE JUMP JUMPDEST PUSH1 0x0 PUSH2 0x2710 PUSH2 0x1421 PUSH1 0xFA DUP5 PUSH2 0x237D JUMP JUMPDEST PUSH2 0x142B SWAP2 SWAP1 PUSH2 0x2394 JUMP JUMPDEST SWAP3 SWAP2 POP POP JUMP JUMPDEST PUSH1 0x0 SLOAD PUSH1 0x1 PUSH1 0x1 PUSH1 0xA0 SHL SUB AND CALLER EQ PUSH2 0x1484 JUMPI PUSH1 0x40 MLOAD PUSH3 0x461BCD PUSH1 0xE5 SHL DUP2 MSTORE PUSH1 0x20 PUSH1 0x4 DUP3 ADD MSTORE PUSH1 0x16 PUSH1 0x24 DUP3 ADD MSTORE PUSH22 0x22B9B1B937BBAB30BAB63A1D103737BA1030B236B4B7 PUSH1 0x51 SHL PUSH1 0x44 DUP3 ADD MSTORE PUSH1 0x64 ADD PUSH2 0x61F JUMP JUMPDEST PUSH1 0x1 PUSH1 0x1 PUSH1 0xA0 SHL SUB DUP2 AND PUSH2 0x14AB JUMPI PUSH1 0x40 MLOAD PUSH4 0xD92E233D PUSH1 0xE0 SHL DUP2 MSTORE PUSH1 0x4 ADD PUSH1 0x40 MLOAD DUP1 SWAP2 SUB SWAP1 REVERT JUMPDEST PUSH1 0x2 DUP1 SLOAD PUSH1 0x1 PUSH1 0x1 PUSH1 0xA0 SHL SUB NOT AND PUSH1 0x1 PUSH1 0x1 PUSH1 0xA0 SHL SUB SWAP3 SWAP1 SWAP3 AND SWAP2 SWAP1 SWAP2 OR SWAP1 SSTORE JUMP JUMPDEST PUSH1 0x9 SLOAD PUSH1 0xFF AND PUSH1 0x1 SUB PUSH2 0x1510 JUMPI PUSH1 0x40 MLOAD PUSH3 0x461BCD PUSH1 0xE5 SHL DUP2 MSTORE PUSH1 0x20 PUSH1 0x4 DUP3 ADD MSTORE PUSH1 0x1B PUSH1 0x24 DUP3 ADD MSTORE PUSH1 0x0 DUP1 MLOAD PUSH1 0x20 PUSH2 0x255E DUP4 CODECOPY DUP2 MLOAD SWAP2 MSTORE PUSH1 0x44 DUP3 ADD MSTORE PUSH1 0x64 ADD PUSH2 0x61F JUMP JUMPDEST PUSH1 0x9 DUP1 SLOAD PUSH1 0xFF NOT AND PUSH1 0x1 OR SWAP1 SSTORE PUSH1 0x0 DUP2 DUP2 MSTORE PUSH1 0x6 PUSH1 0x20 MSTORE PUSH1 0x40 SWAP1 KECCAK256 PUSH1 0x2 ADD SLOAD DUP2 SWAP1 PUSH1 0x1 PUSH1 0x1 PUSH1 0xA0 SHL SUB AND PUSH2 0x155A JUMPI PUSH1 0x40 MLOAD PUSH4 0xCB58AF1F PUSH1 0xE0 SHL DUP2 MSTORE PUSH1 0x4 DUP2 ADD DUP3 SWAP1 MSTORE PUSH1 0x24 ADD PUSH2 0x61F JUMP JUMPDEST PUSH1 0x0 DUP3 DUP2 MSTORE PUSH1 0x6 PUSH1 0x20 MSTORE PUSH1 0x40 SWAP1 KECCAK256 PUSH1 0x1 PUSH1 0x8 DUP1 DUP4 ADD SLOAD PUSH1 0xFF AND SWAP1 DUP2 GT ISZERO PUSH2 0x1583 JUMPI PUSH2 0x1583 PUSH2 0x201C JUMP JUMPDEST EQ DUP1 PUSH2 0x15A7 JUMPI POP PUSH1 0x2 PUSH1 0x8 DUP1 DUP4 ADD SLOAD PUSH1 0xFF AND SWAP1 DUP2 GT ISZERO PUSH2 0x15A5 JUMPI PUSH2 0x15A5 PUSH2 0x201C JUMP JUMPDEST EQ JUMPDEST PUSH2 0x15F3 JUMPI PUSH1 0x40 MLOAD PUSH3 0x461BCD PUSH1 0xE5 SHL DUP2 MSTORE PUSH1 0x20 PUSH1 0x4 DUP3 ADD MSTORE PUSH1 0x1A PUSH1 0x24 DUP3 ADD MSTORE PUSH32 0x457363726F775661756C743A206E6F7420636C61696D61626C65000000000000 PUSH1 0x44 DUP3 ADD MSTORE PUSH1 0x64 ADD PUSH2 0x61F JUMP JUMPDEST DUP1 PUSH1 0x7 ADD SLOAD TIMESTAMP GT PUSH2 0x161A JUMPI PUSH1 0x40 MLOAD PUSH4 0x121DE497 PUSH1 0xE2 SHL DUP2 MSTORE PUSH1 0x4 DUP2 ADD DUP5 SWAP1 MSTORE PUSH1 0x24 ADD PUSH2 0x61F JUMP JUMPDEST PUSH1 0x8 DUP2 ADD DUP1 SLOAD PUSH1 0xFF NOT AND PUSH1 0x7 OR SWAP1 SSTORE PUSH1 0x2 DUP2 ADD SLOAD PUSH1 0x4 DUP3 ADD SLOAD PUSH2 0x166A SWAP2 PUSH32 0x0 SWAP2 PUSH1 0x1 PUSH1 0x1 PUSH1 0xA0 SHL SUB SWAP1 SWAP2 AND SWAP1 PUSH2 0x1DB1 JUMP JUMPDEST PUSH1 0x2 DUP2 ADD SLOAD PUSH1 0x4 DUP3 ADD SLOAD PUSH1 0x40 DUP1 MLOAD PUSH1 0x1 PUSH1 0x1 PUSH1 0xA0 SHL SUB SWAP1 SWAP4 AND DUP4 MSTORE PUSH1 0x20 DUP4 ADD SWAP2 SWAP1 SWAP2 MSTORE DUP5 SWAP2 PUSH32 0x421AC64B0A0E649DA74BB1528EBB1736572EC660F9AFF6B354FD500E22C63418 SWAP2 ADD PUSH1 0x40 MLOAD DUP1 SWAP2 SUB SWAP1 LOG2 POP POP PUSH1 0x9 DUP1 SLOAD PUSH1 0xFF NOT AND SWAP1 SSTORE POP JUMP JUMPDEST PUSH1 0x4 SLOAD PUSH1 0x1 PUSH1 0x1 PUSH1 0xA0 SHL SUB AND CALLER EQ PUSH2 0x172D JUMPI PUSH1 0x40 MLOAD PUSH3 0x461BCD PUSH1 0xE5 SHL DUP2 MSTORE PUSH1 0x20 PUSH1 0x4 DUP3 ADD MSTORE PUSH1 0x21 PUSH1 0x24 DUP3 ADD MSTORE PUSH32 0x457363726F775661756C743A206E6F742064697370757465207265736F6C7665 PUSH1 0x44 DUP3 ADD MSTORE PUSH1 0x39 PUSH1 0xF9 SHL PUSH1 0x64 DUP3 ADD MSTORE PUSH1 0x84 ADD PUSH2 0x61F JUMP JUMPDEST PUSH1 0x9 SLOAD PUSH1 0xFF AND PUSH1 0x1 SUB PUSH2 0x1770 JUMPI PUSH1 0x40 MLOAD PUSH3 0x461BCD PUSH1 0xE5 SHL DUP2 MSTORE PUSH1 0x20 PUSH1 0x4 DUP3 ADD MSTORE PUSH1 0x1B PUSH1 0x24 DUP3 ADD MSTORE PUSH1 0x0 DUP1 MLOAD PUSH1 0x20 PUSH2 0x255E DUP4 CODECOPY DUP2 MLOAD SWAP2 MSTORE PUSH1 0x44 DUP3 ADD MSTORE PUSH1 0x64 ADD PUSH2 0x61F JUMP JUMPDEST PUSH1 0x9 DUP1 SLOAD PUSH1 0xFF NOT AND PUSH1 0x1 OR SWAP1 SSTORE PUSH1 0x0 DUP3 DUP2 MSTORE PUSH1 0x6 PUSH1 0x20 MSTORE PUSH1 0x40 SWAP1 KECCAK256 PUSH1 0x2 ADD SLOAD DUP3 SWAP1 PUSH1 0x1 PUSH1 0x1 PUSH1 0xA0 SHL SUB AND PUSH2 0x17BA JUMPI PUSH1 0x40 MLOAD PUSH4 0xCB58AF1F PUSH1 0xE0 SHL DUP2 MSTORE PUSH1 0x4 DUP2 ADD DUP3 SWAP1 MSTORE PUSH1 0x24 ADD PUSH2 0x61F JUMP JUMPDEST PUSH1 0x0 DUP4 DUP2 MSTORE PUSH1 0x6 PUSH1 0x20 DUP2 SWAP1 MSTORE PUSH1 0x40 SWAP1 SWAP2 KECCAK256 SWAP1 PUSH1 0x8 DUP1 DUP4 ADD SLOAD PUSH1 0xFF AND SWAP1 DUP2 GT ISZERO PUSH2 0x17E5 JUMPI PUSH2 0x17E5 PUSH2 0x201C JUMP JUMPDEST EQ PUSH2 0x1813 JUMPI PUSH1 0x8 DUP2 ADD SLOAD PUSH1 0x40 MLOAD PUSH4 0x3939B359 PUSH1 0xE2 SHL DUP2 MSTORE PUSH2 0x61F SWAP2 DUP7 SWAP2 PUSH1 0xFF SWAP1 SWAP2 AND SWAP1 PUSH1 0x6 SWAP1 PUSH1 0x4 ADD PUSH2 0x24F0 JUMP JUMPDEST PUSH2 0x2710 DUP4 GT ISZERO PUSH2 0x1865 JUMPI PUSH1 0x40 MLOAD PUSH3 0x461BCD PUSH1 0xE5 SHL DUP2 MSTORE PUSH1 0x20 PUSH1 0x4 DUP3 ADD MSTORE PUSH1 0x18 PUSH1 0x24 DUP3 ADD MSTORE PUSH32 0x457363726F775661756C743A20696E76616C6964206270730000000000000000 PUSH1 0x44 DUP3 ADD MSTORE PUSH1 0x64 ADD PUSH2 0x61F JUMP JUMPDEST PUSH1 0x4 DUP2 ADD SLOAD PUSH1 0x5 DUP3 ADD SLOAD PUSH1 0x0 PUSH2 0x187B DUP3 DUP5 PUSH2 0x2511 JUMP JUMPDEST SWAP1 POP PUSH1 0x0 PUSH2 0x2710 PUSH2 0x188C DUP9 DUP5 PUSH2 0x237D JUMP JUMPDEST PUSH2 0x1896 SWAP2 SWAP1 PUSH2 0x2394 JUMP JUMPDEST SWAP1 POP PUSH1 0x0 PUSH2 0x18A4 DUP3 DUP5 PUSH2 0x2511 JUMP JUMPDEST SWAP1 POP PUSH2 0x2710 DUP9 SUB PUSH2 0x18C3 JUMPI PUSH1 0x8 DUP7 ADD DUP1 SLOAD PUSH1 0xFF NOT AND PUSH1 0x7 OR SWAP1 SSTORE PUSH2 0x18D3 JUMP JUMPDEST PUSH1 0x8 DUP7 ADD DUP1 SLOAD PUSH1 0xFF NOT AND PUSH1 0x5 OR SWAP1 SSTORE JUMPDEST DUP4 PUSH1 0x8 PUSH1 0x0 DUP3 DUP3 SLOAD PUSH2 0x18E5 SWAP2 SWAP1 PUSH2 0x236A JUMP JUMPDEST SWAP1 SWAP2 SSTORE POP POP DUP2 ISZERO PUSH2 0x192A JUMPI PUSH1 0x2 DUP7 ADD SLOAD PUSH2 0x192A SWAP1 PUSH32 0x0 SWAP1 PUSH1 0x1 PUSH1 0x1 PUSH1 0xA0 SHL SUB AND DUP5 PUSH2 0x1DB1 JUMP JUMPDEST DUP1 ISZERO PUSH2 0x196A JUMPI PUSH1 0x3 DUP7 ADD SLOAD PUSH2 0x196A SWAP1 PUSH32 0x0 SWAP1 PUSH1 0x1 PUSH1 0x1 PUSH1 0xA0 SHL SUB AND DUP4 PUSH2 0x1DB1 JUMP JUMPDEST POP POP PUSH1 0x9 DUP1 SLOAD PUSH1 0xFF NOT AND SWAP1 SSTORE POP POP POP POP POP POP POP JUMP JUMPDEST PUSH1 0x0 SLOAD PUSH1 0x1 PUSH1 0x1 PUSH1 0xA0 SHL SUB AND CALLER EQ PUSH2 0x19D2 JUMPI PUSH1 0x40 MLOAD PUSH3 0x461BCD PUSH1 0xE5 SHL DUP2 MSTORE PUSH1 0x20 PUSH1 0x4 DUP3 ADD MSTORE PUSH1 0x16 PUSH1 0x24 DUP3 ADD MSTORE PUSH22 0x22B9B1B937BBAB30BAB63A1D103737BA1030B236B4B7 PUSH1 0x51 SHL PUSH1 0x44 DUP3 ADD MSTORE PUSH1 0x64 ADD PUSH2 0x61F JUMP JUMPDEST PUSH1 0x1 PUSH1 0x1 PUSH1 0xA0 SHL SUB DUP3 AND PUSH2 0x19F9 JUMPI PUSH1 0x40 MLOAD PUSH4 0xD92E233D PUSH1 0xE0 SHL DUP2 MSTORE PUSH1 0x4 ADD PUSH1 0x40 MLOAD DUP1 SWAP2 SUB SWAP1 REVERT JUMPDEST PUSH1 0x1 PUSH1 0x1 PUSH1 0xA0 SHL SUB SWAP2 SWAP1 SWAP2 AND PUSH1 0x0 SWAP1 DUP2 MSTORE PUSH1 0x5 PUSH1 0x20 MSTORE PUSH1 0x40 SWAP1 KECCAK256 DUP1 SLOAD PUSH1 0xFF NOT AND SWAP2 ISZERO ISZERO SWAP2 SWAP1 SWAP2 OR SWAP1 SSTORE JUMP JUMPDEST CALLER PUSH1 0x0 SWAP1 DUP2 MSTORE PUSH1 0x5 PUSH1 0x20 MSTORE PUSH1 0x40 SWAP1 KECCAK256 SLOAD PUSH1 0xFF AND PUSH2 0x1A54 JUMPI PUSH1 0x40 MLOAD PUSH4 0x765DBE9F PUSH1 0xE0 SHL DUP2 MSTORE PUSH1 0x4 ADD PUSH1 0x40 MLOAD DUP1 SWAP2 SUB SWAP1 REVERT JUMPDEST PUSH1 0x0 DUP2 DUP2 MSTORE PUSH1 0x6 PUSH1 0x20 MSTORE PUSH1 0x40 SWAP1 KECCAK256 PUSH1 0x2 ADD SLOAD DUP2 SWAP1 PUSH1 0x1 PUSH1 0x1 PUSH1 0xA0 SHL SUB AND PUSH2 0x1A91 JUMPI PUSH1 0x40 MLOAD PUSH4 0xCB58AF1F PUSH1 0xE0 SHL DUP2 MSTORE PUSH1 0x4 DUP2 ADD DUP3 SWAP1 MSTORE PUSH1 0x24 ADD PUSH2 0x61F JUMP JUMPDEST PUSH1 0x0 DUP3 DUP2 MSTORE PUSH1 0x6 PUSH1 0x20 MSTORE PUSH1 0x40 SWAP1 KECCAK256 PUSH1 0x2 PUSH1 0x8 DUP1 DUP4 ADD SLOAD PUSH1 0xFF AND SWAP1 DUP2 GT ISZERO PUSH2 0x1ABA JUMPI PUSH2 0x1ABA PUSH2 0x201C JUMP JUMPDEST EQ PUSH2 0x1AE8 JUMPI PUSH1 0x8 DUP2 ADD SLOAD PUSH1 0x40 MLOAD PUSH4 0x3939B359 PUSH1 0xE2 SHL DUP2 MSTORE PUSH2 0x61F SWAP2 DUP6 SWAP2 PUSH1 0xFF SWAP1 SWAP2 AND SWAP1 PUSH1 0x2 SWAP1 PUSH1 0x4 ADD PUSH2 0x24F0 JUMP JUMPDEST PUSH1 0x8 DUP2 ADD DUP1 SLOAD PUSH1 0xFF NOT AND PUSH1 0x3 OR SWAP1 SSTORE PUSH1 0x40 MLOAD DUP4 SWAP1 PUSH32 0xC8A5EEAA874C7EE1B7D1EBE6945314AB290D711CD69ACDE68D5A0E554F5B1794 SWAP1 PUSH1 0x0 SWAP1 LOG2 POP POP POP JUMP JUMPDEST CALLER PUSH1 0x0 SWAP1 DUP2 MSTORE PUSH1 0x5 PUSH1 0x20 MSTORE PUSH1 0x40 SWAP1 KECCAK256 SLOAD PUSH1 0xFF AND PUSH2 0x1B57 JUMPI PUSH1 0x40 MLOAD PUSH4 0x765DBE9F PUSH1 0xE0 SHL DUP2 MSTORE PUSH1 0x4 ADD PUSH1 0x40 MLOAD DUP1 SWAP2 SUB SWAP1 REVERT JUMPDEST PUSH1 0x9 SLOAD PUSH1 0xFF AND PUSH1 0x1 SUB PUSH2 0x1B9A JUMPI PUSH1 0x40 MLOAD PUSH3 0x461BCD PUSH1 0xE5 SHL DUP2 MSTORE PUSH1 0x20 PUSH1 0x4 DUP3 ADD MSTORE PUSH1 0x1B PUSH1 0x24 DUP3 ADD MSTORE PUSH1 0x0 DUP1 MLOAD PUSH1 0x20 PUSH2 0x255E DUP4 CODECOPY DUP2 MLOAD SWAP2 MSTORE PUSH1 0x44 DUP3 ADD MSTORE PUSH1 0x64 ADD PUSH2 0x61F JUMP JUMPDEST PUSH1 0x9 DUP1 SLOAD PUSH1 0xFF NOT AND PUSH1 0x1 OR SWAP1 SSTORE PUSH1 0x0 DUP2 DUP2 MSTORE PUSH1 0x6 PUSH1 0x20 MSTORE PUSH1 0x40 SWAP1 KECCAK256 PUSH1 0x2 ADD SLOAD DUP2 SWAP1 PUSH1 0x1 PUSH1 0x1 PUSH1 0xA0 SHL SUB AND PUSH2 0x1BE4 JUMPI PUSH1 0x40 MLOAD PUSH4 0xCB58AF1F PUSH1 0xE0 SHL DUP2 MSTORE PUSH1 0x4 DUP2 ADD DUP3 SWAP1 MSTORE PUSH1 0x24 ADD PUSH2 0x61F JUMP JUMPDEST PUSH1 0x0 DUP3 DUP2 MSTORE PUSH1 0x6 PUSH1 0x20 MSTORE PUSH1 0x40 SWAP1 KECCAK256 PUSH1 0x3 PUSH1 0x8 DUP1 DUP4 ADD SLOAD PUSH1 0xFF AND SWAP1 DUP2 GT ISZERO PUSH2 0x1C0D JUMPI PUSH2 0x1C0D PUSH2 0x201C JUMP JUMPDEST EQ PUSH2 0x1C3B JUMPI PUSH1 0x8 DUP2 ADD SLOAD PUSH1 0x40 MLOAD PUSH4 0x3939B359 PUSH1 0xE2 SHL DUP2 MSTORE PUSH2 0x61F SWAP2 DUP6 SWAP2 PUSH1 0xFF SWAP1 SWAP2 AND SWAP1 PUSH1 0x3 SWAP1 PUSH1 0x4 ADD PUSH2 0x24F0 JUMP JUMPDEST PUSH1 0x8 DUP2 ADD DUP1 SLOAD PUSH1 0xFF NOT AND PUSH1 0x5 OR SWAP1 SSTORE PUSH2 0x1C53 DUP2 PUSH2 0x1ECC JUMP JUMPDEST PUSH1 0x40 MLOAD DUP4 SWAP1 PUSH32 0x68D22D76AED78AE83E6FD176100D4DC9CE13B2DE5D9FAC856B5945710B13E883 SWAP1 PUSH1 0x0 SWAP1 LOG2 POP POP PUSH1 0x9 DUP1 SLOAD PUSH1 0xFF NOT AND SWAP1 SSTORE POP JUMP JUMPDEST PUSH1 0x40 DUP1 MLOAD PUSH1 0x1 PUSH1 0x1 PUSH1 0xA0 SHL SUB DUP6 DUP2 AND PUSH1 0x24 DUP4 ADD MSTORE DUP5 DUP2 AND PUSH1 0x44 DUP4 ADD MSTORE PUSH1 0x64 DUP1 DUP4 ADD DUP6 SWAP1 MSTORE DUP4 MLOAD DUP1 DUP5 SUB SWAP1 SWAP2 ADD DUP2 MSTORE PUSH1 0x84 SWAP1 SWAP3 ADD DUP4 MSTORE PUSH1 0x20 DUP3 ADD DUP1 MLOAD PUSH1 0x1 PUSH1 0x1 PUSH1 0xE0 SHL SUB AND PUSH4 0x23B872DD PUSH1 0xE0 SHL OR SWAP1 MSTORE SWAP2 MLOAD PUSH1 0x0 SWAP3 DUP4 SWAP3 SWAP1 DUP9 AND SWAP2 PUSH2 0x1CF1 SWAP2 SWAP1 PUSH2 0x2524 JUMP JUMPDEST PUSH1 0x0 PUSH1 0x40 MLOAD DUP1 DUP4 SUB DUP2 PUSH1 0x0 DUP7 GAS CALL SWAP2 POP POP RETURNDATASIZE DUP1 PUSH1 0x0 DUP2 EQ PUSH2 0x1D2E JUMPI PUSH1 0x40 MLOAD SWAP2 POP PUSH1 0x1F NOT PUSH1 0x3F RETURNDATASIZE ADD AND DUP3 ADD PUSH1 0x40 MSTORE RETURNDATASIZE DUP3 MSTORE RETURNDATASIZE PUSH1 0x0 PUSH1 0x20 DUP5 ADD RETURNDATACOPY PUSH2 0x1D33 JUMP JUMPDEST PUSH1 0x60 SWAP2 POP JUMPDEST POP SWAP2 POP SWAP2 POP DUP2 DUP1 ISZERO PUSH2 0x1D5D JUMPI POP DUP1 MLOAD ISZERO DUP1 PUSH2 0x1D5D JUMPI POP DUP1 DUP1 PUSH1 0x20 ADD SWAP1 MLOAD DUP2 ADD SWAP1 PUSH2 0x1D5D SWAP2 SWAP1 PUSH2 0x2540 JUMP JUMPDEST PUSH2 0x1DA9 JUMPI PUSH1 0x40 MLOAD PUSH3 0x461BCD PUSH1 0xE5 SHL DUP2 MSTORE PUSH1 0x20 PUSH1 0x4 DUP3 ADD DUP2 SWAP1 MSTORE PUSH1 0x24 DUP3 ADD MSTORE PUSH32 0x457363726F775661756C743A207472616E7366657246726F6D206661696C6564 PUSH1 0x44 DUP3 ADD MSTORE PUSH1 0x64 ADD PUSH2 0x61F JUMP JUMPDEST POP POP POP POP POP POP JUMP JUMPDEST PUSH1 0x40 DUP1 MLOAD PUSH1 0x1 PUSH1 0x1 PUSH1 0xA0 SHL SUB DUP5 DUP2 AND PUSH1 0x24 DUP4 ADD MSTORE PUSH1 0x44 DUP1 DUP4 ADD DUP6 SWAP1 MSTORE DUP4 MLOAD DUP1 DUP5 SUB SWAP1 SWAP2 ADD DUP2 MSTORE PUSH1 0x64 SWAP1 SWAP3 ADD DUP4 MSTORE PUSH1 0x20 DUP3 ADD DUP1 MLOAD PUSH1 0x1 PUSH1 0x1 PUSH1 0xE0 SHL SUB AND PUSH4 0xA9059CBB PUSH1 0xE0 SHL OR SWAP1 MSTORE SWAP2 MLOAD PUSH1 0x0 SWAP3 DUP4 SWAP3 SWAP1 DUP8 AND SWAP2 PUSH2 0x1E0D SWAP2 SWAP1 PUSH2 0x2524 JUMP JUMPDEST PUSH1 0x0 PUSH1 0x40 MLOAD DUP1 DUP4 SUB DUP2 PUSH1 0x0 DUP7 GAS CALL SWAP2 POP POP RETURNDATASIZE DUP1 PUSH1 0x0 DUP2 EQ PUSH2 0x1E4A JUMPI PUSH1 0x40 MLOAD SWAP2 POP PUSH1 0x1F NOT PUSH1 0x3F RETURNDATASIZE ADD AND DUP3 ADD PUSH1 0x40 MSTORE RETURNDATASIZE DUP3 MSTORE RETURNDATASIZE PUSH1 0x0 PUSH1 0x20 DUP5 ADD RETURNDATACOPY PUSH2 0x1E4F JUMP JUMPDEST PUSH1 0x60 SWAP2 POP JUMPDEST POP SWAP2 POP SWAP2 POP DUP2 DUP1 ISZERO PUSH2 0x1E79 JUMPI POP DUP1 MLOAD ISZERO DUP1 PUSH2 0x1E79 JUMPI POP DUP1 DUP1 PUSH1 0x20 ADD SWAP1 MLOAD DUP2 ADD SWAP1 PUSH2 0x1E79 SWAP2 SWAP1 PUSH2 0x2540 JUMP JUMPDEST PUSH2 0x1EC5 JUMPI PUSH1 0x40 MLOAD PUSH3 0x461BCD PUSH1 0xE5 SHL DUP2 MSTORE PUSH1 0x20 PUSH1 0x4 DUP3 ADD MSTORE PUSH1 0x1C PUSH1 0x24 DUP3 ADD MSTORE PUSH32 0x457363726F775661756C743A207472616E73666572206661696C656400000000 PUSH1 0x44 DUP3 ADD MSTORE PUSH1 0x64 ADD PUSH2 0x61F JUMP JUMPDEST POP POP POP POP POP JUMP JUMPDEST PUSH1 0x5 DUP2 ADD SLOAD PUSH1 0x4 DUP3 ADD SLOAD PUSH1 0x0 SWAP1 PUSH2 0x1EE4 SWAP1 DUP4 SWAP1 PUSH2 0x2511 JUMP JUMPDEST SWAP1 POP DUP2 PUSH1 0x8 PUSH1 0x0 DUP3 DUP3 SLOAD PUSH2 0x1EF8 SWAP2 SWAP1 PUSH2 0x236A JUMP JUMPDEST SWAP1 SWAP2 SSTORE POP POP PUSH1 0x3 DUP4 ADD SLOAD PUSH2 0x1F37 SWAP1 PUSH32 0x0 SWAP1 PUSH1 0x1 PUSH1 0x1 PUSH1 0xA0 SHL SUB AND DUP4 PUSH2 0x1DB1 JUMP JUMPDEST DUP3 SLOAD PUSH1 0x3 DUP5 ADD SLOAD PUSH1 0x40 DUP1 MLOAD PUSH1 0x1 PUSH1 0x1 PUSH1 0xA0 SHL SUB SWAP1 SWAP3 AND DUP3 MSTORE PUSH1 0x20 DUP3 ADD DUP5 SWAP1 MSTORE DUP2 ADD DUP5 SWAP1 MSTORE PUSH32 0x7DD78B97459A0754E75D3D53BBD26AFD8A683F317C40B50EEA07D05C49F966B SWAP1 PUSH1 0x60 ADD PUSH1 0x40 MLOAD DUP1 SWAP2 SUB SWAP1 LOG2 POP POP POP JUMP JUMPDEST PUSH1 0x40 MLOAD DUP1 PUSH2 0x140 ADD PUSH1 0x40 MSTORE DUP1 PUSH1 0x0 DUP2 MSTORE PUSH1 0x20 ADD PUSH1 0x0 DUP2 MSTORE PUSH1 0x20 ADD PUSH1 0x0 PUSH1 0x1 PUSH1 0x1 PUSH1 0xA0 SHL SUB AND DUP2 MSTORE PUSH1 0x20 ADD PUSH1 0x0 PUSH1 0x1 PUSH1 0x1 PUSH1 0xA0 SHL SUB AND DUP2 MSTORE PUSH1 0x20 ADD PUSH1 0x0 DUP2 MSTORE PUSH1 0x20 ADD PUSH1 0x0 DUP2 MSTORE PUSH1 0x20 ADD PUSH1 0x0 DUP2 MSTORE PUSH1 0x20 ADD PUSH1 0x0 DUP2 MSTORE PUSH1 0x20 ADD PUSH1 0x0 PUSH1 0x8 DUP2 GT ISZERO PUSH2 0x1FF6 JUMPI PUSH2 0x1FF6 PUSH2 0x201C JUMP JUMPDEST DUP2 MSTORE PUSH1 0x20 ADD PUSH1 0x60 DUP2 MSTORE POP SWAP1 JUMP JUMPDEST PUSH1 0x0 PUSH1 0x20 DUP3 DUP5 SUB SLT ISZERO PUSH2 0x2015 JUMPI PUSH1 0x0 DUP1 REVERT JUMPDEST POP CALLDATALOAD SWAP2 SWAP1 POP JUMP JUMPDEST PUSH4 0x4E487B71 PUSH1 0xE0 SHL PUSH1 0x0 MSTORE PUSH1 0x21 PUSH1 0x4 MSTORE PUSH1 0x24 PUSH1 0x0 REVERT JUMPDEST PUSH1 0x9 DUP2 LT PUSH2 0x2050 JUMPI PUSH4 0x4E487B71 PUSH1 0xE0 SHL PUSH1 0x0 MSTORE PUSH1 0x21 PUSH1 0x4 MSTORE PUSH1 0x24 PUSH1 0x0 REVERT JUMPDEST SWAP1 MSTORE JUMP JUMPDEST PUSH1 0x0 JUMPDEST DUP4 DUP2 LT ISZERO PUSH2 0x206F JUMPI DUP2 DUP2 ADD MLOAD DUP4 DUP3 ADD MSTORE PUSH1 0x20 ADD PUSH2 0x2057 JUMP JUMPDEST POP POP PUSH1 0x0 SWAP2 ADD MSTORE JUMP JUMPDEST PUSH1 0x0 DUP2 MLOAD DUP1 DUP5 MSTORE PUSH2 0x2090 DUP2 PUSH1 0x20 DUP7 ADD PUSH1 0x20 DUP7 ADD PUSH2 0x2054 JUMP JUMPDEST PUSH1 0x1F ADD PUSH1 0x1F NOT AND SWAP3 SWAP1 SWAP3 ADD PUSH1 0x20 ADD SWAP3 SWAP2 POP POP JUMP JUMPDEST DUP11 DUP2 MSTORE DUP10 PUSH1 0x20 DUP3 ADD MSTORE PUSH1 0x1 PUSH1 0x1 PUSH1 0xA0 SHL SUB DUP10 AND PUSH1 0x40 DUP3 ADD MSTORE PUSH1 0x1 PUSH1 0x1 PUSH1 0xA0 SHL SUB DUP9 AND PUSH1 0x60 DUP3 ADD MSTORE DUP7 PUSH1 0x80 DUP3 ADD MSTORE DUP6 PUSH1 0xA0 DUP3 ADD MSTORE DUP5 PUSH1 0xC0 DUP3 ADD MSTORE DUP4 PUSH1 0xE0 DUP3 ADD MSTORE PUSH2 0x20F1 PUSH2 0x100 DUP3 ADD DUP5 PUSH2 0x2032 JUMP JUMPDEST PUSH2 0x140 PUSH2 0x120 DUP3 ADD MSTORE PUSH1 0x0 PUSH2 0x210A PUSH2 0x140 DUP4 ADD DUP5 PUSH2 0x2078 JUMP JUMPDEST SWAP13 SWAP12 POP POP POP POP POP POP POP POP POP POP POP POP JUMP JUMPDEST DUP1 CALLDATALOAD PUSH1 0x1 PUSH1 0x1 PUSH1 0xA0 SHL SUB DUP2 AND DUP2 EQ PUSH2 0x2131 JUMPI PUSH1 0x0 DUP1 REVERT JUMPDEST SWAP2 SWAP1 POP JUMP JUMPDEST PUSH1 0x0 DUP1 PUSH1 0x0 DUP1 PUSH1 0x0 DUP1 PUSH1 0xA0 DUP8 DUP10 SUB SLT ISZERO PUSH2 0x214F JUMPI PUSH1 0x0 DUP1 REVERT JUMPDEST DUP7 CALLDATALOAD SWAP6 POP PUSH2 0x215F PUSH1 0x20 DUP9 ADD PUSH2 0x211A JUMP JUMPDEST SWAP5 POP PUSH1 0x40 DUP8 ADD CALLDATALOAD SWAP4 POP PUSH1 0x60 DUP8 ADD CALLDATALOAD SWAP3 POP PUSH1 0x80 DUP8 ADD CALLDATALOAD PUSH8 0xFFFFFFFFFFFFFFFF DUP2 GT ISZERO PUSH2 0x2189 JUMPI PUSH1 0x0 DUP1 REVERT JUMPDEST DUP8 ADD PUSH1 0x1F DUP2 ADD DUP10 SGT PUSH2 0x219A JUMPI PUSH1 0x0 DUP1 REVERT JUMPDEST DUP1 CALLDATALOAD PUSH8 0xFFFFFFFFFFFFFFFF DUP2 GT ISZERO PUSH2 0x21B1 JUMPI PUSH1 0x0 DUP1 REVERT JUMPDEST DUP10 PUSH1 0x20 DUP3 DUP5 ADD ADD GT ISZERO PUSH2 0x21C3 JUMPI PUSH1 0x0 DUP1 REVERT JUMPDEST PUSH1 0x20 DUP3 ADD SWAP4 POP DUP1 SWAP3 POP POP POP SWAP3 SWAP6 POP SWAP3 SWAP6 POP SWAP3 SWAP6 JUMP JUMPDEST PUSH1 0x0 PUSH1 0x20 DUP3 DUP5 SUB SLT ISZERO PUSH2 0x21EA JUMPI PUSH1 0x0 DUP1 REVERT JUMPDEST PUSH2 0x21F3 DUP3 PUSH2 0x211A JUMP JUMPDEST SWAP4 SWAP3 POP POP POP JUMP JUMPDEST PUSH1 0x20 DUP2 MSTORE DUP2 MLOAD PUSH1 0x20 DUP3 ADD MSTORE PUSH1 0x20 DUP3 ADD MLOAD PUSH1 0x40 DUP3 ADD MSTORE PUSH1 0x0 PUSH1 0x40 DUP4 ADD MLOAD PUSH2 0x222B PUSH1 0x60 DUP5 ADD DUP3 PUSH1 0x1 PUSH1 0x1 PUSH1 0xA0 SHL SUB AND SWAP1 MSTORE JUMP JUMPDEST POP PUSH1 0x60 DUP4 ADD MLOAD PUSH1 0x1 PUSH1 0x1 PUSH1 0xA0 SHL SUB DUP2 AND PUSH1 0x80 DUP5 ADD MSTORE POP PUSH1 0x80 DUP4 ADD MLOAD PUSH1 0xA0 DUP4 ADD MSTORE PUSH1 0xA0 DUP4 ADD MLOAD PUSH1 0xC0 DUP4 ADD MSTORE PUSH1 0xC0 DUP4 ADD MLOAD PUSH1 0xE0 DUP4 ADD MSTORE PUSH1 0xE0 DUP4 ADD MLOAD PUSH2 0x100 DUP4 ADD MSTORE PUSH2 0x100 DUP4 ADD MLOAD PUSH2 0x227E PUSH2 0x120 DUP5 ADD DUP3 PUSH2 0x2032 JUMP JUMPDEST POP PUSH2 0x120 DUP4 ADD MLOAD PUSH2 0x140 DUP1 DUP5 ADD MSTORE PUSH2 0x229A PUSH2 0x160 DUP5 ADD DUP3 PUSH2 0x2078 JUMP JUMPDEST SWAP5 SWAP4 POP POP POP POP JUMP JUMPDEST PUSH1 0x0 DUP1 PUSH1 0x40 DUP4 DUP6 SUB SLT ISZERO PUSH2 0x22B5 JUMPI PUSH1 0x0 DUP1 REVERT JUMPDEST POP POP DUP1 CALLDATALOAD SWAP3 PUSH1 0x20 SWAP1 SWAP2 ADD CALLDATALOAD SWAP2 POP JUMP JUMPDEST PUSH1 0x20 DUP2 ADD PUSH2 0x142B DUP3 DUP5 PUSH2 0x2032 JUMP JUMPDEST DUP1 ISZERO ISZERO DUP2 EQ PUSH2 0x22E0 JUMPI PUSH1 0x0 DUP1 REVERT JUMPDEST POP JUMP JUMPDEST PUSH1 0x0 DUP1 PUSH1 0x40 DUP4 DUP6 SUB SLT ISZERO PUSH2 0x22F6 JUMPI PUSH1 0x0 DUP1 REVERT JUMPDEST PUSH2 0x22FF DUP4 PUSH2 0x211A JUMP JUMPDEST SWAP2 POP PUSH1 0x20 DUP4 ADD CALLDATALOAD PUSH2 0x230F DUP2 PUSH2 0x22D2 JUMP JUMPDEST DUP1 SWAP2 POP POP SWAP3 POP SWAP3 SWAP1 POP JUMP JUMPDEST PUSH1 0x1 DUP2 DUP2 SHR SWAP1 DUP3 AND DUP1 PUSH2 0x232E JUMPI PUSH1 0x7F DUP3 AND SWAP2 POP JUMPDEST PUSH1 0x20 DUP3 LT DUP2 SUB PUSH2 0x234E JUMPI PUSH4 0x4E487B71 PUSH1 0xE0 SHL PUSH1 0x0 MSTORE PUSH1 0x22 PUSH1 0x4 MSTORE PUSH1 0x24 PUSH1 0x0 REVERT JUMPDEST POP SWAP2 SWAP1 POP JUMP JUMPDEST PUSH4 0x4E487B71 PUSH1 0xE0 SHL PUSH1 0x0 MSTORE PUSH1 0x11 PUSH1 0x4 MSTORE PUSH1 0x24 PUSH1 0x0 REVERT JUMPDEST DUP1 DUP3 ADD DUP1 DUP3 GT ISZERO PUSH2 0x142B JUMPI PUSH2 0x142B PUSH2 0x2354 JUMP JUMPDEST DUP1 DUP3 MUL DUP2 ISZERO DUP3 DUP3 DIV DUP5 EQ OR PUSH2 0x142B JUMPI PUSH2 0x142B PUSH2 0x2354 JUMP JUMPDEST PUSH1 0x0 DUP3 PUSH2 0x23B1 JUMPI PUSH4 0x4E487B71 PUSH1 0xE0 SHL PUSH1 0x0 MSTORE PUSH1 0x12 PUSH1 0x4 MSTORE PUSH1 0x24 PUSH1 0x0 REVERT JUMPDEST POP DIV SWAP1 JUMP JUMPDEST PUSH1 0x0 PUSH1 0x1 DUP3 ADD PUSH2 0x23C8 JUMPI PUSH2 0x23C8 PUSH2 0x2354 JUMP JUMPDEST POP PUSH1 0x1 ADD SWAP1 JUMP JUMPDEST PUSH4 0x4E487B71 PUSH1 0xE0 SHL PUSH1 0x0 MSTORE PUSH1 0x41 PUSH1 0x4 MSTORE PUSH1 0x24 PUSH1 0x0 REVERT JUMPDEST PUSH1 0x1F DUP3 GT ISZERO PUSH2 0x242C JUMPI DUP1 PUSH1 0x0 MSTORE PUSH1 0x20 PUSH1 0x0 KECCAK256 PUSH1 0x1F DUP5 ADD PUSH1 0x5 SHR DUP2 ADD PUSH1 0x20 DUP6 LT ISZERO PUSH2 0x240C JUMPI POP DUP1 JUMPDEST PUSH1 0x1F DUP5 ADD PUSH1 0x5 SHR DUP3 ADD SWAP2 POP JUMPDEST DUP2 DUP2 LT ISZERO PUSH2 0x1EC5 JUMPI PUSH1 0x0 DUP2 SSTORE PUSH1 0x1 ADD PUSH2 0x2418 JUMP JUMPDEST POP POP POP JUMP JUMPDEST DUP2 MLOAD PUSH8 0xFFFFFFFFFFFFFFFF DUP2 GT ISZERO PUSH2 0x244B JUMPI PUSH2 0x244B PUSH2 0x23CF JUMP JUMPDEST PUSH2 0x245F DUP2 PUSH2 0x2459 DUP5 SLOAD PUSH2 0x231A JUMP JUMPDEST DUP5 PUSH2 0x23E5 JUMP JUMPDEST PUSH1 0x20 PUSH1 0x1F DUP3 GT PUSH1 0x1 DUP2 EQ PUSH2 0x2493 JUMPI PUSH1 0x0 DUP4 ISZERO PUSH2 0x247B JUMPI POP DUP5 DUP3 ADD MLOAD JUMPDEST PUSH1 0x0 NOT PUSH1 0x3 DUP6 SWAP1 SHL SHR NOT AND PUSH1 0x1 DUP5 SWAP1 SHL OR DUP5 SSTORE PUSH2 0x1EC5 JUMP JUMPDEST PUSH1 0x0 DUP5 DUP2 MSTORE PUSH1 0x20 DUP2 KECCAK256 PUSH1 0x1F NOT DUP6 AND SWAP2 JUMPDEST DUP3 DUP2 LT ISZERO PUSH2 0x24C3 JUMPI DUP8 DUP6 ADD MLOAD DUP3 SSTORE PUSH1 0x20 SWAP5 DUP6 ADD SWAP5 PUSH1 0x1 SWAP1 SWAP3 ADD SWAP2 ADD PUSH2 0x24A3 JUMP JUMPDEST POP DUP5 DUP3 LT ISZERO PUSH2 0x24E1 JUMPI DUP7 DUP5 ADD MLOAD PUSH1 0x0 NOT PUSH1 0x3 DUP8 SWAP1 SHL PUSH1 0xF8 AND SHR NOT AND DUP2 SSTORE JUMPDEST POP POP POP POP PUSH1 0x1 SWAP1 DUP2 SHL ADD SWAP1 SSTORE POP JUMP JUMPDEST DUP4 DUP2 MSTORE PUSH1 0x60 DUP2 ADD PUSH2 0x2504 PUSH1 0x20 DUP4 ADD DUP6 PUSH2 0x2032 JUMP JUMPDEST PUSH2 0x229A PUSH1 0x40 DUP4 ADD DUP5 PUSH2 0x2032 JUMP JUMPDEST DUP2 DUP2 SUB DUP2 DUP2 GT ISZERO PUSH2 0x142B JUMPI PUSH2 0x142B PUSH2 0x2354 JUMP JUMPDEST PUSH1 0x0 DUP3 MLOAD PUSH2 0x2536 DUP2 DUP5 PUSH1 0x20 DUP8 ADD PUSH2 0x2054 JUMP JUMPDEST SWAP2 SWAP1 SWAP2 ADD SWAP3 SWAP2 POP POP JUMP JUMPDEST PUSH1 0x0 PUSH1 0x20 DUP3 DUP5 SUB SLT ISZERO PUSH2 0x2552 JUMPI PUSH1 0x0 DUP1 REVERT JUMPDEST DUP2 MLOAD PUSH2 0x21F3 DUP2 PUSH2 0x22D2 JUMP INVALID GASLIMIT PUSH20 0x63726F775661756C743A207265656E7472616E74 KECCAK256 PUSH4 0x616C6C00 STOP STOP STOP STOP LOG2 PUSH5 0x6970667358 0x22 SLT KECCAK256 0xF8 0xEE 0x28 0xC0 SHL 0xB9 PUSH32 0xEB7726ED10E62F08AFC915CBAA7AA3EB3148D3A5F2F5AB8C7564736F6C634300 ADDMOD SHR STOP CALLER "},"methodIdentifiers":{"BPS_DENOMINATOR()":"e1a45218","EXPRESS_PREMIUM_BPS()":"25de8e81","MAX_DEAL_DURATION()":"015d0a87","MIN_DEAL_AMOUNT()":"2c7f556a","PLATFORM_FEE_BPS()":"539aa77f","acceptAdmin()":"0e18b681","accumulatedFees()":"587f5ed7","admin()":"f851a440","authorizedWorkflows(address)":"6f7ab381","calculateFee(uint256)":"99a5d747","cancelDeal(uint256)":"31ea1a39","claimExpiredDeal(uint256)":"ab1a50a2","confirmDeal(uint256)":"5cb442bb","confirmDelivery(uint256)":"fd84cb97","createDeal(uint256,address,uint256,uint256,string)":"13c41cb9","deals(uint256)":"03988f84","disputeResolver()":"f5a3f4af","expressSettle(uint256)":"566f07da","feeCollector()":"c415b95c","getDeal(uint256)":"82fd5bac","getDealStatus(uint256)":"c698f53b","markDisputed(uint256)":"314b6835","markShipped(uint256)":"eed90d6b","nextDealId()":"4d9879e3","pendingAdmin()":"26782247","purchaseOrderContract()":"89fa505d","resolveDispute(uint256,uint256)":"bdc84ac3","setAuthorizedWorkflow(address,bool)":"dc941765","setDisputeResolver(address)":"924e63f6","setFeeCollector(address)":"a42dce80","setPurchaseOrderContract(address)":"60f69209","transferAdmin(address)":"75829def","usdc()":"3e413bee","withdrawFees()":"476343ee"}}}}}