{
  "_format": "hh3-artifact-1",
  "contractName": "AgentRegistry",
  "sourceName": "src/contracts/AgentRegistry.sol",
  "abi": [
    {
      "inputs": [
        {
          "internalType": "address",
          "name": "_admin",
          "type": "address"
        }
      ],
      "stateMutability": "nonpayable",
      "type": "constructor"
    },
    {
      "inputs": [
        {
          "internalType": "uint256",
          "name": "agentId",
          "type": "uint256"
        }
      ],
      "name": "AgentInactive",
      "type": "error"
    },
    {
      "inputs": [
        {
          "internalType": "uint256",
          "name": "agentId",
          "type": "uint256"
        }
      ],
      "name": "AgentNotFound",
      "type": "error"
    },
    {
      "inputs": [],
      "name": "InvalidOrderRange",
      "type": "error"
    },
    {
      "inputs": [
        {
          "internalType": "address",
          "name": "owner",
          "type": "address"
        },
        {
          "internalType": "uint256",
          "name": "max",
          "type": "uint256"
        }
      ],
      "name": "MaxAgentsReached",
      "type": "error"
    },
    {
      "inputs": [
        {
          "internalType": "uint256",
          "name": "agentId",
          "type": "uint256"
        },
        {
          "internalType": "address",
          "name": "caller",
          "type": "address"
        }
      ],
      "name": "NotAgentOwner",
      "type": "error"
    },
    {
      "anonymous": false,
      "inputs": [
        {
          "indexed": true,
          "internalType": "uint256",
          "name": "agentId",
          "type": "uint256"
        },
        {
          "indexed": true,
          "internalType": "address",
          "name": "owner",
          "type": "address"
        }
      ],
      "name": "AgentCreated",
      "type": "event"
    },
    {
      "anonymous": false,
      "inputs": [
        {
          "indexed": true,
          "internalType": "uint256",
          "name": "agentId",
          "type": "uint256"
        }
      ],
      "name": "AgentDeactivated",
      "type": "event"
    },
    {
      "anonymous": false,
      "inputs": [
        {
          "indexed": true,
          "internalType": "uint256",
          "name": "agentId",
          "type": "uint256"
        }
      ],
      "name": "AgentReactivated",
      "type": "event"
    },
    {
      "anonymous": false,
      "inputs": [
        {
          "indexed": true,
          "internalType": "uint256",
          "name": "agentId",
          "type": "uint256"
        },
        {
          "indexed": false,
          "internalType": "uint256",
          "name": "totalDeals",
          "type": "uint256"
        },
        {
          "indexed": false,
          "internalType": "uint256",
          "name": "totalVolume",
          "type": "uint256"
        },
        {
          "indexed": false,
          "internalType": "uint256",
          "name": "successRate",
          "type": "uint256"
        }
      ],
      "name": "AgentStatsUpdated",
      "type": "event"
    },
    {
      "anonymous": false,
      "inputs": [
        {
          "indexed": true,
          "internalType": "uint256",
          "name": "agentId",
          "type": "uint256"
        }
      ],
      "name": "AgentUpdated",
      "type": "event"
    },
    {
      "inputs": [],
      "name": "MAX_AGENTS_BUSINESS",
      "outputs": [
        {
          "internalType": "uint256",
          "name": "",
          "type": "uint256"
        }
      ],
      "stateMutability": "view",
      "type": "function"
    },
    {
      "inputs": [],
      "name": "MAX_AGENTS_FREE",
      "outputs": [
        {
          "internalType": "uint256",
          "name": "",
          "type": "uint256"
        }
      ],
      "stateMutability": "view",
      "type": "function"
    },
    {
      "inputs": [],
      "name": "MAX_AGENTS_PRO",
      "outputs": [
        {
          "internalType": "uint256",
          "name": "",
          "type": "uint256"
        }
      ],
      "stateMutability": "view",
      "type": "function"
    },
    {
      "inputs": [],
      "name": "MAX_CATEGORIES_PER_AGENT",
      "outputs": [
        {
          "internalType": "uint256",
          "name": "",
          "type": "uint256"
        }
      ],
      "stateMutability": "view",
      "type": "function"
    },
    {
      "inputs": [],
      "name": "acceptAdmin",
      "outputs": [],
      "stateMutability": "nonpayable",
      "type": "function"
    },
    {
      "inputs": [],
      "name": "admin",
      "outputs": [
        {
          "internalType": "address",
          "name": "",
          "type": "address"
        }
      ],
      "stateMutability": "view",
      "type": "function"
    },
    {
      "inputs": [
        {
          "internalType": "address",
          "name": "",
          "type": "address"
        }
      ],
      "name": "authorizedUpdaters",
      "outputs": [
        {
          "internalType": "bool",
          "name": "",
          "type": "bool"
        }
      ],
      "stateMutability": "view",
      "type": "function"
    },
    {
      "inputs": [
        {
          "internalType": "address[]",
          "name": "users",
          "type": "address[]"
        },
        {
          "internalType": "uint8[]",
          "name": "tiers",
          "type": "uint8[]"
        }
      ],
      "name": "batchSetUserTier",
      "outputs": [],
      "stateMutability": "nonpayable",
      "type": "function"
    },
    {
      "inputs": [
        {
          "internalType": "string[]",
          "name": "categories",
          "type": "string[]"
        },
        {
          "internalType": "uint256",
          "name": "minOrderSize",
          "type": "uint256"
        },
        {
          "internalType": "uint256",
          "name": "maxOrderSize",
          "type": "uint256"
        }
      ],
      "name": "createAgent",
      "outputs": [
        {
          "internalType": "uint256",
          "name": "agentId",
          "type": "uint256"
        }
      ],
      "stateMutability": "nonpayable",
      "type": "function"
    },
    {
      "inputs": [
        {
          "internalType": "uint256",
          "name": "agentId",
          "type": "uint256"
        }
      ],
      "name": "deactivateAgent",
      "outputs": [],
      "stateMutability": "nonpayable",
      "type": "function"
    },
    {
      "inputs": [
        {
          "internalType": "uint256",
          "name": "agentId",
          "type": "uint256"
        }
      ],
      "name": "getAgent",
      "outputs": [
        {
          "components": [
            {
              "internalType": "uint256",
              "name": "agentId",
              "type": "uint256"
            },
            {
              "internalType": "address",
              "name": "owner",
              "type": "address"
            },
            {
              "internalType": "string[]",
              "name": "productCategories",
              "type": "string[]"
            },
            {
              "internalType": "uint256",
              "name": "minOrderSize",
              "type": "uint256"
            },
            {
              "internalType": "uint256",
              "name": "maxOrderSize",
              "type": "uint256"
            },
            {
              "internalType": "bool",
              "name": "active",
              "type": "bool"
            },
            {
              "internalType": "uint256",
              "name": "createdAt",
              "type": "uint256"
            },
            {
              "internalType": "uint256",
              "name": "totalDeals",
              "type": "uint256"
            },
            {
              "internalType": "uint256",
              "name": "totalVolume",
              "type": "uint256"
            },
            {
              "internalType": "uint256",
              "name": "successRate",
              "type": "uint256"
            }
          ],
          "internalType": "struct AgentConfig",
          "name": "config",
          "type": "tuple"
        },
        {
          "internalType": "string[]",
          "name": "categories",
          "type": "string[]"
        }
      ],
      "stateMutability": "view",
      "type": "function"
    },
    {
      "inputs": [
        {
          "internalType": "uint256",
          "name": "agentId",
          "type": "uint256"
        }
      ],
      "name": "getAgentOwner",
      "outputs": [
        {
          "internalType": "address",
          "name": "",
          "type": "address"
        }
      ],
      "stateMutability": "view",
      "type": "function"
    },
    {
      "inputs": [
        {
          "internalType": "uint256",
          "name": "agentId",
          "type": "uint256"
        }
      ],
      "name": "getAgentStats",
      "outputs": [
        {
          "internalType": "uint256",
          "name": "totalDeals",
          "type": "uint256"
        },
        {
          "internalType": "uint256",
          "name": "totalVolume",
          "type": "uint256"
        },
        {
          "internalType": "uint256",
          "name": "successRate",
          "type": "uint256"
        }
      ],
      "stateMutability": "view",
      "type": "function"
    },
    {
      "inputs": [
        {
          "internalType": "address",
          "name": "owner",
          "type": "address"
        }
      ],
      "name": "getAgentsByOwner",
      "outputs": [
        {
          "internalType": "uint256[]",
          "name": "",
          "type": "uint256[]"
        }
      ],
      "stateMutability": "view",
      "type": "function"
    },
    {
      "inputs": [
        {
          "internalType": "uint256",
          "name": "agentId",
          "type": "uint256"
        }
      ],
      "name": "isAgentActive",
      "outputs": [
        {
          "internalType": "bool",
          "name": "",
          "type": "bool"
        }
      ],
      "stateMutability": "view",
      "type": "function"
    },
    {
      "inputs": [],
      "name": "nextAgentId",
      "outputs": [
        {
          "internalType": "uint256",
          "name": "",
          "type": "uint256"
        }
      ],
      "stateMutability": "view",
      "type": "function"
    },
    {
      "inputs": [
        {
          "internalType": "address",
          "name": "",
          "type": "address"
        },
        {
          "internalType": "uint256",
          "name": "",
          "type": "uint256"
        }
      ],
      "name": "ownerAgents",
      "outputs": [
        {
          "internalType": "uint256",
          "name": "",
          "type": "uint256"
        }
      ],
      "stateMutability": "view",
      "type": "function"
    },
    {
      "inputs": [],
      "name": "pendingAdmin",
      "outputs": [
        {
          "internalType": "address",
          "name": "",
          "type": "address"
        }
      ],
      "stateMutability": "view",
      "type": "function"
    },
    {
      "inputs": [
        {
          "internalType": "uint256",
          "name": "agentId",
          "type": "uint256"
        }
      ],
      "name": "reactivateAgent",
      "outputs": [],
      "stateMutability": "nonpayable",
      "type": "function"
    },
    {
      "inputs": [
        {
          "internalType": "uint256",
          "name": "agentId",
          "type": "uint256"
        },
        {
          "internalType": "uint256",
          "name": "volume",
          "type": "uint256"
        },
        {
          "internalType": "bool",
          "name": "success",
          "type": "bool"
        }
      ],
      "name": "recordDealCompletion",
      "outputs": [],
      "stateMutability": "nonpayable",
      "type": "function"
    },
    {
      "inputs": [
        {
          "internalType": "address",
          "name": "updater",
          "type": "address"
        },
        {
          "internalType": "bool",
          "name": "authorized",
          "type": "bool"
        }
      ],
      "name": "setAuthorizedUpdater",
      "outputs": [],
      "stateMutability": "nonpayable",
      "type": "function"
    },
    {
      "inputs": [
        {
          "internalType": "address",
          "name": "user",
          "type": "address"
        },
        {
          "internalType": "uint8",
          "name": "tier",
          "type": "uint8"
        }
      ],
      "name": "setUserTier",
      "outputs": [],
      "stateMutability": "nonpayable",
      "type": "function"
    },
    {
      "inputs": [
        {
          "internalType": "address",
          "name": "newAdmin",
          "type": "address"
        }
      ],
      "name": "transferAdmin",
      "outputs": [],
      "stateMutability": "nonpayable",
      "type": "function"
    },
    {
      "inputs": [
        {
          "internalType": "uint256",
          "name": "agentId",
          "type": "uint256"
        },
        {
          "internalType": "string[]",
          "name": "categories",
          "type": "string[]"
        }
      ],
      "name": "updateCategories",
      "outputs": [],
      "stateMutability": "nonpayable",
      "type": "function"
    },
    {
      "inputs": [
        {
          "internalType": "uint256",
          "name": "agentId",
          "type": "uint256"
        },
        {
          "internalType": "uint256",
          "name": "minOrderSize",
          "type": "uint256"
        },
        {
          "internalType": "uint256",
          "name": "maxOrderSize",
          "type": "uint256"
        }
      ],
      "name": "updateOrderLimits",
      "outputs": [],
      "stateMutability": "nonpayable",
      "type": "function"
    },
    {
      "inputs": [
        {
          "internalType": "address",
          "name": "",
          "type": "address"
        }
      ],
      "name": "userTier",
      "outputs": [
        {
          "internalType": "uint8",
          "name": "",
          "type": "uint8"
        }
      ],
      "stateMutability": "view",
      "type": "function"
    }
  ],
  "bytecode": "0x6080604052348015600f57600080fd5b50604051611f8a380380611f8a833981016040819052602c9160ae565b6001600160a01b03811660855760405162461bcd60e51b815260206004820152601960248201527f4167656e7452656769737472793a207a65726f2061646d696e00000000000000604482015260640160405180910390fd5b600080546001600160a01b0319166001600160a01b0392909216919091179055600160075560dc565b60006020828403121560bf57600080fd5b81516001600160a01b038116811460d557600080fd5b9392505050565b611e9f806100eb6000396000f3fe608060405234801561001057600080fd5b50600436106101ae5760003560e01c80638ff29cfe116100ee578063cfa5e2f611610097578063e44797fc11610071578063e44797fc146103fe578063f851a44014610411578063fa78504414610424578063fd6103171461042c57600080fd5b8063cfa5e2f6146103d0578063d9eab7c4146103d8578063dfddf8df146103eb57600080fd5b8063a04725c6116100c8578063a04725c614610389578063a68dd9c81461039c578063c85cefd9146103c857600080fd5b80638ff29cfe1461034b57806396f67a571461036e57806399fc65d41461037657600080fd5b80632e739ad31161015b578063444056e411610135578063444056e4146102c757806362febe4f146102da57806368091633146102ed57806375829def1461033857600080fd5b80632e739ad31461027a57806330efc4981461028d578063392d2d8e146102a457600080fd5b806321c7557c1161018c57806321c7557c146101f9578063267822471461022e5780632de5aaf71461025957600080fd5b80630e18b681146101b357806311ba6b4a146101bd5780631ab6f888146101d0575b600080fd5b6101bb61043f565b005b6101bb6101cb366004611702565b6104c5565b6101e36101de366004611737565b6105be565b6040516101f09190611759565b60405180910390f35b61021c610207366004611737565b60066020526000908152604090205460ff1681565b60405160ff90911681526020016101f0565b600154610241906001600160a01b031681565b6040516001600160a01b0390911681526020016101f0565b61026c610267366004611702565b61062a565b6040516101f092919061182f565b6101bb6102883660046118e5565b610908565b61029660075481565b6040519081526020016101f0565b6102b76102b2366004611702565b6109f3565b60405190151581526020016101f0565b6101bb6102d536600461195d565b610a33565b6102966102e83660046119ce565b610be8565b61031d6102fb366004611702565b6000908152600360205260409020600781015460088201546009909201549092565b604080519384526020840192909252908201526060016101f0565b6101bb610346366004611737565b610c19565b6102b7610359366004611737565b60026020526000908152604090205460ff1681565b610296601481565b6101bb610384366004611a08565b610ce6565b6101bb610397366004611a4c565b610dbc565b6102416103aa366004611702565b6000908152600360205260409020600101546001600160a01b031690565b610296600a81565b610296600381565b6101bb6103e6366004611a76565b610e92565b6102966103f9366004611ac2565b611027565b6101bb61040c366004611b13565b611300565b600054610241906001600160a01b031681565b610296600681565b6101bb61043a366004611702565b6114b7565b6001546001600160a01b0316331461049e5760405162461bcd60e51b815260206004820181905260248201527f4167656e7452656769737472793a206e6f742070656e64696e672061646d696e60448201526064015b60405180910390fd5b60018054600080546001600160a01b03199081166001600160a01b03841617909155169055565b60008181526003602052604090206001015481906001600160a01b031661050257604051630ede975960e01b815260048101829052602401610495565b6000818152600360205260409020600101546001600160a01b03163314610545576040516304ffad3160e21b815260048101829052336024820152604401610495565b60008281526003602052604090206005015460ff1661057a57604051632f0e043560e11b815260048101839052602401610495565b600082815260036020526040808220600501805460ff191690555183917fc2fb7f8575ac3990e70361684edfc4d283931ea9a03dfa28766bf376a3934aa291a25050565b6001600160a01b03811660009081526005602090815260409182902080548351818402810184019094528084526060939283018282801561061e57602002820191906000526020600020905b81548152602001906001019080831161060a575b50505050509050919050565b61068b6040518061014001604052806000815260200160006001600160a01b03168152602001606081526020016000815260200160008152602001600015158152602001600081526020016000815260200160008152602001600081525090565b6000828152600360205260409020600101546060906001600160a01b03166106c957604051630ede975960e01b815260048101849052602401610495565b60008381526003602090815260408083208151610140810183528154815260018201546001600160a01b031681850152600282018054845181870281018701865281815292969395948701949293919290919084015b828210156107cb57838290600052602060002001805461073e90611b48565b80601f016020809104026020016040519081016040528092919081815260200182805461076a90611b48565b80156107b75780601f1061078c576101008083540402835291602001916107b7565b820191906000526020600020905b81548152906001019060200180831161079a57829003601f168201915b50505050508152602001906001019061071f565b505050908252506003820154602080830191909152600480840154604080850191909152600585015460ff161515606085015260068501546080850152600785015460a0850152600885015460c085015260099094015460e090930192909252600087815291815282822080548451818402810184019095528085529496509293919084015b828210156108fd57838290600052602060002001805461087090611b48565b80601f016020809104026020016040519081016040528092919081815260200182805461089c90611b48565b80156108e95780601f106108be576101008083540402835291602001916108e9565b820191906000526020600020905b8154815290600101906020018083116108cc57829003601f168201915b505050505081526020019060010190610851565b505050509050915091565b60008381526003602052604090206001015483906001600160a01b031661094557604051630ede975960e01b815260048101829052602401610495565b6000818152600360205260409020600101546001600160a01b03163314610988576040516304ffad3160e21b815260048101829052336024820152604401610495565b8183106109a857604051637ca9a80560e01b815260040160405180910390fd5b600084815260036020819052604080832091820186905560049091018490555185917ff9ad94c5cd385423b7d420bd953716dc348c65914cceb49759c095b7ba0064a991a250505050565b60008181526003602052604081206005015460ff168015610a2d57506000828152600360205260409020600101546001600160a01b031615155b92915050565b6000546001600160a01b03163314610a885760405162461bcd60e51b815260206004820152601860248201527720b3b2b73a2932b3b4b9ba393c9d103737ba1030b236b4b760411b6044820152606401610495565b828114610ad75760405162461bcd60e51b815260206004820152601e60248201527f4167656e7452656769737472793a206c656e677468206d69736d6174636800006044820152606401610495565b60005b83811015610be1576003838383818110610af657610af6611b82565b9050602002016020810190610b0b9190611b98565b60ff161115610b5c5760405162461bcd60e51b815260206004820152601b60248201527f4167656e7452656769737472793a20696e76616c6964207469657200000000006044820152606401610495565b828282818110610b6e57610b6e611b82565b9050602002016020810190610b839190611b98565b60066000878785818110610b9957610b99611b82565b9050602002016020810190610bae9190611737565b6001600160a01b031681526020810191909152604001600020805460ff191660ff92909216919091179055600101610ada565b5050505050565b60056020528160005260406000208181548110610c0457600080fd5b90600052602060002001600091509150505481565b6000546001600160a01b03163314610c6e5760405162461bcd60e51b815260206004820152601860248201527720b3b2b73a2932b3b4b9ba393c9d103737ba1030b236b4b760411b6044820152606401610495565b6001600160a01b038116610cc45760405162461bcd60e51b815260206004820152601b60248201527f4167656e7452656769737472793a207a65726f206164647265737300000000006044820152606401610495565b600180546001600160a01b0319166001600160a01b0392909216919091179055565b6000546001600160a01b03163314610d3b5760405162461bcd60e51b815260206004820152601860248201527720b3b2b73a2932b3b4b9ba393c9d103737ba1030b236b4b760411b6044820152606401610495565b6001600160a01b038216610d915760405162461bcd60e51b815260206004820152601b60248201527f4167656e7452656769737472793a207a65726f206164647265737300000000006044820152606401610495565b6001600160a01b03919091166000908152600260205260409020805460ff1916911515919091179055565b6000546001600160a01b03163314610e115760405162461bcd60e51b815260206004820152601860248201527720b3b2b73a2932b3b4b9ba393c9d103737ba1030b236b4b760411b6044820152606401610495565b60038160ff161115610e655760405162461bcd60e51b815260206004820152601b60248201527f4167656e7452656769737472793a20696e76616c6964207469657200000000006044820152606401610495565b6001600160a01b03919091166000908152600660205260409020805460ff191660ff909216919091179055565b60008381526003602052604090206001015483906001600160a01b0316610ecf57604051630ede975960e01b815260048101829052602401610495565b6000818152600360205260409020600101546001600160a01b03163314610f12576040516304ffad3160e21b815260048101829052336024820152604401610495565b8115801590610f22575060148211155b610f785760405162461bcd60e51b815260206004820152602160248201527f4167656e7452656769737472793a20696e76616c69642063617465676f7269656044820152607360f81b6064820152608401610495565b6000848152600460205260408120610f8f91611624565b60005b82811015610ff5576000858152600460205260409020848483818110610fba57610fba611b82565b9050602002810190610fcc9190611bb3565b82546001810184556000938452602090932090920191610fec9183611c5c565b50600101610f92565b5060405184907ff9ad94c5cd385423b7d420bd953716dc348c65914cceb49759c095b7ba0064a990600090a250505050565b600081831061104957604051637ca9a80560e01b815260040160405180910390fd5b8315801590611059575060148411155b6110af5760405162461bcd60e51b815260206004820152602160248201527f4167656e7452656769737472793a20696e76616c69642063617465676f7269656044820152607360f81b6064820152608401610495565b336000908152600660205260408120546110cb9060ff166115e0565b336000908152600560205260409020549091508111611106576040516334109d3360e11b815233600482015260248101829052604401610495565b6007805490600061111683611d32565b9091555060408051610140810182528281523360208201529193508101600060405190808252806020026020018201604052801561116857816020015b60608152602001906001900390816111535790505b50815260208082018790526040808301879052600160608401819052426080850152600060a0850181905260c0850181905260e09094018490528684526003835292819020845181558483015193810180546001600160a01b0319166001600160a01b039095169490941790935583015180516111eb9260028501920190611645565b50606082015160038201556080820151600482015560a082015160058201805460ff191691151591909117905560c0820151600682015560e0820151600782015561010082015160088201556101209091015160099091015560005b858110156112aa57600083815260046020526040902087878381811061126f5761126f611b82565b90506020028101906112819190611bb3565b825460018101845560009384526020909320909201916112a19183611c5c565b50600101611247565b5033600081815260056020908152604080832080546001810182559084529183209091018590555184917fa70099852e9c3325724165514adc9d6f8dd55c4708c923dbf3219c4fc6f8aefc91a350949350505050565b3360009081526002602052604090205460ff1661136d5760405162461bcd60e51b815260206004820152602560248201527f4167656e7452656769737472793a206e6f7420617574686f72697a65642075706044820152643230ba32b960d91b6064820152608401610495565b6000838152600360205260409020600101546001600160a01b03166113a857604051630ede975960e01b815260048101849052602401610495565b600083815260036020526040812060078101805491926001926113cc908490611d4b565b92505081905550828160080160008282546113e79190611d4b565b90915550508115611431576007810154611402600182611d5e565b82600901546114119190611d71565b61141d90612710611d4b565b6114279190611d88565b6009820155611460565b6007810154611441600182611d5e565b82600901546114509190611d71565b61145a9190611d88565b60098201555b6007810154600882015460098301546040805193845260208401929092529082015284907fe2b86be09edf0c2a3958669b7b3dc7ab7b735a2c55bb5ad1539e2400dc0ee7679060600160405180910390a250505050565b60008181526003602052604090206001015481906001600160a01b03166114f457604051630ede975960e01b815260048101829052602401610495565b6000818152600360205260409020600101546001600160a01b03163314611537576040516304ffad3160e21b815260048101829052336024820152604401610495565b60008281526003602052604090206005015460ff16156115995760405162461bcd60e51b815260206004820152601d60248201527f4167656e7452656769737472793a20616c7265616479206163746976650000006044820152606401610495565b600082815260036020526040808220600501805460ff191660011790555183917f7cce21c1f4552995dccace889e9ad45febf59c654d3fd1d7ab0457fa1439aa2c91a25050565b60008160ff166000036115f557506003919050565b8160ff1660010361160857506006919050565b8160ff1660020361161b5750600a919050565b50600019919050565b5080546000825590600052602060002090810190611642919061169b565b50565b82805482825590600052602060002090810192821561168b579160200282015b8281111561168b578251829061167b9082611daa565b5091602001919060010190611665565b5061169792915061169b565b5090565b808211156116975760006116af82826116b8565b5060010161169b565b5080546116c490611b48565b6000825580601f106116d4575050565b601f01602090049060005260206000209081019061164291905b8082111561169757600081556001016116ee565b60006020828403121561171457600080fd5b5035919050565b80356001600160a01b038116811461173257600080fd5b919050565b60006020828403121561174957600080fd5b6117528261171b565b9392505050565b602080825282518282018190526000918401906040840190835b81811015611791578351835260209384019390920191600101611773565b509095945050505050565b600082825180855260208501945060208160051b8301016020850160005b8381101561182357848303601f190188528151805180855260005b818110156117f1576020818401810151878301820152016117d5565b506000602082870101526020601f19601f830116860101945050506020820191506020880197506001810190506117ba565b50909695505050505050565b60408152825160408201526000602084015161185660608401826001600160a01b03169052565b506040840151610140608084015261187261018084018261179c565b9050606085015160a0840152608085015160c084015260a085015161189b60e085018215159052565b5060c085015161010084015260e085015161012084015261010085015161014084015261012085015161016084015282810360208401526118dc818561179c565b95945050505050565b6000806000606084860312156118fa57600080fd5b505081359360208301359350604090920135919050565b60008083601f84011261192357600080fd5b50813567ffffffffffffffff81111561193b57600080fd5b6020830191508360208260051b850101111561195657600080fd5b9250929050565b6000806000806040858703121561197357600080fd5b843567ffffffffffffffff81111561198a57600080fd5b61199687828801611911565b909550935050602085013567ffffffffffffffff8111156119b657600080fd5b6119c287828801611911565b95989497509550505050565b600080604083850312156119e157600080fd5b6119ea8361171b565b946020939093013593505050565b8035801515811461173257600080fd5b60008060408385031215611a1b57600080fd5b611a248361171b565b9150611a32602084016119f8565b90509250929050565b803560ff8116811461173257600080fd5b60008060408385031215611a5f57600080fd5b611a688361171b565b9150611a3260208401611a3b565b600080600060408486031215611a8b57600080fd5b83359250602084013567ffffffffffffffff811115611aa957600080fd5b611ab586828701611911565b9497909650939450505050565b60008060008060608587031215611ad857600080fd5b843567ffffffffffffffff811115611aef57600080fd5b611afb87828801611911565b90989097506020870135966040013595509350505050565b600080600060608486031215611b2857600080fd5b8335925060208401359150611b3f604085016119f8565b90509250925092565b600181811c90821680611b5c57607f821691505b602082108103611b7c57634e487b7160e01b600052602260045260246000fd5b50919050565b634e487b7160e01b600052603260045260246000fd5b600060208284031215611baa57600080fd5b61175282611a3b565b6000808335601e19843603018112611bca57600080fd5b83018035915067ffffffffffffffff821115611be557600080fd5b60200191503681900382131561195657600080fd5b634e487b7160e01b600052604160045260246000fd5b601f821115611c5757806000526020600020601f840160051c81016020851015611c375750805b601f840160051c820191505b81811015610be15760008155600101611c43565b505050565b67ffffffffffffffff831115611c7457611c74611bfa565b611c8883611c828354611b48565b83611c10565b6000601f841160018114611cbc5760008515611ca45750838201355b600019600387901b1c1916600186901b178355610be1565b600083815260209020601f19861690835b82811015611ced5786850135825560209485019460019092019101611ccd565b5086821015611d0a5760001960f88860031b161c19848701351681555b505060018560011b0183555050505050565b634e487b7160e01b600052601160045260246000fd5b600060018201611d4457611d44611d1c565b5060010190565b80820180821115610a2d57610a2d611d1c565b81810381811115610a2d57610a2d611d1c565b8082028115828204841417610a2d57610a2d611d1c565b600082611da557634e487b7160e01b600052601260045260246000fd5b500490565b815167ffffffffffffffff811115611dc457611dc4611bfa565b611dd881611dd28454611b48565b84611c10565b6020601f821160018114611e0c5760008315611df45750848201515b600019600385901b1c1916600184901b178455610be1565b600084815260208120601f198516915b82811015611e3c5787850151825560209485019460019092019101611e1c565b5084821015611e5a5786840151600019600387901b60f8161c191681555b50505050600190811b0190555056fea2646970667358221220f9be6719d0901d4176e0aa30c0b047218850607f67e300c94d29ca2f0d0727e664736f6c634300081c0033",
  "linkReferences": {},
  "deployedLinkReferences": {},
  "immutableReferences": {},
  "inputSourceName": "project/src/contracts/AgentRegistry.sol",
  "buildInfoId": "solc-0_8_28-7afbdf3b68ff541370588b68567f34069c3f5522"
}